:020000040001F9
:10C0000070CB0020B9E701004D4F02008DE7010021
:10C010008DE701008DE701008DE701008DE701004C
:10C0200000000000000000000000000031E40100FA
:10C030008DE7010000000000D1E301008DE7010061
:10C04000B5E40100B5E40100B5E40100B5E4010088
:10C05000B5E40100B5E40100B5E40100B5E4010078
:10C06000B5E40100B5E40100B5E40100B5E4010068
:10C07000B5E40100B5E40100B5E40100B5E4010058
:10C08000B5E40100B5E40100B5E40100B5E4010048
:10C09000B5E40100B5E40100B5E40100B5E4010038
:10C0A000B5E40100B5E40100B5E40100B5E4010028
:10C0B000B5E40100B5E40100B5E40100B5E4010018
:10C0C000B5E40100B5E40100B5E40100B5E4010008
:10C0D000B5E40100B5E40100B5E40100B5E40100F8
:10C0E000B5E40100B5E40100B5E40100B5E40100E8
:10C0F000B5E40100B5E40100B5E40100B5E40100D8
:10C10000B5E40100B5E40100B5E40100B5E40100C7
:10C11000B5E40100B5E40100B5E40100B5E40100B7
:10C12000B5E40100B5E40100B5E40100B5E40100A7
:10C13000B5E40100B5E40100B5E40100B5E4010097
:10C14000B5E40100B5E40100B5E40100B5E4010087
:10C15000B5E4010053B94AB9002908BF00281CBF43
:10C160004FF0FF314FF0FF3000F00CB8ADF1080C8C
:10C170006DE904CE00F008F8DDF804E0DDE9022303
:10C1800004B07047704700BF2DE9F04786468C46E3
:10C190000846089E154674461946002B40F0C1809B
:10C1A0008542B2FA82F245D94AB1C2F1200300FABF
:10C1B00002FC954094402EFA03F343EA0C0C4FEA3C
:10C1C000154EA8B2230CBCFBFEF80EFB18CC08FBE6
:10C1D00000F943EA0C43994528D9EB1808F1FF37D9
:10C1E00004D2994502D9A8F102072B44A3EB090315
:10C1F000A4B2B3FBFEFC0EFB1C330CFB00F044EAC4
:10C200000344A04214D92C190CF1FF3304D2A042EC
:10C2100002D9ACF102032C44241A43EA07401EB1B0
:10C22000D440002334607360BDE8F0874746DDE703
:10C230006346F1E792BB431B01214FEA154EAFB2B3
:10C24000200CB3FBFEFC0EFB1C330CFB07F840EA92
:10C250000343984561D9EB180CF1FF3004D298459F
:10C2600002D9ACF102002B44A3EB0803A4B2B3FB48
:10C27000FEFC0EFB1C330CFB07F744EA0344A74209
:10C280004DD92C190CF1FF3304D2A74202D9ACF1DD
:10C2900002032C44E41B43EA0040C0E7C2F1200340
:10C2A0009540944020FA03F12EFA03F34FEA154E1D
:10C2B0009040AFB20343B1FBFEFC0EFB1C10190C07
:10C2C0000CFB07F841EA0041884522D969180CF1B6
:10C2D000FF3004D2884502D9ACF102002944A1EB19
:10C2E00008019BB2B1FBFEFC0EFB1C110CFB07F717
:10C2F00043EA01439F420ED9EB180CF1FF3104D2FF
:10C300009F4202D9ACF102012B44DB1B41EA004100
:10C3100093E76046E3E76146F7E76046A4E76346D4
:10C32000B8E7834206D916B9002108467CE7C6E97A
:10C3300000E0F9E7B3FA83F78FB9834201D372457E
:10C3400008D8BEEB020460EB030301209C461EB933
:10C35000002169E73846FAE7C6E9004CF8E7C7F17B
:10C36000200CBB400EFA07F522FA0CF42EFA0CF161
:10C37000BA401C4320FA0CF3B8404FEA1449014379
:10C380001FFA84FEB3FBF9F809FB18300B0C08FB0D
:10C390000EFA43EA00439A4540D9E31808F1FF300A
:10C3A00004D29A4502D9A8F102002344A3EB0A0360
:10C3B00089B2B3FBF9F809FB183308FB0EFE41EA1A
:10C3C00003418E452CD9611808F1FF3304D28E4504
:10C3D00002D9A8F10203214443EA0040A1EB0E0177
:10C3E000A0FB02984145CE46434602D306D14D45B7
:10C3F00004D20138B9EB020E68EB0403002EA7D07B
:10C40000B5EB0E0261EB030101FA0CFC22FA07F313
:10C41000F9404CEA0303C6E9003199E74046C5E715
:10C420004346D9E737B5204809F04CFB1E4C00289D
:10C4300037D0204609F046FB002832D04FF4D01107
:10C440001A4807F0EFFF00282BDB4FF48031184823
:10C4500007F0E8FF002824DB2569A36820465B6815
:10C4600001A9984770B12B68D90514D4A368DB687B
:10C470004FF4807120469847002140F6CD4007F0E8
:10C48000D7FCEAE72A68019B5340D20503F48043B6
:10C4900004D4002BEAD1A3681B69E9E7002BE5D09F
:10C4A000F9E703B030BD00BF186202003866020031
:10C4B00040660200014B1B68184700BFB0A0002077
:10C4C000014B1860704700BFB0A0002007B50B46B5
:10C4D000002102460091034800F014F903B05DF812
:10C4E00004FB00BFB5C401002DE9F047058B0446ED
:10C4F0002807904611D4022905F0070540F0CD80A9
:10C50000204608F0A7F978B10138218B042811D80A
:10C51000DFE800F0C3106D85950001290CBF45F0E0
:10C52000100545F02005258388F31188BFF36F8F30
:10C53000BDE8F08701F0070AAA4500F0A6800027B1
:10C54000B9463E46A368002B00F0BD8041F00801CB
:10C55000218388F31188BFF36F8FA168002900F051
:10C56000BB800D68002900F0B78033465246204654
:10C57000D1F80480C047002D76D02B6829461D468F
:10C58000F0E701F007035A1F012A1BD8002221F00F
:10C590000701062B276889B2C4E9002209D13B466E
:10C5A00003E0628B013262831B68002BF9D141F0FA
:10C5B00002012046218308F04DF900287BD041F08C
:10C5C000200177E0042B0AD121F0070189B220462F
:10C5D000218308F03FF910B141F020012183218B24
:10C5E00001F0070AAA4550D00027B946AAE72369F7
:10C5F00021F0070141F00601062DD3F800902183B8
:10C600002DD1B9F1000F40D041F00801218388F30A
:10C610001188BFF36F8F20463949C84729E021F0C0
:10C620000701236941F0040189B2042DD3F8049075
:10C630002183E6D000274FF0040A3E4682E721F02E
:10C640000701236941F0050189B2052DD3F808904F
:10C650002183D6D000274FF0050A3E4672E7002717
:10C660004FF0060A3E466DE72B4687E7B9F1000F0B
:10C67000D1D14FF02003EFF3118883F31288BFF379
:10C680006F8F238B23F008032383258BEA062ED597
:10C6900025F01003238305F007056669218B002E22
:10C6A000BFF66FAF00232768C4E9003321F007010C
:10C6B00041F001012183218B4FF0000901F0070AAD
:10C6C000AA457FF43FAF002F9BD041F008012183A2
:10C6D00088F31188BFF36F8F002FC7D03D683946AC
:10C6E00033465246204608F0E1F82F46F4E7AB0601
:10C6F0007FF51AAF25F02003238305F00705FFE639
:10C70000D94802002DE9F04F81468B4617461C465A
:10C71000002595B0387808B9284657E37B1C2528B2
:10C72000039306D05946C8470028C0F24F8301350D
:10C73000FBE1182200210EA808F056FC7B78252B7F
:10C740007DD0002398469E469C461E46781C014696
:10C7500010F8012B2B2A00F0A18000F29880202AEB
:10C7600000F09F80232A00F09F802BB19DF840307D
:10C7700043F040038DF84030B8F1000F05D09DF82C
:10C78000403043F020038DF84030BEF1000F05D05B
:10C790009DF8403043F010038DF84030BCF1000F9D
:10C7A00005D09DF8403043F008038DF840302EB19D
:10C7B0009DF8403043F004038DF840309DF8403040
:10C7C00003F04400442803D16FF386138DF8403002
:10C7D0009DF840302A2A43F080038DF840307FD105
:10C7E0009DF841204B1C42F001028DF841201A783F
:10C7F0002E2A0CBF012100219DF8412061F3410246
:10C800008DF8412078D15A782A2A6ED000224FF034
:10C810000A0C0133194611F8010BA0F13006092E5C
:10C8200040F295809DF840101292C1F3400040EA1A
:10C83000D2700A4660F341028DF840205CE0BA1CD9
:10C8400003928DF843309DF84130DA0740F12E8194
:10C8500054F8048BB8F1000F07DA9DF84020C8F1B6
:10C86000000842F004028DF840205E0740F1278165
:10C8700054F804ABBAF1000F80F226819DF84130E4
:10C880006FF341038DF841304FF0FF3A1CE12D2A40
:10C890000DD0302A7FF469AF012358E74FF0010C27
:10C8A00055E74FF0010E52E74FF001084FE7012620
:10C8B0004DE703460EFB0262303A184610F8016B52
:10C8C000A6F1300CBCF1090FF3D999428FD09DF835
:10C8D00040101192D20F62F341018DF8401086E7AB
:10C8E0000B4600224FF00A0EE7E79DF84120023385
:10C8F00042F004028DF841201A786C2A47D02BD8D8
:10C90000682A31D06A2A4BD04C2A51D01A4612F8E4
:10C91000013B782B03928DF843309DF8412000F2C3
:10C92000BE806D2B51D8692B00F2B980572B67D888
:10C93000412B03D0453B022B00F2B18004229DF82D
:10C94000423062F302038DF84230012373E00CFBA6
:10C9500002020B46303A5DE7742A25D07A2AD5D1F7
:10C9600006219DF841200CE05A78682A9DF8412064
:10C9700006D1012161F3C6028DF841200233C5E7DB
:10C98000022161F3C6028DF841200133BEE75A78D7
:10C990006C2A9DF8412001D10421EBE70321F0E747
:10C9A00005219DF84120ECE707219DF84120E8E7AB
:10C9B000BDF8402022F4F04222F0020242F480420C
:10C9C00042F00202ADF84020DFE76E3BD9B201230E
:10C9D0008B4040F282410B4237D113F0240F51D1EA
:10C9E000D8075CD503219DF8423061F302038DF82E
:10C9F000423002F07803A3F140014B424B411AE070
:10CA00000120A3F15801C9B200FA01F111F4624FFB
:10CA100094D140F6010631421DD111F4043F3ED0BD
:10CA20009DF8423060F3020302F07802402A8DF84C
:10CA3000423034D000239DF84020C2F340010B4324
:10CA400063F341028DF84020FDE602219DF842305B
:10CA500061F30203E8E702209DF8421002F0780239
:10CA600060F30201402A8DF8421002BF9DF8401089
:10CA700041F001018DF84010632BDBD1131E18BF6C
:10CA80000123D8E703219DF8423012F0780F61F3BB
:10CA900002038DF8423014BF01230023CBE79DF839
:10CAA000403043F001038DF84030C3E79DF940204A
:10CAB000002AACBF4FF0FF38DDF84480D5E6980778
:10CAC0007FF5E2AEDDF848A00023CDE911339DF8F3
:10CAD00042309DF8411003F00703012BC1F3C3015D
:10CAE00033D1CB1E042B04D8DFE803F021464621C6
:10CAF0002100236801294FEAE372CDE90E321CD1EF
:10CB00009DF93830DA17CDE90E3204349DF8403003
:10CB100013F0030650D03A4659464846039B07F0A7
:10CB2000F9FF0028C0F252810544039FF2E554F852
:10CB3000043BDA17CDE90E32E8E70229E5D11AB253
:10CB400043F3C033CDE90E23DFE7022B24D1CB1E04
:10CB5000042B04D8DFE803F018101018180001297E
:10CB60004FF0000254F8043B14D00229CDE90E32F4
:10CB7000CCD19BB20E93C9E7073424F00704F4E844
:10CB80000223CDE90E23C1E754F8043B0E930023A2
:10CB90000F93BBE7DBB2CDE7042B08D1073424F0B9
:10CBA0000704D4E900230834CDE90E23AEE7032BB4
:10CBB000ACD154F8043BDDE79DF843007828B4D8A5
:10CBC00062281CD825283FF4ADAD5828ADD1DDE949
:10CBD0000E010DF13603009310AA08AB07F054FFC5
:10CBE000BAF1000F074680F29980002F9DD00DF119
:10CBF0003603D81B002E00F0C0800130BDE0633842
:10CC0000152892D801A252F820F000BFE1CC010013
:10CC1000F3CC01002BCB01002BCB01002BCB01006F
:10CC20002BCB0100F3CC01002BCB01002BCB01005F
:10CC30002BCB01002BCB01007FCD010017CD0100D4
:10CC40003DCD01002BCB01002BCB010065CC0100B9
:10CC50002BCB010017CD01002BCB01002BCB01000A
:10CC600017CD0100BAF1000F0E9F35DB5146384653
:10CC700008F0A6F907EB000A002F3FF456AF002694
:10CC80009DF8423013F01002059200F092800230BD
:10CC90005B06119A48BF129B104448BFC018B8F1F8
:10CCA000000F049240F39F809DF84020A8EB0008FD
:10CCB000C2F380035007069300F19580510640F1BE
:10CCC00088803EB159463046C84700287EDB069B27
:10CCD00001351E4630227DE0384608F06AF9C9E782
:10CCE0000E9B002601208DF8203008AF0DF1210A9F
:10CCF000C6E719075ABFC3F300135E012B26DDE90F
:10CD00000E23002BBFF663AF524263EB43032D2685
:10CD1000CDE90E235BE7002659E700269DF8402069
:10CD20000DF13603DB1B6FF386129A458DF8402018
:10CD30007FF65BAFAAEB0303119356E70E9890B30F
:10CD40000DF136030093002108AB10AA07F09CFEFA
:10CD5000BDF84230BAF1000F03F0EF0343F4F043A3
:10CD600043F010030746ADF84230D6DA00283FF40E
:10CD7000DCAE00260DF13603181A9A4680E70E9BAA
:10CD800007293FF6D2AEDFE801F00C04060C0808D4
:10CD90000C0C1D70C9E61D80C7E6EA17C3E90052F6
:10CDA000C3E61D60C1E62F4F064607F1050A0520C0
:10CDB00066E71A0748BF01306AE7104607930692F4
:10CDC0005946C847DDE90623002804DA15B0BDE856
:10CDD000F08F202243461946002903F1FF33ECDC93
:10CDE000454498466D1A2EB159463046C84700282A
:10CDF000ECDB01359DF84230DA0601D41B0705D57E
:10CE000059463020C8470028E0DB0135059B33B187
:10CE100059469DF84300C8470028D7DB0135049EDA
:10CE20002E4405E059463020C8470028CEDB0135A6
:10CE3000731B002BF6DC53463A465946484607F02A
:10CE400069FE0028C2DB0544A844A8EB0503002BBB
:10CE50007FF76BAE59462020C8470028B6DB013566
:10CE6000F3E700BFBD690200052370B5144D154EF0
:10CE70002C780134B4FBF3F303EB8303E41A08F0DA
:10CE800085FC114A137823B156F82430C01A0728BC
:10CE900013D90E4BD3F8141141B10021C3F814116A
:10CEA000D3F814312C700CB9012313702C7808F0CE
:10CEB0006DFC46F82400012070BD0020FCE700BF97
:10CEC000F1B5002030A70020F0B500200050004050
:10CED00048B1054B054A1B68B3FBF2F35843044BBA
:10CEE00043F001031847704704A2002040420F009E
:10CEF0003066020008F087BC2DE9F84305464FF084
:10CF00002003EFF3118683F31288BFF36F8F4FF086
:10CF10000C090D4B0D4F1C68DFF834802CB986F3DB
:10CF20001188BFF36F8FBDE8F883D4E90123002D8A
:10CF300018BF13462BB198F8102009FB02F2B85C19
:10CF400098472468EAE700BF5CA7002050A70020AC
:10CF5000B4B50020012270B5164B1C7C04F01F03F1
:10CF60009A40D043144B610903EB8103D3E8EF1FD0
:10CF700001EA0005C3E8E65F002EF7D10A4213D0AC
:10CF80000E4B0F4D8BB10C236343EA185178E85CCC
:10CF900007F0B1FE0020FFF7AFFF0C235C43002336
:10CFA0002A192B51C2E9013370BD83F31188BFF3F5
:10CFB0006F8FEFE7B4B5002064A70020F74C0200A4
:10CFC00050A700202DE9F041324B07461D7C4FF061
:10CFD0002003EFF3118883F31288BFF36F8F0C24C3
:10CFE0006C432D4B2D4E195D1A19002947D007CAE5
:10CFF00006EB040C8CE8070000221A5588F3118810
:10D00000BFF36F8F0C236B43F05CF218A8B37B1C4B
:10D0100010D04FF400400021D2F808C0204C00236B
:10D02000ECFB00411F4A2046FFF794F80121381A13
:10D0300003F024FC06F042FE0120FFF75DFF1A4BCF
:10D040006A0903EB8203012205F01F018A40D3E83D
:10D05000EF0F1043C3E8E10F0029F8D1134B3BB1A8
:10D060000C2303FB05F033185978305C07F037FECA
:10D07000FFF770FF06F036FE0120BDE8F0810146A3
:10D08000284600F015F80028B8D007C8344484E8D2
:10D090000700B3E7B4B5002044A7002050A7002044
:10D0A0003F420F0040420F0064A70020DF4C020007
:10D0B0002DE9F04F85B00E4603A900F043F84FF478
:10D0C000004704464FF0000B1B4B039DD3F800A014
:10D0D000431E1BB203EB4303DFF8608005EB8305BF
:10D0E00024B9A146484605B0BDE8F08FC44659466C
:10D0F00068680023E0FB07C1114A6046FFF72AF881
:10D10000C44659460190A8680023E0FB07C10C4AB9
:10D110006046FFF71FF8BAF1FF3FA94601D08245EC
:10D1200005D9731CDED0019B1844B042DAD9013C0A
:10D13000A4B20C3DD4E700BFB4A000203F420F00D2
:10D1400040420F0008B9024B0B600020704700BF3F
:10D1500048660200F0B40C4B0C4E5F6A0C4BB342B5
:10D1600003D36FF08500F0BC70475D68BD4209D302
:10D170001C693CB195F802C00579AC4502D1234643
:10D18000F0BC18472433EAE768A7002010A4002069
:10D19000ECA300202DE9F04705460E461746124C39
:10D1A000DFF84880DFF84890444503D36FF08500EE
:10D1B000BDE8F0876268D9F824309A4212D3A36997
:10D1C00083B190782979884205D13A46314628467C
:10D1D000BDE8F04718475279012A03D13A46314653
:10D1E000284698472434DFE7ECA3002010A4002051
:10D1F00068A700202DE9F04105460E4617460A4C67
:10D20000DFF82880444502D36FF0850009E06369A8
:10D210000BB92434F6E73A463146284698470028A9
:10D22000F7D1BDE8F08100BFECA3002010A40020DE
:10D2300010B5044607F016FF10F1780F00D050B972
:10D24000204607F07FFD044AD2F8C43023EA0003E9
:10D250000020C2F8C43010BD68A7002008220021B9
:10D26000014807F0C1BE00BF23A8002070B50B4BDA
:10D270000B4CA34201D3002070BD0022196A1E7F0F
:10D280000439D5B2AE4201D82433F2E7013211F8A5
:10D2900032508542F5D10120EEE700BFECA300201B
:10D2A00010A4002008B509480378C3F341130A33DA
:10D2B00050F823303BB100F1080200F1100198470B
:10D2C000C043C00F08BD1846FCE700BF68A7002098
:10D2D00004282DE9F14F04460F46DFF8949016D04C
:10D2E00001282DD1DFF88C8098F8B93043B300F0D5
:10D2F000B9FD214D4D4520D24FF0000AD5F820B0A0
:10D300002B7F5FFA8AF6B34204D82435F2E7FFF7A1
:10D31000A5FFE7E70BEBC606307907F0A3FE024650
:10D32000307907F00FFDD8F8C430002A23EA000353
:10D33000C8F8C4300AF1010AE2DA002388F8B930EB
:10D340000D4D4D4508D30B4B1B6A6BB1394620463A
:10D3500001B0BDE8F04F1847EB681BB13A462146D3
:10D36000284698472435ECE701B0BDE8F08F00BFB0
:10D3700010A4002068A70020ECA3002073B5C4B25D
:10D3800063060D468DF8074007D02046FFF76EFF75
:10D3900078B10D4B93F8BA0058B120460A4E55B1FA
:10D3A00002F016F8F3691BB108200DF10701984748
:10D3B000012002B070BD02F033F8F369002BF7D002
:10D3C00009200DF10701F2E768A7002073B5867800
:10D3D0001E4C8DF800600379427943EA0223ADF8D0
:10D3E0000230C378304603F003038DF8043007F0B1
:10D3F000A9FCD4F8C430054618420BD0304600F0E2
:10D4000013FD3046FFF714FF08F0C5FB10B9962056
:10D4100006F028FD684601F0B7FF10F1780F03D041
:10D4200010B1002002B070BD9DF8000002F034F889
:10D4300010F1780F01D00028F3D10120D4F8C430C6
:10D4400084F8B9002B43C4F8C430EBE768A7002088
:10D450002DE9F047924D0446AB690E461746C3B915
:10D46000207800F01F00012876D0022800F0DC8030
:10D4700000BB94F900103A68002963782EDA062B75
:10D480000CD0082B25D0ABB95370012313700223A5
:10D4900003E198470028E3D100200DE06388190AD2
:10D4A0000A1F012A8C4605D9072903D8DAB26B6A0C
:10D4B0001C781CB96FF01500BDE8F0875D786545F4
:10D4C00003D1824200F0E48001302344F0E71B786E
:10D4D000E3E095F8BA3013700123DEE0052B11D09C
:10D4E000092BE7D163886E6A002B32D1FFF7B6FEB5
:10D4F000638885F8BA30EB69002BCDD003206949E9
:10D500009847C9E7A07801F02DFF0028C4D0D1E7E3
:10D510007378042B10D0052B11D0022B04D177790E
:10D520006388BB4208BF012033781E443378002B48
:10D53000EED10028BED0D9E796F80380F4E76388DF
:10D54000BB42F1D1B8F1000FEED13046FFF73EFFFC
:10D55000EAE7FF27B846E9E795F8BA30D7F800C000
:10D56000002BA7D06F6AA2883B4694F804E0187895
:10D5700000289FD05978022904D193F80480F045FF
:10D5800000F292800344F2E78CF800308CF801300E
:10D59000316081E71F4493E00B2B8BD100264FF0C5
:10D5A000FF08B246C14606E07B78042B0FD0052B5E
:10D5B00021D03B781F443B78002BF5D1EB6913B1A8
:10D5C000514607209847002E7FF466AF72E797F820
:10D5D0000280A38897F803909845EAD1638899451B
:10D5E000E7D1B8F1070F1CD805EB0803BA460126AE
:10D5F00083F8BB90DDE7A3884345DAD1A3784B4598
:10D600000AD0BE78304600F00FFC3046FFF710FE1F
:10D61000B0FA80F67609CCE73846FFF7D7FE064623
:10D62000C7E7BA460026C4E794F900206378002AC9
:10D6300018DA002B7FF43EAF24793F6863060AD0E6
:10D640002046FFF713FE00283FF434AF95F8BA30B8
:10D65000002B3FF42FAF3946204601F001FF002395
:10D660007B7014E7012B08D0032B7FF423AF638872
:10D67000002B7FF41FAF012103E0618800297FF4B4
:10D6800019AFA088FFF77AFE00287FF405AF11E7F5
:10D6900002293B607FF41BAF5B883360FCE600BF70
:10D6A00068A7002022A8002094F9000063780028D1
:10D6B000BFF672AF002B3FF467AF0A2B7FF4FAAED0
:10D6C0003B78002B3FF4F6AE797804297FF462AF03
:10D6D000B9788A427FF45EAF072A8EBF00235219C1
:10D6E00092F8BB308CF80030F6E600BF13B5134C4F
:10D6F000237DCBB9E26801AB8020A168019207F0DD
:10D7000030FB019AA3681344A360E3689B1AE360AB
:10D7100043B93AB12369E2889A4203DD9B0601D1FD
:10D720000123237502B010BD002380201A4619463C
:10D73000237502B0BDE8104001F0D8BE68A70020F4
:10D74000002330B585B002460D460193002858D11C
:10D75000002935D108220B460DEB020107F09BFC96
:10D76000002804DA802001F033FE05B030BD2A4CD9
:10D77000029AC4E903552260039ABDF80E30626034
:10D7800004F13802A2609DF908202575002A0ADB01
:10D79000802B04D9802001F01BFE0020E3E713B1A9
:10D7A000C4E90333E1E7FFF77DFD0028DAD0E28822
:10D7B00023699A42D4BFE260E360FFF797FFD4E7A2
:10D7C000154C01ABD4E90215002D04DC07F063FC15
:10D7D0000028CADAC6E72A4607F05DFC0028D9DB34
:10D7E000019AA3681344A360E3689B1AE360002BCB
:10D7F000BBD104F13803A360FFF754FD0028DCD14E
:10D80000B0E78028B1D1044BDA68002AD5D11B7D5E
:10D81000002BD2D1A9E700BF68A70020054B064A1C
:10D8200058629A62054A0020DA62054A1A63054A7C
:10D830009A61704768A7002051D4010055D10100BA
:10D84000F5D1010095D101002DE9F34104463B4D8E
:10D850004FF0FF324FF0FF33394805F07FFD95F868
:10D86000B860002E67D137482C62E86101F058FF9C
:10D8700001F046FD041E42DB00F018FB041E3EDBF7
:10D8800040236846ADF802308DF804608DF80060E2
:10D8900001F07AFD041E32DB802768468DF80070A7
:10D8A00001F072FD041E2ADB3046274901F024FFF7
:10D8B000041E24DB3846244901F01EFF041E1EDB33
:10D8C000224CDFF88C80444520D3002001F0E4FD99
:10D8D000041E14DBD5F8C430802043F00103C5F8E2
:10D8E000C43001F0D9FD041E09DBD5F8C430002492
:10D8F00043F48033C5F8C430012385F8B8301048AC
:10D9000005F0A6FD204602B0BDE8F0810026276A9A
:10D91000227FF3B29A4201D82434D4E707EBC30242
:10D9200057F83310107901F0E7FE01360028EFD0E8
:10D930004FF0FF34E3E76FF07704E0E768A70020DB
:10D9400008A30020D1D2010041D70100ECA30020A0
:10D9500010A4002010B50A4B93F8B8404CB900F061
:10D9600055F848B1FFF75AFF2046BDE81040FFF7D1
:10D970006BBF6FF0770010BD4FF0FF30FBE700BFCB
:10D9800068A7002030B51F4B8BB005AA03F1100526
:10D99000144618685968083303C4AB422246F7D1CD
:10D9A0001B7810222370002101A807F01DFB122212
:10D9B0000021154807F018FB102101A802F0B8F962
:10D9C00000281BDD0828B8BF082001AB09381A1849
:10D9D00000200D4912F8013F0AAC04EB131403F0C8
:10D9E0000F0328336B4414F8144C13F8143C013023
:10D9F00008280C704B7001F10201EBD102480BB00A
:10DA000030BD00BFD5690200F2B500202DE9F04F0E
:10DA1000634C85B000264FF0011BB1463546B24637
:10DA200023782BB95F4B02349C42F3D15C481CE055
:10DA30006378052B05D8DFE803F07904037907251F
:10DA4000A24623781C44EBE7E378002BF9D1A378B6
:10DA500073B109F101095FFA89F9F2E76A68944242
:10DA600009D024359D42F9D3002005B0BDE8F08FE0
:10DA70004D4D4E4BF6E7AB68002BEAD049462046A9
:10DA80009847E6E7002DEFD0002301212A7F93423B
:10DA9000EAD22A6AA77802EBC3021079874201D042
:10DAA0000133F3E70127E0785FFA87F800F003001D
:10DAB0008DF80C00207994F805C040EA0C20ADF8F0
:10DAC0000A0094F90200002825DA07F1100001FA93
:10DAD00000F010EA0B0F25D148F080008DF8080007
:10DAE00002A8CDE9003207F0A5FADDE900320121F4
:10DAF000C0B99DF8083013F0800FA37013710B4666
:10DB00001DBF08F110085FFA88F801FA08F3BB405E
:10DB10004BEA030B95E701FA07F010EA0B0F01D16E
:10DB20004046DBE70137102FBDD1B9E7032E1DD1E9
:10DB3000FFF728FF074668B107F03BFA804648B177
:10DB40001B4807F036FA804504D142463946A01CEE
:10DB500007F03FFA6FF002012378091BE21804EB8B
:10DB60005303D14213D50136F6B26AE7002EF1D144
:10DB7000BAF1000F3FF478AFA4EB0A038AF8023041
:10DB8000C3F307238AF803308AF80490EBE74FF0D9
:10DB9000000002F8010C13F8010902F8020DE0E799
:10DBA0002CA30020EBA30020ECA3002010A4002055
:10DBB000D5690200094B00211A4610B51C78844231
:10DBC00004D15C6814B102EB811010BD013104294D
:10DBD00003F14003F2D10020F7E700BF30A8002096
:10DBE0002DE9F34150F8283C0446103310F82C6C12
:10DBF00010D1036950F8202C99073CD502BB13F0D3
:10DC0000040304D11A461946304607F0AAF8002347
:10DC100044F8283C54F8283C10330ED054F8185CD3
:10DC20005DB154F81C7C54F8148C07F0B4FF002844
:10DC30004CD021462B4808F0A2F802B0BDE8F08194
:10DC400050F8241C01AB304607F08BF810B16FF090
:10DC50001503DDE7019A54F8243C134444F8243CAE
:10DC600054F8203C9B1A44F8203C54F81C3C1344C4
:10DC700044F81C3CCEE750F8241C01AB304601F0C0
:10DC8000B1FC0028E3D1019D54F8243C2B4444F816
:10DC9000243C54F8203C5B1B44F8203C54F81C3CCA
:10DCA0002B4444F81C3C002DB1D0304601F03EFD21
:10DCB000B5FBF0F303FB1055002DA8D154F8203C20
:10DCC000002BA4D0304601F0D5FCA3E744F8180C93
:10DCD000A4F1100005F02CFC424639463046A84716
:10DCE000ABE700BF10A400204B1E012B73B5064606
:10DCF0000D460FD8FFF75EFF044668B9012D09D124
:10DD000001AB012230460DF1030101F06BFC019BD8
:10DD1000002BF5D102B070BD07F03DFF04F12C01DE
:10DD200008B1012D05D1084602B0BDE87040FFF7EB
:10DD300057BF034802B0BDE8704008F020B800BFEC
:10DD400010A400202DE9F74F06461546984601918C
:10DD500007F04DF8044600285CD14FF02003EFF3A4
:10DD6000118A83F31288BFF36F8FDFF8B0B00022FF
:10DD70000023584605F0FCFB70B9DFF8A490A7011A
:10DD800009EB8414636813F1100F14D10193584602
:10DD900005F0CEFB019B06E00134042C0BF1400B97
:10DDA000E5D16FF00B038AF31188BFF36F8F18462C
:10DDB00003B0BDE8F08F019B2061C4E902350C9BE4
:10DDC000304663610D9B09F80760A3616FF00F0394
:10DDD000C4F83C80636001F0A9FC58B1304601F002
:10DDE000A5FCB5FBF0F303FB10551DB1E36B43F04D
:10DDF0000403E36318F0020F07D007F12C01094870
:10DE0000494407F0BCFF0023CDE7304601F032FC67
:10DE10000346C8E76FF00F03C9E700BF4CA8002016
:10DE200030A8002010A4002010B54FF02003EFF31D
:10DE3000118483F31288BFF36F8FFFF7BBFE50B1DD
:10DE40004368103307D16FF08B0300F12C0143605E
:10DE5000034807F094FF84F31188BFF36F8F10BD60
:10DE600010A4002070B504250E4C4FF02003EFF3F2
:10DE7000118683F31288BFF36F8F6368103307D165
:10DE80006FF08B030848636004F12C0107F077FF03
:10DE900086F31188BFF36F8F013D04F14004E4D194
:10DEA00070BD00BF30A8002010A4002070B5002570
:10DEB000094C0A4E3146204607F044FF0122A4F1E6
:10DEC00010001146013507F000FF042D04F1400455
:10DED000F0D1002070BD00BF5CA80020E1DB010094
:10DEE00070B504460E4601791248154606F05CFFEF
:10DEF000E8B194F900206378002A11DB202B04D0CC
:10DF0000222B09D06FF0850005E007222968103820
:10DF100007F05FF8002070BD638800F8093CF9E75E
:10DF2000212BEFD10723103828603360F2E76FF020
:10DF30001200F0E730A90020014608B5034806F0BA
:10DF400040FF10B1012300F8073C08BD30A90020B4
:10DF50000123016981F84B300B6833B191F84930E6
:10DF60001BB10248083107F00ABF704710A4002017
:10DF70000123016981F84A300B6833B191F84830C8
:10DF80001BB10248083107F0FABE704710A4002008
:10DF9000002103460C4AA0F84810106883F89C1032
:10DFA000C3F8940090889279A3F8980083F89A2097
:10DFB00083F89B104022A3F89E1083F8A01003F171
:10DFC0004C0007F011B800BF2066020038B50569A3
:10DFD00095F89E0088B195F89F307BB985F8483058
:10DFE000D5F8900006F0DFFD044600220023044827
:10DFF00005F1180105F030FC204638BD0020FCE793
:10E0000010A4002013B504698DF8071094F89E3011
:10E01000A3B194F89F308BB90DF107010122D4F818
:10E02000900084F8483006F0BEFD014640B1212240
:10E0300000230C4804F1180105F00EFC02B010BDDD
:10E040000122D4F8900006F0FEFD0028F6D001224F
:10E05000D4F890000DF1070106F0A5FD0028E6D1E7
:10E06000ECE700BF10A40020F0B5D0F88C300546D6
:10E070005B6885B01B6A1F7D384606F0B8FE064611
:10E08000E0B94FF48062A86F03A906F0ABFD044627
:10E09000A0B18306A5F1180385F830600193084B01
:10E0A00008BF00F1FF34039900932246022338464B
:10E0B000FFF748FE2146A86F06F0B0FD05B0F0BDA1
:10E0C000C5E00100012310B582F8483013681446FA
:10E0D0003BB192F84A3023B10A4802F1080107F037
:10E0E0004EFED4F890309A681B699A4208D004F129
:10E0F00018010022BDE810400023024805F0ACBB27
:10E1000010BD00BF10A40020002310B50469C4F89E
:10E11000A8300C4BC4F8A400596804F1A80269B9EE
:10E12000C3E9002204F10800074907F00BFE04F1DF
:10E130001800064907F034FE002010BD0A605A603E
:10E14000F0E700BF30A90020194E020069E001008D
:10E1500073B5144602F14C060A1E05461FDD314612
:10E16000D4F88C0006F01FFD012384F849302368A1
:10E170003BB194F84B3023B10E4804F1080107F08D
:10E18000FEFDD4F88C104B684A699A1ACB699B1A29
:10E190003F2B04D8012384F8A03002B070BD064B99
:10E1A000402200933146012328460194FFF7CAFD1F
:10E1B000F3E700BF10A4002051E1010038B50D467F
:10E1C00001461E4806F0E5FD044680B3024652F8BB
:10E1D000A439691E5B68052929D8DFE801F02028E9
:10E1E0000320252914F8061C31B91B6A187BFFF798
:10E1F000AFFF012304F8063C14F85C3CBBB90123D3
:10E2000004F85C3C54F8A43C8BB114F85A3C73B14C
:10E21000A4F19C010A48BDE8384007F0B0BD1046A3
:10E22000BDE83840FFF7B4BE012304F8053C38BD13
:10E2300014F8053C002BFAD00023F6E730A90020A3
:10E2400010A4002037B50024084D4FF0FF334FF4E1
:10E25000806228460649009405F0C6FA054928461A
:10E2600007F09FFC204603B030BD00BF10A4002083
:10E2700030B600201B6A0200014910220A60704774
:10E2800010ED00E072B6404080F31188BFF36F8F4D
:10E2900001B5FEF7E9FD002802D0BFF34F8F30BF74
:10E2A000BDE8014062B6BFF36F8F704772B6494058
:10E2B00081F3118801B5FEF7D7FD002802D0BFF326
:10E2C0004F8F20BFBDE8014080F3118862B67047D0
:10E2D00040B2002807DB01234109034A00F01F0078
:10E2E000834042F82130704700E100E040B200284E
:10E2F0000CDB01220649430900F01F008240203355
:10E3000041F82320BFF34F8FBFF36F8F704700BFDB
:10E3100000E100E0054B420953F82220012300F000
:10E320001F0003FA00F01040704700BF00E100E05A
:10E3300040B2002801F10101ACBF00F16040064B82
:10E340004FEA4111C9B2ABBF00F5614000F00F00C8
:10E3500080F800131954704714ED00E030BFFFF748
:10E36000FDBF00BF0B4A08B50B4B22F07F029A603D
:10E37000BFF34F8FBFF36F8FD3F8882022F4700262
:10E38000C3F8882004F028FE05F0FEFD00F008FA2E
:10E3900004F062FE00C0010000ED00E0094A0A49F5
:10E3A000936809685867996708494B6843F0805338
:10E3B0004B60002383F31188BFF36F8F9368986FCE
:10E3C000704700BFB4B500206C69020000ED00E0AA
:10E3D00015498A6882F87DE04FF030001044EFF371
:10E3E000098C80E8F01F202080F31288BFF36F8F24
:10E3F0000E4F4FF000668A698A603E6092F97DE0B8
:10E40000506F0023536780F3118802F1300090E8C9
:10E41000F01F8CF3098802F1000004B506F09DFDA1
:10E42000BDE8044070470000B4B5002004ED00E0F2
:10E430001EF0040F0CBFEFF30880EFF30980816931
:10E4400011F8021C0229FFD001B506F077FD01BDCD
:10E4500042F8203C009B0C4942F81C3C019B21F0F7
:10E46000010142F8183C029B42F8081C42F8143C97
:10E470004FF0807342F8043C002343674FF43C4361
:10E48000203A0265C367704781440200084B9860D8
:10E49000436E83F30B88104681F30988002163B62D
:10E4A00081F31188BFF36F8F0022002305F0E8FF8E
:10E4B000B4B5002001B572B60B4A506900281EBFE2
:10E4C0000021516107F072FB62B6EFF30580A0F105
:10E4D00010004FEAC0000549014409C99847BDE84A
:10E4E0000140034908470000B4B50020F062020073
:10E4F000F5E40100044B99689869884203D0034908
:10E500004FF080520A607047B4B5002004ED00E07F
:10E51000154B9A6A12F0007F9A6A14BF1E201D20C4
:10E5200012F0807F9A6A18BF1F2012F4801F9A6A27
:10E5300018BF022012F4002F9A6A18BF212012F48B
:10E54000802F9A6A18BF222012F4003F9A6A18BFDF
:10E55000232012F4803F9A6A18BF24206FEA0242F7
:10E560006FEA12429A62704700ED00E010B5194B55
:10E570000246986A9C6A10F4805F14BF1720162028
:10E5800014F4006F9C6A18BF1820A40509D5986B75
:10E59000986A000404D51AB19A6A22F400429A6279
:10E5A00019200C4B9A6A12F4806F9A6A18BF1A20CD
:10E5B000D2050CD49B6A13F4005F18BF1C20054AD7
:10E5C000936A43F47F43936200230B7010BD1B20BA
:10E5D000F5E700BF00ED00E010B51C4B0246986A5D
:10E5E0009C6A10F0100F14BF1120102014F0080FB7
:10E5F0009C6A18BF1220A40709D5586B986A0006B8
:10E6000004D51AB19A6A22F080029A6213200F4B45
:10E610009A6A12F0010F9A6A18BF142012F0200FA4
:10E620009A6A18BF1520D40658BF9B6A074B9A6A8E
:10E63000920642BF5A6A22F400525A629A6A42F023
:10E64000FF029A6200230B7010BD00BF00ED00E0D6
:10E6500070B5474B05465B6800268AB0C3F30803D4
:10E6600086F31188BFF36F8F02F07F40B0F17F4FC8
:10E6700016D1D00714D4540603D4100704D40126AD
:10E6800004E012F0040200D00D4600260022033BF5
:10E690008DF80720032B05D8DFE803F01E5C6059D6
:10E6A0003546F3E700249DF807309BB92022294620
:10E6B00002A806F08EFC099B002E53D0C3F308027B
:10E6C00022B96FEA53236FEA43230993204602A934
:10E6D00006F032FC0AB070BD254BDA6A9107E1D42E
:10E6E000DA6A002ADEDBDA6A5200DBD55A69A969E8
:10E6F00042F480725A61BFF34F8FBFF36F8F5A6934
:10E7000031F8021C22F480725A61BFF34F8FBFF3BD
:10E710006F8F4DF60272914201D12C68C3E79A6A5D
:10E72000D2B232B101200DF10701FFF755FF0446C7
:10E73000B9E79A6A12F47F4F05D001200DF1070165
:10E74000FFF714FFF3E79B6AB3F5803FAAD3FFF707
:10E75000DFFEECE700200DF10701E6E700200DF1F8
:10E760000701EDE723F4FF7323F00103ADE700BFDA
:10E7700000ED00E0044B5A6942F010025A615A69F8
:10E7800042F480625A61704700ED00E0EFF30880C8
:10E79000EFF3098101B57246FFF75AFF01BD00BFD3
:10E7A000002320210348C2180133452B82F80013AF
:10E7B000F9D1704700E100E0002080F31488BFF336
:10E7C0006F8F002080F30A8880F30B88FEF792FB9E
:10E7D00000200E490860BFF34F8F0D4880F3088872
:10E7E00000F03EF8202080F311880A484FF40061C1
:10E7F000401880F30988EFF314800221084380F366
:10E800001488BFF36F8FFFF7ADFD000094ED00E0BB
:10E8100070CB002030BE0020BFF34F8F0549064B60
:10E82000CA6802F4E0621343CB60BFF34F8F00BFAE
:10E83000FDE700BF00ED00E00400FA0500231846E4
:10E840000649D1F89020C2F30722934200DB7047BB
:10E85000C1F89830C1F8A0000133F6E700ED00E000
:10E8600010B572B6002484F31388FFF7E7FF234640
:10E870004FF0FF300C4A03F120010133102B42F816
:10E880002100F8D100234FF0FF30074A03F1600167
:10E890000133102B42F82100F8D162B6BFF34F8F3D
:10E8A000BFF36F8F10BD00BF00E100E0084B9B6815
:10E8B00083420BD1EFF3058343B1064B5A6842F014
:10E8C00080525A605A6A22F400425A6205F0EABA4B
:10E8D000B4B5002000ED00E01FB5094C094A2346FD
:10E8E0000121094800F0EAF800230393074B0121B6
:10E8F000E41A01A80193029400F0EAF804B010BDF4
:10E900000000082000A000209466020010A400204F
:10E9100010B50C7A0B6804F01F0223F01F031A4392
:10E92000CB68640923F01F03054943EA440343F01D
:10E930000103C1F89800C1F89C20C1F8A03010BDB7
:10E9400000ED00E02DE9F04F0F46144606464FF06B
:10E9500000084E4D85B0B84580F29480D6F80490FA
:10E96000B9F1000F36D0B9F11F0F40F2898019F0CC
:10E970001F0F40F08580D6F800A01AF01F0F7FD13E
:10E98000504606F0F0FA834609EB0A00013806F01B
:10E99000EAFA834574D11BF1160F71D05C456FDD27
:10E9A000C5F898B0D5F89C10C5F898B0D5F8A03047
:10E9B00021F01F0143F01F0AD6E900321A449942A0
:10E9C00002F1FF391ED1CA4508D131465FFA8BF0FA
:10E9D00006F0D2FA08F101080C36BCE73146C5F85A
:10E9E00098B0D5F89C3022F01F0203F01F031343A8
:10E9F000C5F89C30E0B206F0BFFA10F1160F3FD018
:10EA0000441CE7E7C5F898B0D5F8A020013B23F0F7
:10EA10001F0302F01F021343CA453146E0B2C5F896
:10EA2000A030E8D006F0A8FA10F1160F28D0C5F8EB
:10EA300098B0D5F89C209DF808300AF1FF3A62F3AF
:10EA400004038DF80830D5F8A0309DF808205B0845
:10EA500063F347128DF80820D6E90032134400937F
:10EA600023F01F03411C5344A3EB0903C8B223F056
:10EA70001F030728039303D86946FFF749FFBFE741
:10EA80006FF01504204605B0BDE8F08F00ED00E002
:10EA90000522044BC3F89420BFF34F8FBFF36F8F51
:10EAA000704700BF00ED00E0BFF35F8F0022024B14
:10EAB000C3F89420704700BF00ED00E010B5034C90
:10EAC0002278FFF73FFF207010BD00BF04B6002082
:10EAD0002DE9F74F294D8A4606464FF00008AB4610
:10EAE000274FD0451BDAD6F80490B9F1000F3FD07C
:10EAF00031680846019106F036FA0199044609EB9F
:10EB00000100013806F02FFA84424FF014021D4B29
:10EB100008D002FB08F36FF015024BF8032003B096
:10EB2000BDE8F08F14F1160F2C60F8D01978A142CF
:10EB3000F5DD02FB08B0C7F89840C7F89840D7F851
:10EB40009C4000F10801007B64F304000871D7F8D1
:10EB5000A0000C79400860F347140C71D7F89C10A2
:10EB600021F01F016960D7F8A01021F01F01296171
:10EB700008F1010814350C36B3E700BF38A90020AE
:10EB800000ED00E004B6002038B50E4D2C68082CCE
:10EB900015D80020FFF788FF0B4B0C4AC3F8C020A4
:10EBA000844205D10A4B00201C70FFF771FF38BD6D
:10EBB000696801EB0011FFF7ABFE0130F0E74FF0A1
:10EBC000FF30F4E7A066020000ED00E0AAFF440079
:10EBD00004B60020014B1860704700BF10A1002050
:10EBE0000020024BC3F81406704700BF00500040DD
:10EBF0000146014807F05EB81CA300200149024805
:10EC000007F0BDB874A90020B0A40020020600F0EF
:10EC10007F0312D5082B05D1010700F00F0306D59D
:10EC20000E48704710F0780F12D100F00F034C20FF
:10EC300000EB43100A4B18447047082B05D102071C
:10EC400000F00F0306D50748704710F0780FF6D094
:10EC500000207047044800EB4310704798AA00203A
:10EC60004CA90020B8AB0020B8AA00200022002345
:10EC7000014804F029BC00BF1CA3002010B5054CBE
:10EC8000FFF7F4FF20B1011D204606F05BFFF7E718
:10EC900010BD00BFD8A2002007B5002300220E48F7
:10ECA00001A904F059FA90B1FFF7E8FF0022002310
:10ECB000094801A904F050FA38B9042301984060CA
:10ECC0000374FFF795FFFFF799FF002001E001981B
:10ECD000406003B05DF804FBD8A2002010B50446E4
:10ECE000FFF7DAFF60B1002204720274FFF780FFC1
:10ECF000044B93F824301BB1BDE81040FFF77EBFF2
:10ED000010BD00BF4CA90020F8B5877806463846EC
:10ED1000FFF77CFF3B060446F57812D5002D43D162
:10ED2000FFF7BAFF034600283ED00122A577027400
:10ED3000032202739C60FFF75BFFBDE8F840FFF71A
:10ED40005DBF4DB1012D2FD1FFF7A6FF034658B38C
:10ED5000657705740573EDE7FFF79EFF20B3B27882
:10ED6000124B12F0800F02F0080111D041B1D3F81C
:10ED7000A836E36001230374022384600373DAE797
:10ED8000142102F00F0201FB0233D3F80836F0E73A
:10ED900011B1D3F8A837ECE7142102F00F0201FB00
:10EDA0000233D3F80837E4E7F8BD00BF0060034042
:10EDB000012807B50FD002280ED048B90022002341
:10EDC0000848CDE9002345F69A12002305F0A8FA79
:10EDD00003B05DF804FB002003B05DF804EBFFF71F
:10EDE0007DBF00BFA0A2002013B500220121372063
:10EDF000FFF79EFA3720FFF76BFA124803F058FB33
:10EE0000114B98421AD10024104802F041FB1048DF
:10EE100003F0EAFF4FF0FF334FF480620D490E48D4
:10EE2000009404F0E1FC0D490B4806F0BAFE0C48D2
:10EE30000C4906F087FF204602B010BD6FF00400B9
:10EE4000FAE700BFA1EE01000000AD0B566A020018
:10EE5000C866020030BA0020B0A400204B6A02004D
:10EE600074A9002025F00100002310B50B49D1E85A
:10EE7000EF2F012A03D1C1E8E03F0028F7D10CD1E0
:10EE800051F8044C1439204605F0C4FD783004D103
:10EE90002046BDE8104005F098BD10BD6CA90020CB
:10EEA000F0B5064689B01422002103A806F09CF8AC
:10EEB0003378013B052B21D8DFE803F07A031414E3
:10EEC0006A16032300248DF81430FFF7E5FE03468D
:10EED000A0B100F108020474DDE9050182E8030035
:10EEE00018461DE00423EDE7B7783846FFF78EFE9D
:10EEF000837A044623B1013B022B43D909B0F0BD0C
:10EF00003B06F57813D5002DF8D1FFF7C5FE034673
:10EF10000028F3D00122A5770274032202739C60BB
:10EF2000FFF766FE09B0BDE8F040FFF767BE55B1D8
:10EF3000012DE3D1FFF7B0FE03460028DED0657750
:10EF400005740573EBE7FFF7A7FE07460028D5D049
:10EF50000123037402238460037304F10C01B0786D
:10EF600006F075FD134AE168B2F88C328B4206D97F
:10EF70005B1AA2F88C3203F0D1FC3846D0E7A2F835
:10EF80008C52FAE7304609B0BDE8F040FFF7BCBE4E
:10EF900001A803F09DFC9DF80530052B04D19DF8D8
:10EFA000043013F0600FA9D0034B012405938CE7C4
:10EFB00002248AE74CA90020B8AA002038B5002412
:10EFC00064F07F00C0B2FFF721FE013406F018F8AC
:10EFD000082CF5D100240E4DE0B2FFF717FE0369AF
:10EFE00003B90561013406F00BF8082C05F1400562
:10EFF000F2D1084806F004F8074BD3F87C2212B986
:10F00000064AC3F87C22064805F0FAFF002038BD06
:10F01000DCAF002098AA00204CA90020DCAB002027
:10F02000B8AB00202DE9F0430746AD4CDFF8B482C1
:10F0300085B0FFF71BFE10B905B0BDE8F08394F86A
:10F040002530027C00F104093BB9002A00F08880D9
:10F050004946A44806F076FDEBE7042A44D8DFE8E9
:10F0600012F07F000500FE0014012F01037B85686C
:10F07000032B39D8DFE803F0023F5C616E69082298
:10F080000021304605F0B0FF974B9848D3F8802414
:10F090003270D3F884247270D3F88824D3F88C1497
:10F0A00042EA01227280D3F89024D3F8941442EA01
:10F0B0000122B280D3F89824D3F89C34314642EA36
:10F0C00003230822F380EA6005F083FF2B68002108
:10F0D000687A984796F90030002B08DBF38833B143
:10F0E000A4F88C3203F01AFC49464046B2E70023EC
:10F0F000A4F88C32F8E76B7F002BF5D02B7F002B28
:10F10000F2D000264FF0FF326E774FF0FF33784891
:10F110002E7705F08BFF6B6901A901936B68CDE930
:10F120000236687A03F006FA714805F081FFDBE7E2
:10F1300001212B68687A9847D6E7AB7A6BB9EB7FE9
:10F140005BB96B484FF0FF324FF0FF3305F06EFFB5
:10F1500003F018FC664805F06BFF02212B68E9E715
:10F16000027A042AC0D8DFE802F055031F636F005B
:10F1700003F068F905460028B6D103F00FF9012322
:10F180005C49D1E8EF2F002A03D1C1E8E03F002815
:10F19000F7D1A9D141F8085C41F8105CE069143955
:10F1A000636105F0BAFB9FE7002565F07F00C0B200
:10F1B000FFF72CFD037A13B1407A03F091FD01357E
:10F1C000082DF2D194F854311BB194F8550103F095
:10F1D00087FD0025E8B2FFF719FD037A13B1407AE5
:10F1E00003F07EFD0135082DF4D194F874321BB183
:10F1F00094F8750203F074FD012003F005F9012372
:10F2000084F825302368002B3FF46EAF00210220E4
:10F21000984769E7002584F8255003F01FFDFFF7A4
:10F2200023FE2368002B3FF45FAF29460420EFE75D
:10F23000002B3FF459AF03F00FF92368002B3FF484
:10F2400053AF00210520E3E72268002A3FF44CAFCA
:10F25000002B3FF449AF00210620904744E707F117
:10F2600010054FF0FF334FF0FF32284605F0DEFE69
:10F27000FFF7A4FE284605F0DBFE57F8283C002BDC
:10F280003FF432AF00210120C2E794F874327BB121
:10F29000012584F8895284F88852FFF7FDFC38B1C3
:10F2A000154A057405738260FFF7A2FCFFF7A6FC00
:10F2B00057F8283C002B3FF417AF00210A20A7E79E
:10F2C00003F07AFD03F0CAFC03F05EF8FFF7D6FC0A
:10F2D000FFF774FE03F068FD084803F0E9F803E760
:10F2E0004CA90020D8A200200060034050A90020B3
:10F2F00084A900206CA90020B8AB0020A1EE010079
:10F3000038B5154D95F8244024BB05F1380006F0BA
:10F310005CFC022000F020FB22460121E86136203F
:10F32000FFF706F803F040FDFFF748FE044610B96A
:10F33000012385F82430094B1B680BB1FFF75EFCF5
:10F34000074BD3F80034DB0702D50020FFF730FD70
:10F35000204638BD0024FBE74CA900201CA3002058
:10F3600000700340074B93F824203AB193F82530FE
:10F37000002B14BF00206FF0120070476FF01200D6
:10F38000704700BF4CA9002038B5104B044693F8D5
:10F390002430C3B105782846FFF738FC10B96FF068
:10F3A000150038BD457223798372638843602078E5
:10F3B000618810F0080F02D14B1E0B42EFD106F00E
:10F3C00041FB0020EDE76FF01200EAE74CA90020B6
:10F3D00038B5124B054693F82420CAB193F825306E
:10F3E000B3B1FFF713FC0446A8B1837A012B12D006
:10F3F00007D9023B012B07D900206369E060A361B4
:10F4000038BD03F0C7FAF7E7284603F033FAF3E70D
:10F410006FF01200F4E76FF01500F1E74CA900203F
:10F4200038B50E4B054693F8242082B193F8253069
:10F430006BB1FFF7EBFB68B115F008040AD1284661
:10F4400003F03AFA284603F09FFC204638BD6FF0DF
:10F450001200FBE76FF01500F8E700BF4CA9002091
:10F4600038B50C4B054693F824200C4662B193F84E
:10F4700025304BB1FFF7CAFB48B144B1284603F031
:10F4800001FA2070002038BD6FF01200FBE76FF02A
:10F490001500F8E74CA9002070B5134E044696F805
:10F4A0002430C3B1FFF7B2FB0546B8B1230705D43A
:10F4B000204603F001FA204603F066FC2B7A83B95C
:10F4C00001232B7296F825300BB9002070BD204621
:10F4D00003F006FCF9E76FF01200F7E76FF0150094
:10F4E000F4E76FF07700F1E74CA900202DE9F04335
:10F4F000DFF8E4801E4698F8243007468946154612
:10F5000085B0002B61D098F82530002B5DD0030624
:10F510005ED5FFF77BFB0446002859D0037A002B09
:10F5200056D04FF0FF334FF0FF3208F1380005F0AE
:10F530007DFDA37F4BB108F1380005F079FD6FF038
:10F540000A04204605B0BDE8F083A37AC5B13BB3F9
:10F5500001234FF00008A377384601A9CDE90195B2
:10F56000CDF80C8002F0E6FF1C4B984229D084F8BD
:10F570001E801EBB6FF00404194805F059FDE0E73A
:10F58000E27F02B1E577002BE2D103F00BFAB8423B
:10F59000DED003F0F7F9124805F04AFD0024D0E769
:10F5A000B8F80A30AB42F0D96268B5FBF2F302FB5F
:10F5B0001353002BE9D10123E377E6E7C6F8008077
:10F5C000D8E706B135600024D6E76FF01204B8E73B
:10F5D0006FF01504B5E700BF4CA900200000AD0B8B
:10F5E00084A900202DE9F0411D46204B174693F8D1
:10F5F00024200E46002A33D093F8253083B3030627
:10F6000031D401B97FBBFFF701FB044658B3037A3D
:10F610004BB34FF0FF334FF0FF32154805F006FDB6
:10F62000E368B8469F4228BF984646B93FB905B13E
:10F630002B600F4805F0FCFC0020BDE8F08142463D
:10F640003046A16905F0C5FCA3694344A361E368A2
:10F65000A3EB0803E360002DEBD0C5F80080E8E7DA
:10F660006FF01200E9E76FF01500E6E74CA9002003
:10F6700084A9002070B51E4D034695F8242082B35E
:10F6800095F825206AB31B062ED4FFF7BFFA04466F
:10F6900050B3037A43B34FF0FF334FF0FF3205F11D
:10F6A000380005F0C3FCE368B3B901266369267727
:10F6B000A361637F83B1FFF7EFFA30B905F138003A
:10F6C00005F0B6FC6FF00B0070BD06748460067325
:10F6D000FFF78EFAFFF792FA064805F0A9FC002022
:10F6E000F2E76FF01200EFE76FF01500ECE700BFF4
:10F6F0004CA9002084A9002010B5084B0C4693F8B3
:10F7000024302BB1FFF782FA28B10460002010BD2D
:10F710006FF01200FBE76FF01500F8E74CA900202E
:10F72000014B1860704700BF4CA9002008B5074B7B
:10F7300093F8243023B1FFF769FA20B1406808BD7F
:10F740006FF01200FBE76FF01500F8E74CA90020FE
:10F75000084B70B5C31A0D4607499B100446594320
:10F760004022064805F0C2FC2B4601462046BDE873
:10F7700070401847F0B10020B76DDBB600620200A0
:10F78000402373B50B4C0093041B0B460D460A49EE
:10F79000A41061430646094A094805F0D4FC011E3D
:10F7A00005DA30462B4602B0BDE87040184702B07B
:10F7B00070BD00BFF0B10020B76DDBB6B3510200E1
:10F7C000006202002DE9F8430022012106460520CF
:10F7D000FEF7AEFD114801F017FA114B984219D10E
:10F7E00001F022FA00244FF01C090C27DFF83480C6
:10F7F0003569414609FB045005F07CF8002807DB19
:10F80000012307FB04551C44042CAB67F0D10020F6
:10F81000BDE8F8836FF00400FAE700BF5DF801006F
:10F820000000AD0BD066020001460C2300224B43C2
:10F8300070B50848C41878331844D4E91C562267B8
:10F8400005F041FC2DB132462B46BDE87040024820
:10F85000184770BDF0B1002000620200052811D8E1
:10F86000DFE800F0030E10100C0A074B986F10F041
:10F87000070007D1FFF7D8BF0220FBE70320F9E715
:10F880000120F7E7704700BFF0B1002008B54FF046
:10F890002003EFF3118183F31288BFF36F8F114AB6
:10F8A000136843F002001060DA0708D481F311886E
:10F8B000BFF36F8FBDE80840012001F0CDB90A4BBE
:10F8C000D3F80C24D3F80C34D307EFD5074805F050
:10F8D000FAFB81F31188BFF36F8FBDE80840002069
:10F8E000FFF7A2BF90B200200050004068B2002095
:10F8F0001FB500220123CDE902236B46084ACDF84B
:10F9000000D0CDF804D005F04DFC002805DB4FF405
:10F9100080420023684603F02BFE05B05DF804FB2F
:10F92000E951020010B54FF02003EFF3118483F387
:10F930001288BFF36F8F074A136823F00201DB07B9
:10F94000116002D4012005F062FF84F31188BFF337
:10F950006F8F10BD90B20020C3B21C20014A03FB80
:10F9600000207047F0B100202DE9F0410122074648
:10F970003549D1E8EF3FC1E8E02F0028F9D133B98C
:10F98000324933484B60CB608A6004F0C6FF7B1E6F
:10F99000012B28D8012F06D12E4BD3F81C3403F0AD
:10F9A0000303022B1FD006F0F6F80546E8B92A4BF0
:10F9B0001B78D3B102220646264BC3F80823254CF8
:10F9C000DFF89880D4F81834D4F81824D20316D568
:10F9D00003F00303022B01D0012F10D175B386F37E
:10F9E0001188BFF36F8FBDE8F0814FF02003EFF374
:10F9F000118683F31288BFF36F8F0125DFE7C5B14E
:10FA00003046FEF753FCD4F81835DBB2012BD9D1C0
:10FA1000D4F80421002AD5D00022C4F80421D4F857
:10FA200004210222C4F818252022C8F88021A360EE
:10FA3000C8E70021212004F0FBF9E4E70222054B8E
:10FA4000C3F80423CFE700BFECB10020DCB10020F5
:10FA50000CB20020005000402BB6002000E100E076
:10FA600008B5074806F02EF838B10648FFF7B2F897
:10FA70000448FCF725FD002008BD6FF01200FBE7ED
:10FA80006062020089FA01000A2838B50446074D71
:10FA900004D1AB680D2128465B689847AB680348E2
:10FAA0005B68E1B29847204638BD00BF6062020043
:10FAB00030B5406801F01F04057BB2F5001F85B02A
:10FAC00044EA451405D1204601F0BAFB002005B0F8
:10FAD00030BD0025B2F5800FCDE9025514D1B3F148
:10FAE000007F0CBF042305238DF808300023204637
:10FAF000194602AA01F0E2F91F4B984238D10121C0
:10FB0000204601F057FBE1E7B3F1C06F25D0B3F118
:10FB1000007F14BF012302238DF808308368CB4097
:10FB2000D907E3D4B2F1A07FE0D1144A14486109A7
:10FB3000012908BF024604F01F03803352F8233026
:10FB4000DB07D3D40DF107052946204601F0DEFA84
:10FB50000C4B984203D00395C8E70323DCE7284603
:10FB600001F022FB044B9842F5D06FF00B00AEE79A
:10FB70006FF01500ABE700BF0000AD0B002584401F
:10FB8000002884400400AD0B10B501F0FDFA0446D6
:10FB900068B901F0D1FA084B98420AD121460748CA
:10FBA00001F0AEFA224605212F20FEF7C1FB00200E
:10FBB00010BD6FF00400FBE70000AD0BC1FB0100BE
:10FBC0004209034670B502D0012A17D070BD0D4E10
:10FBD000326951680029F9D0012503F01F030C6830
:10FBE0009D400029F2D08A682A4002D030464B68F6
:10FBF00098472CB1236821461C46F2E7024EE7E7FE
:10FC00002346F8E730620200186202002DE9FF4146
:10FC1000476801F01F053B7B144645EA43150E4635
:10FC200028460DF1030101F071FA14F4403F8046BB
:10FC30000BD1284601F02CFB3C4B984503D19DF895
:10FC4000030001F0ABFA00200CE00023284619461F
:10FC500002AACDE9023301F031F9344B984204D0C5
:10FC60006FF0150004B0BDE8F081804503D19DF828
:10FC7000030001F093FAA30349D540F20633234071
:10FC8000B3F5837F19D00CD8062B17D004D8ABB1AD
:10FC9000022BE5D1042311E0B3F5807FE0D10123ED
:10FCA0000CE040F20222934226D0B3F5407F25D0EB
:10FCB000B3F5007FD4D1022300E007238DF8043090
:10FCC00084F48033C3F30043E0068DF805304CBF65
:10FCD0000323C4F3401321038DF8063010D501230C
:10FCE0007A68B34093600022284601A901F094F994
:10FCF0000E4B9842A7D0B3E70523DFE70323DDE7E8
:10FD0000620341BF01237A68B340D360EBE7E306A7
:10FD10004FF000034CBF0324C4F340141A46284696
:10FD200001A98DF8044001F0C9F8E1E70000AD0B2E
:10FD3000082230B50C4685B005460B490DEB020094
:10FD400004F0E6FF082C28BF0824039B22461BBAB8
:10FD50000093029B69461BBA2846019305F039F9C6
:10FD6000204605B030BD00BF0402FF0038B544682E
:10FD70000569E3699847206A05F0BAFA00280DDBA7
:10FD80002B462046074A04F1080101F049FE064BC4
:10FD9000984204D1204601F0E1FE002038BD6FF00A
:10FDA0000400FBE7E9FD01000000AD0B70B54468FD
:10FDB00023682046D3F80855D3F80C6501F0DEFE21
:10FDC0003146284603F060F80546206A05F090FAAF
:10FDD000204601F0C3FE034B9D4214BF6FF00F009D
:10FDE000002070BD0000AD0B0378012B08D0022B62
:10FDF00008D04BB9054B0B6201F1100003F098BB22
:10FE0000034BF8E7034BF6E7034BF4E70000AD0BB9
:10FE10000100AE0B0200AE0B0100AD0B2DE9F04F5F
:10FE2000934614221D46D0F804A08BB00669BAF898
:10FE3000183081460C460DEB02000021D6F82480D4
:10FE4000029305F0D1F88DF815504FF0FF324FF0C6
:10FE5000FF33304603F08CFB06F1100301930027BB
:10FE60000022002306F1100003F082FB3D465F45AF
:10FE700001D3002468E0207A020700F1898001376D
:10FE80005F450AD2830708D4237D80EA030202F08B
:10FE9000010203F004031A431AD0DDB100236268A3
:10FEA000DDF808C0A918614575D8C10706D42168D6
:10FEB00008EB0500039305F08CF8039B62682A4465
:10FEC00095B2002B4FD14DB12B46CDF8208009E0E3
:10FED0000123E4E7C007D4E900121BD500252368FD
:10FEE00008936368227A069302F0010382F002020B
:10FEF000C2F340025046520105A98DF8143001F0BA
:10FF00005BFE284B984213D00B3398421AD16FF006
:10FF10000F0419E001F06043B3F1005FDED0BAF8DE
:10FF20001A3093423AD3404605F053F8A588CAE701
:10FF30004FF480420023019803F01AFB58B1484661
:10FF4000FFF734FF6FF00404304603F0F1FA204667
:10FF50000BB0BDE8F08F336A124A9342F2D1237A94
:10FF6000DB0702D400250C3481E7089B9845F9D1C2
:10FF7000234608E0A91AD8688DB218FA81F10393D4
:10FF800005F027F8039B5A680C3B9542F2D2E9E74B
:10FF90006FF08504D8E76FF01B04D5E76FF0150408
:10FFA000D2E700BF0000AD0B4FF0010C2DE9F04788
:10FFB000564E574F00EB8101814202D10020BDE82F
:10FFC000F087046804F07F03C4F34325240C7F2BDF
:10FFD000A4F1040408BF4FF0FF331E2C00F29280FE
:10FFE000DFE804F0102327909090902B5890909089
:10FFF0009090909090905B7275789090907B8184B7
:020000040002F8
:10000000878A8D000024C2F808354FEA5319B9F1E8
:10001000010F14BFB046B84603F01F0E0CFA0EFED7
:10002000C8F80CE04FF0010E0EE0C2F80C350124C8
:10003000EBE7C2F81035002444E0C2F80835002D83
:10004000F9D100240625A64650F804AB03F01F0999
:100050000AF40058B8F1000F4FEA53131CBF0124F3
:100060004FF0000E012B0CBFB846B04608EB8908D4
:10007000D8F80032CAF3C11A03F0E0492B0243EA70
:100080008A0343EA0E0343EA440343EA0903C8F838
:10009000003291E7C2F80C35D1E7C2F86035046848
:1000A000C4F38034002CC2D04FEA5318B8F1010FCA
:1000B00014BFB646BE4603F01F040CFA04F4CEF893
:1000C00008400124A646BFE7C2F86435E7E7C2F856
:1000D0006835E4E7C2F86C35E1E7C2F8243501245D
:1000E0004FF0000EB0E7C2F82835DDE7C2F8303532
:1000F000F5E7C2F83435F2E7C2F83835EFE7C2F871
:100100003C35ECE76FF0850059E700BF00258440DF
:100110000028844038B54468012294F82810606AA9
:1001200005F0AEF9002802DB246A0CB9002038BDC6
:100130004FF40045002105480023E4FB0501044A73
:10014000FCF708F803F074FEF0E700BF3F420F0031
:1001500040420F00F0B504690646A56C4768236D60
:1001600085B03DB96BBB1946306905B0BDE8F040BC
:1001700005F0A3BA616C03BB31BB3A8D636CAA4234
:1001800028BF2A460091A2651BB1A36C002B18BFA3
:1001900013460193E36C02931BB1236D002B18BF30
:1001A0001346002269463846039301F099FB0E4B33
:1001B000984217D06FF00401D6E79D4228BF1D4634
:1001C000DAE71D46616CD8E701F06043B3F1005FE8
:1001D000D3D0082D28BF0825206E2A4604F0F9FE4A
:1001E000216ECAE705B0F0BD0000AD0B2DE9F04F60
:1001F0009A4643688BB003938B8807469B040E4650
:100200009046046900F106814FF0FF324FF0FF3352
:1002100004F1100003F0ACF966607B68D7F8109029
:100220009D68009399F85D3001931BB1D9F80030B7
:100230009E427CD0B6F804C01CF4006F40F01F81D1
:100240001CF0090F40F01881CCF34513082B40F047
:10025000138133680293029A9A4B9A4240F20C81BE
:10026000994B9D4206D9994AD2F8582512F0030FAE
:1002700018BF1D46009B0DF1100E03F10C0BBBE8DF
:100280000F00AEE80F00029B9BE80300AB4228BFC3
:100290002B461D468E4B8EE803009D4240F2C380E4
:1002A0008C4B9D4240F2C2808B4B9D4240F2C180FC
:1002B0008A4B9D4240F2C080894B9D4240F2BF80F4
:1002C000884B9D42C0F0BE807F4B9D42C0F0BD80F8
:1002D000854B9D422CBF4FF0A0554FF020651CF080
:1002E000020F06950CF0040300F0B280002B14BF3F
:1002F000032302238DF81C30019BCCF3001C8DF8E6
:100300001DC02BB1009801F097FA002389F85D30E9
:100310004B46764A009804A901F056F9744B98426E
:1003200040F09A800123C9F8006089F85D3001230C
:1003300084F85C30B8F1000F40F0A480C4F8348039
:100340000023A36304F1480204F1380104F13400EE
:1003500005F0F2F86064BAF1000F40F09C80C4F838
:100360003CA00023236404F1500204F1400104F195
:100370003C0005F0E1F8002501212A46E0642563F0
:10038000204605F000F93846FFF7E4FE2A462B46E2
:10039000A06B834240F0888000231946256CA94257
:1003A00040F08980934238BF134626464FF4FA52F4
:1003B0004FF0000802FB03F556F8203B4FF4004CC9
:1003C0001B684146B5FBF3F540F2E730C8354FF402
:1003D0007A720023E5FB0C01FBF7BCFE02460B46DC
:1003E000304603F0C5F818B9256B15F1740F35D1F7
:1003F0000398C4F8588001F01FFA84F85D806FF00C
:100400007301386905F059F9304603F0D9F86FF0F7
:10041000730523E0A369002B7FF4F6AE636899426D
:100420007FF4F2AEF9E64FF0007558E74FF08065C3
:1004300055E74FF0006552E74FF080554FE74FF01A
:1004400000554CE74FF0804549E74FF0004546E73F
:10045000003B18BF01234DE76FF0040523689B881C
:1004600013F4005304D1636004F1100003F060F84A
:1004700028460BB0BDE8F08F6FF01505EEE76FF082
:100480008505EBE7D8F800306363002B3FF458AFE5
:10049000D8F8043055E7DAF80030E363002B3FF476
:1004A00060AFDAF804305DE7616B01EBC3014968C6
:1004B00001330A446DE7E06B00EBC1004068013195
:1004C00003446CE747E801000024F40000500040BA
:1004D0008FD003001FA107003F420F007F841E0042
:1004E000FF083D0000127A000048E801DB560200D8
:1004F0000000AD0B0123834070B5DC430B4AD2E80A
:10050000EF1F01EA0405C2E8E65F002EF7D14FF4C1
:10051000803282400648C0F80823BFF35F8FBFF3E4
:100520006F8F0B4214BF0120002070BDE0B200208D
:100530000050014070B40E4922F07F46D1E90034EA
:10054000D01AC31844F10004C1E90034A6F5001321
:10055000B3F5400F09D2074B1B681A0A1B069C19FA
:10056000054B42F10005C3E9004570BC03F0E2BD54
:1005700060A50020E4B2002068A50020D9B10123C5
:100580000D4A8340D2E8EFCF4CEA030CC2E8E1CF3A
:100590000029F7D14FF48033084A8340C2F804336E
:1005A000074BD3E8AF3FC340DB0742BF4FF4001215
:1005B000044BC3F800217047E0B200200050014016
:1005C000DCB2002000E100E00D4B1868010A0006D3
:1005D000BFF35F8F0B4BD3F80435181841F10001BE
:1005E000B3F5801F0AD2084BD3E90023904271EB88
:1005F000030303D210F1807041F10001704700BF86
:10060000E4B200200050014068A500202DE9F74F1A
:1006100016461F460446FFF76DFF0090FFF7D4FF14
:10062000B04271EB070350D2384B301A67EB01012F
:10063000984271F1000165D2354B03EB0413D3E905
:1006400002239F4208BF964249D04FF48039314976
:1006500009FA04F9204626F07F4BC1F8489305F0CB
:1006600089F84FF0030A584604F15005AD00ADB2C9
:1006700005F1804504F5A873274A05F5A8350193CF
:10068000DDF804C020F07F4341F82C30C1F84493DA
:10069000D1F80485A0EB0800033820F07F40904299
:1006A0001DD9286860B1D1F80485A8EB0B0020F0B3
:1006B0007F40B0F5000F12D9204605F05BF8164ACE
:1006C0000AEB08000AF1010ADAE70123134AA34002
:1006D000D2E8EF0F1843C2E8E10F0029F8D1002556
:1006E0000B490C98230101EB0412C850C2E90267C0
:1006F0000D9B536020460099FFF740FF284603B04A
:10070000BDE8F08F6FF01505F4E700BF0100800031
:1007100050A5002000500140FDFF7F00DCB200200A
:1007200073B500254FF0FF304FF0FF31184C194BD7
:100730000226C4F80833C4F84833174BC4F80855E8
:10074000C3E902014FF480334FF40012C4F80433BC
:10075000124B0121C4F804631520C3F880212A46F6
:10076000FDF7E6FD1520FDF7B3FD01230C4AA3605C
:10077000236013600B4B0C4A00932846002301951D
:10078000FFF744FF3046FFF7EFF8284602B070BD90
:100790000050014003000F0050A5002000E100E0E0
:1007A000E0B2002035050200FFFF7F002DE9F7438E
:1007B0002E4BD3F8042390070BD5D3F8042142B174
:1007C0000022C3F804212A4AD3F804311368013304
:1007D0001360264AD2F80433D90327D5254BD3E832
:1007E000EF1F21F00100C3E8E40F002CF7D1CB0785
:1007F00002D4D2F84031CBB100251C4CC4F8405192
:10080000D4F84031FFF7E0FE4FF02003EFF3118200
:1008100083F31288BFF36F8F174BD3E90267B0429F
:10082000B94106D282F31188BFF36F8F03B0BDE8E0
:10083000F0834FF0FF38D3E900104FF0FF391D600F
:10084000C3E902894FF48033C4F84833C4F84051F7
:10085000D4F8403182F31188BFF36F8F0029E5D0BF
:10086000009032463B4628468847DFE7005001406B
:10087000E4B20020DCB2002050A50020431C13B5D8
:1008800021D0012821DD124A124B9042D4BF0446E8
:100890001C46FFF799FE104B0E49D3E90023801A3E
:1008A000B0F5000F28BF002404448C4228BF0C463A
:1008B00000200A49A2180190009143F10003FFF7BC
:1008C000A5FE02B010BD034CE3E70124E1E700BF41
:1008D000FEFF7F00FFFF7F0060A5002035050200BE
:1008E00008B5FFF771FE024B1B68C01A08BD00BFB8
:1008F00060A500202DE9F0411F46154B044693F8F2
:1009000000800D461646A2B0B8F1000F15D168461A
:1009100004F027FB3A4631462846289BA047044668
:10092000684604F01FFBB8F1000F02D0094802F03E
:100930008FFD204622B0BDE8F0814FF0FF324FF02E
:10094000FF33044802F00AFD0028E0D01F24F0E73E
:100950002BB60020F4A20020002300B589B0CDE919
:10096000063303AB0493042303900593A9B10B68EA
:1009700006934B6807930223111E18BF01210848F4
:10098000CDE9002140F2F53104AA00F02BF800284F
:10099000B8BF012009B05DF804FB0123ECE700BFFC
:1009A0000501004070B5302692B006AB05460C46F6
:1009B00032460021184604F017FBCDE90454CDE976
:1009C000020654B1012304AA0092002104480193B5
:1009D00002AA00F007F812B070BD2046FBE700BF86
:1009E0000001004030B401F50045B5F5803F039C9F
:1009F0000DD243EA0405FF2D09D844EA0324134627
:100A000044EA0142014630BC0348FFF773BF6FF070
:100A1000800030BC704700BF117C010070B501251B
:100A20000268B2FA82F3C3F11F03DBB205FA03F4E2
:100A300022EA0404D0E8EF6F964204D1C0E8EC4FFC
:100A4000BCF1000FF6D1EBD101480B7070BD00BFB7
:100A50000000AD0B10B50368CB40DB0710D40123B9
:100A60008B40026843EA0201D0E8EF4F944204D180
:100A7000C0E8EC1FBCF1000FF6D1F2D1014810BD67
:100A80000148FCE70000AD0B0400AD0B73B5032873
:100A900000F2A080DFE800F0021825320222594B54
:100AA000C3F808230022C3F80421D3F8042101224B
:100AB000DA60002401238DF80730032800F28A80D1
:100AC000DFE800F029657394012200214D4B0DF100
:100AD0000704C3F80823C3F80011D3F800115A60C3
:100AE000E8E74FF40072474BC3F808230022C3F82D
:100AF0002421D3F8242101225A62DAE74FF48072CC
:100B0000404BC3F808230022C3F82021D3F820214A
:100B10000122DA61CDE742F210753A4E6CB3D6F895
:100B2000183403F003032370D6F81834D90351D5D1
:100B30009DF8070001284DD104F067FE013DEDD17D
:100B400048E09DF80700012844D104F05EFE013D15
:100B50004FD13FE09DF8070001283BD104F055FE3E
:100B6000013D37D0BCB1D6F80C3403F0010323703B
:100B7000D6F80C34DB032DD5ECE7D6F81834DA03BD
:100B800028D5012004F041FE013DF6D122E042F2D9
:100B900010751C4EE6E7D6F80C34D8031AD50120A0
:100BA00004F033FE013DF6D114E042F21075154E0B
:100BB00094B1D6F85C3403F001032370D6F85C34AA
:100BC000D90307D59DF80700012803D104F01DFEC5
:100BD000013DEDD102B070BDD6F85C34DA03F9D531
:100BE000012004F012FE013DF6D1F3E742F2107548
:100BF000044ED6F85434DB03ECD5002CA1D10120EF
:100C0000A3E700BF00500040044B1A7922B901222B
:100C100018601A710248704702487047E8B2002015
:100C20000000AD0B0C00AD0B08B50520FDF772FB05
:100C300010B90520FDF74CFB0123054AC2F8183511
:100C4000C2F81435C2F88035024A137008BD00BFDF
:100C50000050004025B6002008B5032818D8DFE86A
:100C600000F002303B48294AD2F81834D2F8181460
:100C7000C9030ED4D2F81434DB0713D5D2F81C34D0
:100C800003F00303013B012B09D80223C2F804330C
:100C900008BD03F00303022B05D0012B02D0002076
:100CA000FFF7F4FE0123194AC2F818350023C2F8F1
:100CB0000431D2F804310223C2F8043301239360D3
:100CC000E6E70022114BC3F80021D3F800210122EE
:100CD000C3F804231A60DBE700220C4BC3F824217D
:100CE000D3F824214FF40072C3F8042301221A62BE
:100CF000CEE70022054BC3F82021D3F820214FF482
:100D00008072C3F8042301229A61C1E700500040B9
:100D100010B5284BD3F8002152B10020C3F80001D0
:100D2000D3F800210122C3F80823234B1B689847FE
:100D3000204BD3F804218AB10022C3F80421D3F850
:100D40000421D3F81824D3F8181402F00302012A5E
:100D50004FF0020126D1C3F818159A60154BD3F84D
:100D6000202162B10022C3F82021D3F820214FF4C2
:100D70008072C3F80823104B04201B6898470D4B62
:100D8000D3F82421AAB10022C3F82421D3F82421C6
:100D90004FF40072C3F80823074B0520BDE810404C
:100DA0001B681847C3F80813034B01201B689847BA
:100DB000D4E710BD00500040E8B20020036803F003
:100DC0001F020260034A04485B09012B18BF10464A
:100DD000704700BF0025844000288440034B083042
:100DE00033F81000C0F34010704700BF08A2002085
:100DF00070B50D4C00F1080334F813300546DA05E0
:100E00000E4607D5C3F3432304EBC302526854F8DC
:100E100033309847A3682BB131462846E268BDE8D5
:100E20007040184770BD00BF08A2002010B4124ADD
:100E3000083032F81030D9051BD5C3F3432123F411
:100E4000F85322F81030002002F10E0434F8023F6B
:100E500013F4807F03D0C3F34323994209D00130B8
:100E60003028F3D1002342F83130044810BCFFF79A
:100E7000F1BD10BC704700BF08A200207CA200207A
:100E800038B50246FFF7AAFF0B4C02F1080560B126
:100E9000002134F815305B0B9B0003F1804303F510
:100EA0003C33C3F81015C3F810151046FFF7BEFF0A
:100EB000002324F8153038BD08A200202DE9FF4199
:100EC000044690461D4601B34F4E00F1080736F820
:100ED00017309B0702D5FFF781FF28BB0023204670
:100EE000CDE900338DF80E308DF80F300DF10F0283
:100EF0000B460DF10E0104F08CFC36F8173023F090
:100F0000020343F0010326F81730B8F1000F2DD08B
:100F10003D4E04F1080736F8171098F800008A07CC
:100F2000D8F8043002D5CBB1384821E021F02001B7
:100F3000C904C90C26F8171083B10328F4D8D8F8CF
:100F4000043093F800C06246920002F1804202F53C
:100F50003C3280B9C2F81005C2F8100536F81730D7
:100F600023F01C0343EA800326F817301DBB2848F2
:100F700004B0BDE8F081D2F8103541EA4C3123F0DD
:100F80000303C2F81035D2F8103541F0200123F4E4
:100F90004F3323F44073C2F810352302D2F810E522
:100FA00003F47C5343EA004343EA0E03C2F81035CE
:100FB00026F81710D2E72046D5E90067FFF736FF7D
:100FC000002ED4D0104DD5E90023964201D19F4286
:100FD00018D010480DF10F01FFF720FD0C4B98427F
:100FE000C6D19DF80F2005EBC20308345F6035F8C9
:100FF000143045F8326043EA422343F4807325F805
:101000001430B4E70022EEE708A200200400AD0B84
:101010000000AD0B7CA20020F0B50446154685B05B
:1010200019B3344E00F1080736F81720930703D49C
:10103000FFF7D4FE00285AD112F01C0F02D04B78D3
:10104000012B54D001238DF80F3000234A1CCDE929
:10105000001320468B1C0DF10F0104F0DAFB36F86B
:10106000173043F0030326F8173015B9224805B0AE
:10107000F0BD204E04F1080736F81700830736D577
:1010800095F800C00023614620F02000890001F19E
:101090008041C00401F53C31C00CC1F8103526F880
:1010A0001700C1F810356A78002ADFD0D1F8103562
:1010B000AD7823F4991323F4F853C1F81035D1F81F
:1010C00010E5230203F47C53120402F4403243EA95
:1010D0000E0313432A0502F4801240EA4C301343F6
:1010E00040F02000C1F8103526F81700BEE703488D
:1010F000BDE700BF08A200200000AD0B0400AD0B4F
:10110000014BC3E90201704708A2002008B502465E
:10111000FFF764FE38B1054B083233F8123004484B
:101120005B0B0B7008BD0348FCE700BF08A2002062
:101130000000AD0B0400AD0B38B50F4C94F878509F
:10114000BDB96022294604F1100003F04DFF2F20A5
:10115000FDF7BEF8094B0A48C3F87C51D3F87C214F
:101160004FF00042C3F80423012384F8783063670A
:1011700038BD0448FCE700BF08A2002000F0024090
:101180000000AD0B0500AD0B034B93F87800003861
:1011900018BF0120704700BF08A200200146014887
:1011A000FFF758BC78A2002001460148FFF736BC83
:1011B00078A2002037B50446FFF710FE1D4B04F15E
:1011C000080233F81230D0B113F0020517D11A48D3
:1011D0005B0B9A008550805802F1804202F53C3248
:1011E000D2F8100540F00100C2F8100529B1012223
:1011F00002FA03F3114AC2F8043303B030BDC3F35B
:101200008203042B11D0052B11D001A80194FFF704
:10121000D5FD019B0169D94001F001010231204651
:1012200003B0BDE8304004F03DBB0321F7E70221E5
:10123000F5E700BF08A2002000F1024000F00240E4
:1012400008B50246FFF7CAFDC0B10F4B02F1080115
:1012500033F81130990711D401225B0B9A400B49E6
:101260009B0003F18043C1F8082303F53C33D3F816
:10127000102522F00302C3F8102508BD0021BDE8A7
:101280000840104604F00EBB08A2002000F0024007
:1012900013B5104B00F1080233F812300446DB0797
:1012A00016D5FFF7CDFF2046FFF7EAFD01A8019410
:1012B000FFF784FD019B00EB8300D0F8003203F0C0
:1012C000E04343F00203C0F80032034802B010BD0F
:1012D0000248FBE708A200200000AD0B0400AD0BA4
:1012E0002DE9F04F002601223446634B63486449E0
:1012F00087B01D6835B1D0F8045315421EBF1C607D
:101300001D68164304338B424FEA4202F1D1DFF8E5
:101310006CA1DAF87C31002B00F09180DFF8648159
:10132000D8F820300493C8F82030574B1A6A059239
:101330001A624FF000090DF1100B4FEA49130093A8
:1013400048E094FAA4F4B4FA84F4009B4F4A1C4495
:1013500004F1080332F813700123E00804F00702D7
:1013600003FA02F21BF80030039423EA02030BF89D
:10137000003003A8FFF722FD039BB908803350F823
:101380002330C7F382054A072F46C3F301432BD509
:1013900020463946DDB2FFF72BFD03A80394FFF783
:1013A0000DFD039B803350F82330C3F301439D426E
:1013B00007D10021204604F075FA2946204604F0A2
:1013C00071FA03A80394FFF7F9FC0122039B02FAC8
:1013D00003F303625BF82940002CB2D1B9F1000F8E
:1013E0001DD14FF00109A8E7022B0CD103212046A3
:1013F00004F058FA05F00503012BE2D139462046E6
:10140000FFF7F6FCDDE702212046019304F04AFADB
:10141000032DF3D0019B032BD3D1022DEDE7CAF8A6
:101420007C41DAF87C31D8F8203017490493C8F8A9
:1014300020300A6A134305920A627FF47AAF0124CE
:1014400016B907B0BDE8F08F96FAA6F3B3FA83F3A6
:1014500004FA03F29B0003F1804303F53C33D3F815
:101460001005D3F81015C0F30520C1F3014126EA99
:101470000206FFF7BDFCE3E700F1024000F0024086
:1014800020F10240002584400028844008A200206A
:1014900010B50E4C2378B3B94FF040220378C3F354
:1014A0004003C2F8003B0378052003F00103C2F8B3
:1014B0000437FCF72FFF10B90520FCF709FF0123C3
:1014C0000348237010BD0348FCE700BF26B6002088
:1014D0000000AD0B0C00AD0B10B5184BD3F8044356
:1014E00061070AD5D3F808213AB10022C3F80821D0
:1014F000D3F80831124B1B689847A2060BD50F4B47
:10150000D3F814213AB10020C3F81401D3F81431F0
:101510000C4B1B68984763060ED5084BD3F818216F
:1015200052B10022C3F81821D3F81831054B01201D
:10153000BDE810401B68184710BD00BF00500040B8
:10154000F4B20020F0B20020054A064B00F01F0163
:101550004009012818BF134601228A40DA6070470B
:10156000002584400028844070B50D4C0D4E00F0DD
:101570001F054009012818BF34469DF8100004EBF0
:1015800085040002D4F8005240EA8300084305F0C5
:10159000E04540EA42002843C4F8000270BD00BFA5
:1015A0000028844000258440054A064B00F01F01B6
:1015B0004009012818BF134601228A409A607047EB
:1015C00000258440002884402DE9F34707460C4657
:1015D000934E3979104606EB411292F81CA04FEA5F
:1015E0004119BAF1000F40F0168149B9A268B2F171
:1015F000206F03D0B2F1A05F40F0EE808948E8E0B0
:101600000129FBD1E17BE27CD7F800800AB1227D81
:101610001ABB854A904520D1A268B2F1A05F1CD1C7
:101620002278FF2A02D0082A40F0F780E278FF2AC9
:1016300002D00B2A40F0F180FF2902D00C2940F0A3
:10164000EC806278FF2A02D0092A40F0E680A27876
:10165000FF2A02D00A2A40F0E08006EB090246F891
:1016600009005360E07C917F60F30001917720795D
:10167000C9B260F341019177607CC9B260F3820125
:101680009177E378D377E37C3D68002B48D1A3685A
:101690002078B3F1A05F237B08BF4FF0030A012B32
:1016A00000F2A380FFF750FF0023CDF800A02078C0
:1016B0001A460121FFF758FF6078FF2809D0FFF78D
:1016C00043FF0122CDF800A0002311466078FFF708
:1016D0004BFFA078FF2806D00022CDF800A01146CD
:1016E000A37BFFF741FFE078FF280CD02379002B84
:1016F0007ED0FFF729FF0122CDF800A0002311467C
:10170000E078FFF731FFE07BFF2809D0FFF74CFFBF
:101710000122CDF800A000231146E07BFFF724FF53
:10172000237D6BBB63782178FF2B18BF1A46A37803
:1017300008BF4FF0FF32FF2B08BF4FF0FF33C5F853
:101740000815C5F80C25C5F810353B79012B17D1C4
:10175000E378FF2B4FD0627C002A4CD02179A27C09
:10176000C5F81435C5F86815C5F864253B79012B13
:1017700006D1E37BFF2B08BF4FF0FF33C5F86C3574
:10178000237CC8F86035A368C8F82435637B227BC6
:10179000003B18BF0123022A37D0032A38D0012A80
:1017A00001D143F00203C8F85435A379C8F8C03515
:1017B0000723C8F8003556F8093023B1386840F3DC
:1017C0000730FCF785FD00234E447377012317484B
:1017D000337702B0BDE8F087627C002A7FF40EAF59
:1017E000E17BFF297FF40AAF0DE7FFF7DDFE5BE742
:1017F000FFF7DAFE7FE74FF0FF33C5F8143500231B
:10180000C5F86835C5F86435B0E743F00403CAE7A6
:1018100043F00603C7E70648DBE70648D9E700BF01
:10182000F8B200200300AD0B00A000400000AD0B9B
:101830000500AD0B0400AD0B2DE9F3410379264DF6
:101840005E0105EB4318AB5907460468CBB144F37E
:101850000730FCF74BFD214BC4F8083398F81D30D6
:101860007BB101234FF064086361D4F804312BB9D4
:10187000012003F0CAFFB8F10108F6D10022AB192C
:101880005A770023C4F80035AB199B7FDB071CD4C3
:10189000D4F8080504F01CF8D4F8100504F018F882
:1018A000D4F80C0504F014F83B79012B03D1D4F8DB
:1018B0006C0504F00DF8AB19D87FFF2805D0002384
:1018C000012219460093FFF74FFE002335442B7782
:1018D00002B0BDE8F08100BFF8B20020520108005C
:1018E0002DE9F843384F0379154607EB431898F86C
:1018F0001D2081460C465E01002A63D1BA592AB1E7
:1019000015F0140F04BF012288F81D2007EB060C08
:101910000CF10C0C94E80F008CE80F0001214046FC
:1019200003F0E2FF2168D9F8003021B101F06042F4
:10193000B2F1005F06D1A26852B102F06042B2F18A
:10194000005F05D000233E4420487377BDE8F8834C
:101950006268C3F84415C3F84825D4E90212C3F8F5
:101960003415C3F838250022C3F81821D3F81821FC
:1019700015F0010218BF0122C3F8502515F002022C
:1019800018BF0122C3F840252A0707D5BA5972B9F2
:101990000021404603F0A8FF0D48D7E701221A6155
:1019A000BA5922B9D3F81821002AFBD0F0E715F074
:1019B000040F4FF0400202D0C3F80823ECE7C3F84D
:1019C0000423E9E70348C1E7F8B200200A00AD0BA1
:1019D0000000AD0B0B00AD0B064BD3F818213AB14C
:1019E0000022C3F81821D3F81831034803F08CBF44
:1019F000704700BF00C00040F8B20020064BD3F88B
:101A000018213AB10022C3F81821D3F8183103483D
:101A100003F07ABF704700BF00A0004018B3002059
:101A20004FF0340C2DE9F8430679464D0CFB06FCCB
:101A300005EB0C049E4694F82D30002B7DD10768F1
:101A4000A36045F80C20C4F804E084F8303084F832
:101A50002F304B7B84F8323091F80EC084F833C0BD
:101A60008B68BCF1000F1CD0CC7B44B9B3F17F6F05
:101A70004DD2D1E90043C7F80845C7F80C358B684B
:101A8000C7F8243522B1006840F30730FCF720FC8A
:101A9000342303FB065501232B4885F82D30BDE880
:101AA000F883B3F17F6F45D30B68222B39D14B6894
:101AB000232B44D14FF00B0C0C68244BDFF89080A3
:101AC00004F01F096409012C0CBF9E46C6460EEBAC
