:10000000D8A10520C142000027B60000954200009B
:100010009542000095420000954200009542000084
:10002000000000000000000000000000653F00002C
:1000300095420000000000000D3F000095420000C6
:10004000E53F0000E53F0000E53F0000E53F000020
:10005000E53F0000E53F0000E53F0000E53F000010
:10006000E53F0000E53F0000E53F0000E53F000000
:10007000E53F0000E53F0000E53F0000E53F0000F0
:10008000E53F0000E53F0000E53F0000E53F0000E0
:10009000E53F0000E53F0000E53F0000E53F0000D0
:1000A000E53F0000E53F0000E53F0000E53F0000C0
:1000B000E53F0000E53F0000E53F0000E53F0000B0
:1000C000E53F0000E53F0000E53F0000E53F0000A0
:1000D000E53F0000E53F0000E53F0000E53F000090
:1000E000E53F0000E53F0000E53F0000E53F000080
:1000F000E53F0000E53F0000E53F0000E53F000070
:10010000E53F0000E53F0000E53F0000E53F00005F
:10011000E53F0000E53F0000E53F0000E53F00004F
:10012000E53F0000E53F0000E53F0000E53F00003F
:10013000E53F0000E53F0000E53F0000E53F00002F
:10014000E53F0000E53F0000E53F0000E53F00001F
:04015000E53F000087
:1001540053B94AB9002908BF00281CBF4FF0FF312A
:100164004FF0FF3000F00CB8ADF1080C6DE904CE8F
:1001740000F008F8DDF804E0DDE9022304B070477C
:10018400704700BF2DE9F04786468C460846089E16
:10019400154674461946002B40F0C1808542B2FAD8
:1001A40082F245D94AB1C2F1200300FA02FC95401B
:1001B40094402EFA03F343EA0C0C4FEA154EA8B20E
:1001C400230CBCFBFEF80EFB18CC08FB00F943EA39
:1001D4000C43994528D9EB1808F1FF3704D2994507
:1001E40002D9A8F102072B44A3EB0903A4B2B3FB81
:1001F400FEFC0EFB1C330CFB00F044EA0344A0425B
:1002040014D92C190CF1FF3304D2A04202D9ACF159
:1002140002032C44241A43EA07401EB1D4400023AD
:1002240034607360BDE8F0874746DDE76346F1E775
:1002340092BB431B01214FEA154EAFB2200CB3FB16
:10024400FEFC0EFB1C330CFB07F840EA0343984505
:1002540061D9EB180CF1FF3004D2984502D9ACF106
:1002640002002B44A3EB0803A4B2B3FBFEFC0EFB79
:100274001C330CFB07F744EA0344A7424DD92C195D
:100284000CF1FF3304D2A74202D9ACF102032C448F
:10029400E41B43EA0040C0E7C2F1200395409440C8
:1002A40020FA03F12EFA03F34FEA154E9040AFB251
:1002B4000343B1FBFEFC0EFB1C10190C0CFB07F8EE
:1002C40041EA0041884522D969180CF1FF3004D273
:1002D400884502D9ACF102002944A1EB08019BB284
:1002E400B1FBFEFC0EFB1C110CFB07F743EA0143B8
:1002F4009F420ED9EB180CF1FF3104D29F4202D970
:10030400ACF102012B44DB1B41EA004193E7604658
:10031400E3E76146F7E76046A4E76346B8E783424C
:1003240006D916B9002108467CE7C6E900E0F9E7DA
:10033400B3FA83F78FB9834201D3724508D8BEEB71
:10034400020460EB030301209C461EB9002169E707
:100354003846FAE7C6E9004CF8E7C7F1200CBB4081
:100364000EFA07F522FA0CF42EFA0CF1BA401C43EB
:1003740020FA0CF3B8404FEA144901431FFA84FEF3
:10038400B3FBF9F809FB18300B0C08FB0EFA43EA2F
:1003940000439A4540D9E31808F1FF3004D29A4546
:1003A40002D9A8F102002344A3EB0A0389B2B3FBE8
:1003B400F9F809FB183308FB0EFE41EA03418E45A8
:1003C4002CD9611808F1FF3304D28E4502D9A8F163
:1003D4000203214443EA0040A1EB0E01A0FB029872
:1003E4004145CE46434602D306D14D4504D2013899
:1003F400B9EB020E68EB0403002EA7D0B5EB0E0296
:1004040061EB030101FA0CFC22FA07F3F9404CEA10
:100414000303C6E9003199E74046C5E74346D9E7F7
:10042400F0B5474B474A85B0C2F80036C2F80436E7
:10043400C2F80836C2F80C36C2F81036C2F81436C0
:10044400C2F81836C2F81C3602F58052C2F80036DB
:10045400C2F80436C2F80836C2F80C36C2F81036B0
:10046400C2F81436C2F81836C2F81C3600F07EF80A
:10047400354C20460DF079FD00B32569A6682B683C
:100484000D2143F400532B60204633682F4A9847CC
:100494002046736801A9984720B92A68019B5340F4
:1004A4009A040BD54FF05023D3F800340BB1DB077B
:1004B40004D502F06BFF264803F04CFB00F0ACFAC5
:1004C400054601A800F034FF0446284600F0B4FABB
:1004D400204B1B68A34201D00AF0C2F84FF48031CC
:1004E400002005F019FF044600B1FEE705F0BCFF4B
:1004F40069469DF8080009F0D1FF009B039D1D4447
:10050400019B1E8905F0F0FEAF1901F087FF00F092
:1005140045FF00F08BFF00F025FF03F011FF84F38B
:100524000B8884F30A88AB5983F3088884F314880E
:10053400BFF36F8FBFF36F8F7B689847FEE700BFF1
:100544003546526E0080015048E70000110001005A
:1005540018EB0000BC20002004289ABF024B185658
:100564006FF01500704700BFBEF000004FF4C0519B
:10057400014806F005BA00BF324601207FB51C468B
:1005840083881F4E3F2B2ED10378022B2BD1C579A4
:100594004DBB0D2001A901F01DFC002821DB0198B1
:1005A400294682680AF04CFE054601980AF01DFEB1
:1005B400003D18BF01250A2120460DF0C9FC022385
:1005C40002A92046029603930DF0BBFC294620465F
:1005D4000DF0A8FC0A2120460DF0C2FC002004B056
:1005E40070BD0125E7E70A2120460DF0B1FC022386
:1005F40002A92046029603930DF0A3FC0821E6E726
:10060400C3F000002DE9F04FDFF8E0A1F9B038A8FD
:10061400DDE9847816461C46DDF818B2DAF8005095
:100624000CF0DDFE002138A806F0BEFA3FB1B8F1A7
:10063400000F04DD4246394638A80CF0D4FE4FF0D2
:100644000008738937891F44F3681F4447454ED80F
:100654000DA938A80CF00BFFBBF1000F04D0202229
:1006640058460DA90BF016F8002322460093314694
:100674004FF6FF7307A809F047FF8046002833D1DF
:1006840020460C9E09F0EAFF86422DD84FF0FF3732
:10069400DFF85C910DF1160305AA06A907A809F075
:1006A40081FF002820DB40F09880BDF81660102EF2
:1006B40035D1BDF81460202E16D133462046069954
:1006C40038AA0AF093FD78B900F0A6F932468046BC
:1006D40038A90DA800F088F90646404600F0ACF9A8
:1006E400444B1B68B34217D0DAF8005078E0839B80
:1006F400A7EB0809994528BF994641464B46204631
:10070400829A0AF073FD0028EED14A46829938A8ED
:100714000CF069FEC84499E74FF00108BAE7012ECE
:1007240035D1BDF81430202BDED82046069938AADE
:100734000AF05CFD07460028D6D19DF814B0BBF141
:10074400200F02D94FF0FF37A4E7D9F800302A4E22
:100754000393039B9F42F5DA1DA80CF040FE002191
:100764001DA806F021FA72681DA8126856F8081B25
:100774000CF039FE15A91DA80CF079FE5A4638A9CB
:1007840015A80AF060FF002884D00137E1E7202E85
:1007940080D17B1C3FF47EAFD9F80030BB42D1DD61
:1007A400BDF81430B3F5807F9ED12046069938AA4F
:1007B4000AF01CFD002897D100F02EF9FFB2834601
:1007C4003146BDF8143038AA00970DA800F016F889
:1007D4000546584600F030F9B4E7B8F1000F83D06D
:1007E40000F022F9284679B0BDE8F08FB820002047
:1007F40020EB0000BC20002024EB00002DE9F04F8A
:10080400DFF8D8A1ADF54D7D064629A89DF858B36B
:10081400884617469946DAF800500CF09DFD704B57
:100824008CAA53F83B4003EBCB035B6804941B682E
:1008340004A81C44214630230BF0B5FB70BB049B79
:100844008C9A13449C4229D121462BAA04A80BF06C
:10085400BEFB18BB0DF1B80B5A46214604A80BF099
:10086400B6FB0390D0B92BA80BF0A8FC049A2A90ED
:10087400944213D1039BCDF804B01A4600932BA9DC
:1008840029A80CF026FD48B929A806F01FF928B9B3
:100894002BA80BF093FC81452A900CD029A80CF0CE
:1008A40065FD29A80CF062FD00F0BEF828460DF5A0
:1008B4004D7DBDE8F08F00F0AFF82A9B8146B3F57B
:1008C400807FDAF8005040F08280B8F1200F7ED1AA
:1008D40039468CAA29A806F01FF90446002876D1C7
:1008E4009DF82F33BC2B72D1DF2705900DF5A87A24
:1008F4000EA80CF074FD00210EA806F055F9202274
:100904000DF20F310EA80CF06EFD042205A90EA8FD
:100914000CF069FD06A90EA80CF0A9FD202FB8461D
:10092400A8BF4FF020089DF81730504601334246C7
:1009340006A9A7EB08078DF817300AF0ABFE002FC5
:10094400C244D5DC54AA1046DF218CAB077813F8D7
:1009540001CB013987EA0C0700F8017BF6D19DF839
:10096400503103F07F038DF8503112F8017B77BBCF
:100974000134BE2CF9D19DF80E32012B27D10EA8DB
:100984000CF02DFD39460EA806F00EF90822154983
:100994000EA80CF028FD314620220EA80CF023FDF1
:1009A40020220DF20F210EA80CF01DFD06A90EA8A1
:1009B4000CF05DFD00F030F8202204460DF20F31FA
:1009C40006A800F011F80546204600F035F800F0BE
:1009D4002BF8484600F030F863E700BFB820002049
:1009E40024EB0000C6F0000070B5094B04461D68F6
:1009F4000023934205D1074B1D6800F015F82846E3
:100A040070BDE65CC85C8642F7D10133F1E700BFF4
:100A1400B8200020BC200020024B1868421C1A6039
:100A2400704700BF70270020024A1368013B13601F
:100A3400704700BF70270020034B1B68834201D01E
:100A440009F00EBE704700BF702700202DE9F04F5B
:100A5400654B8DB0044690F8B8000E461D6809F049
:100A640023FD0AA98246C0B201F0B4F928B1FFF708
:100A7400DBFF28460DB0BDE8F08F94F8B87031461E
:100A8400384609F011FD4FF02C090BA9C0B209FB3F
:100A940006F901F09FF900285CD04FF0580B2C2286
:100AA4000BFB07F302FB063323441B6913F0100806
:100AB40065D1FFF7B1FF3146079094F8B80005F00F
:100AC400F1FC05460798FFF7B7FF484B1B689D42AA
:100AD40023D1FFF7A1FF94F8B81007900A9D09915C
:100AE400FFF79AFF4FF4807307FB0B920193404B7F
:100AF40009990890009322442B464046CDE9038887
:100B0400CDF80880FFF77EFD05460898FFF794FFAF
:100B1400FFF78AFF0798FFF78FFF58235F432C23C3
:100B240003FB0677334AE1590A98914204EB070321
:100B34000AD1DA681B899B1806D28268934203D2D1
:100B44002D4B1B68AB4220D0CEB1002182680AF045
:100B540077FB14E00B980AF08EFB05460B980AF01D
:100B640044FB582394F8B82002FB039323445A1EF1
:100B7400033312F8011FA9428FD19A42F9D11F4BB6
:100B84001D680A980AF031FB71E794F8B83043B352
:100B9400012B0CBF0B22FF229245F2D15822534362
:100BA400E218176A00220B922C2202FB063323441C
:100BB400198904236A4419440AF018FB0028DED179
:100BC40094F8B8300B99012B0BBF0D4AD7E90123D8
:100BD4004FF082739B18914201D39942D1D90A985C
:100BE400B3E70222D8E700BFB8200020B0200020DD
:100BF400325E01203DB8F396BC200020B4200020D2
:100C0400008800012DE9F84F884691469A4600264F
:100C1400DFF88CB0234D244C0B9B9E4201D3002063
:100C24000FE00B9B40469F1BB7F5806F28BF4FF426
:100C340080671B4A3B4606EB0A010AF0D7FA10B15B
:100C44000120BDE8F88F0A993B465A464846711878
:100C54000AF0E1FA0028F3D1144BC5F800463E44EB
:100C6400C5F80446C5F80846C5F80C46C5F810464C
:100C7400C5F81446C5F81846C5F81C46C3F800461E
:100C8400C3F80446C3F80846C3F80C46C3F8104634
:100C9400C3F81446C3F81846C3F81C46BCE700BFA3
:100CA40074270120008001503546526E0090015097
:100CB4002DE9F04F002604460D46B046582795B05E
:100CC400012E84F8B86007D9B8F1000F00F05B81F9
:100CD40000202C265827DCE0A31993F8B91000292A
:100CE4004DD107FB06436D4A304602EB86325A6209
:100CF4006B4A02EB86321A6509F0D6FB94F8B810F9
:100D0400C0B207FB0141203101F064F801213046F3
:100D140009F0CAFB94F8B810C0B207FB01414C318A
:100D240001F058F8204609F0DFFC00BB0022204601
:100D3400114609F007FD834690B9204609F063FD8A
:100D440070B10AA809F02DFD09F034FD064660BB18
:100D540094F8B830C3B9002120460AAA09F0F2FC7D
:100D6400012294F8B830234483F8B02007E001222C
:100D740094F8B8309042234483F8B020D6D194F844
:100D8400B8600136F6B29BE794F8B020042A04BF99
:100D9400012284F8B020012BDDD094F8B130042B6B
:100DA400D9D1012384F8B130D5E79DF82F30012B38
:100DB40051D1582294F8B830CDF838B002FB03432F
:100DC400384AD96AD86C91421DD094F8B80005F01D
:100DD40017FC831E022B81461FD8FFF71DFE01213D
:100DE40083462046FFF732FE82465846FFF724FE2C
:100DF4002D4909688A4510D02C4A126892450AD1B7
:100E04004FF0010909E0998E04230EAA19440AF04F
:100E1400EDF90028D9D04FF0050994F8B8302344EF
:100E240083F8B09094F8B8306BB1E21892F8B0201F
:100E3400012AA4D0042A0CD094F8B020042A02D1A8
:100E4400012284F8B020234493F8B030023B022BF3
:100E540095D8B04693E7FFF7DFFD0121834620468E
:100E6400FFF7F4FD81465846FFF7E6FD0E4A94F875
:100E7400B83012682344914514BF05229DF82F20F1
:100E840083F8B020CEE7231893F8B92082B101305B
:100E9400C0B2012884F8B800F5D974E074A7002022
:100EA400742700203DB8F396BC200020B420002015
:100EB40093F8B08008F0FB08B8F1010818BF4FF0B0
:100EC4000108414609F0F0FA05A9C0B200F082FF1A
:100ED400002840F08F80012306FB08F894F8B8102E
:100EE400059A17FB01810093214440230EA809F0C1
:100EF4000BFB804600287FD100230DF1120206A9C6
:100F04000EA809F04FFB00283DDB059840F08180D6
:100F1400BDF812300C2B7AD1069907AA0AF066F9AB
:100F240000287FD19DF81C30012B7ED8E21892F85E
:100F3400B0207B43023A022A8CBF0022012206FB26
:100F440002332344197D9DF820209142D4D80AD33A
:100F5400597D9DF821209142CED804D3DA8ABDF878
:100F640022309A42C8D294F8B8300598234493F8B2
:100F7400B020012A3CD0023A012A02D8012283F887
:100F8400B0200AF032F900264FF0FF085827012E4E
:100F940084F8B8604CD90023DFF8E482B94EBA4F24
:100FA4000E93012B84F8B83040F257810E9B022B2C
:100FB40001D009F055FB94F8B930002B40F09A8128
:100FC400582606FB034284F8B830106A09F081FA07
:100FD400287194F8B83006FB03431B6A5B68AB6066
:100FE40094F8B83003FB06462E60A64B1D6858E102
:100FF4000422C4E70598C4E705980AF0F6F8B8F1A6
:10100400030FC0D140F20113A4F8B030BBE74FF096
:10101400030805980AF0E9F8B8F1000FEFD194F845
:10102400B80034E74FF00108F3E74FF00708F0E7A2
:10103400A21992F8B930002B40F0C3800AA809F035
:10104400B0FB92F8B030042B8DF82F3006D8012B6A
:1010540006D800F0AD8082F8B080A9E0052BF8E74F
:1010640007FB0643194630462C31DA6C0AF0C3FEFE
:101074000128014640F09C8094F8B80009F014FA65
:1010840007A9C0B200F0A6FE002800F09F804FF030
:10109400000907980AF0A9F894F8B80007A90028ED
:1010A40000F0D380012800F0CC80FF2000F092FEF5
:1010B400FF2000264FF0580BB2460EA900F08AFE1E
:1010C40094F8B8300BFB03439B6A534519D094F84A
:1010D400B82031460BFB0242526A079802EBCA025F
:1010E4005268039302920AF0ABF8029A039B1644E7
:1010F4004E45C0F0AF80D4F8B460B9FBF6F906FBF6
:101104000966D4F8B40009F099FA582394F8B82081
:1011140003FB0242536A926A1968013A03EBC20361
:101124000022D3F804E09C4672449042A3F10803E1
:10113400F7D8DCF800300798591A0AF081F8002330
:101144002046079A0E9901960093FFF75BFD78BB42
:10115400079805F0DFF958BB4FF0580994F8B80028
:10116400324609FB0043196A0AF053FE0146F8B9F6
:1011740094F8B8300E9809FB03431B6D5A680AF0C3
:101184005FF894F8B83009FB0343D3E91423013B17
:1011940052F8331002EBC30013684268C91A0E9860
:1011A4000AF04EF807980AF020F80E980AF01DF895
:1011B40094F8B830234493F8B030FF2B01D109F0F0
:1011C4004FFA94F8B8600136F6B2E0E694F8B83015
:1011D400079807FB03439E8E9B6B0EAA1E44314661
:1011E40004230AF003F800287FF451AF94F8B830D0
:1011F400BDF8382007FB0343B3F836A046F60813BE
:101204009A42079819D1BDF83A309A457FF43FAF16
:1012140004230EAA0AEB060109F0E8FF00287FF474
:1012240036AF46F60713BDF838209A427FF42FAF45
:10123400BDF83A90D144B1442BE7BAF1000FF0D095
:1012440025E700F0C7FD0B2033E7042000F0C2FDC2
:1012540002202EE70AF1010A37E7234493F8B92064
:101264008DF81C209DF81C2002F0FF0172B10E9B2A
:1012740001330E9394F8B8300133DBB291E600BF2A
:10128400B8200020BC200020B420002093F8B03007
:10129400012B17D020460AAA09F054FA90B1D8F8C5
:1012A4000050102200210AA80AF0FFF95826002352
:1012B400012B84F8B83025D9FFF7B6FB284615B0C2
:1012C400BDE8F08FFFF7A8FB002182462046FFF718
:1012D400BDFB81465046FFF7AFFB33684B45DED17B
:1012E400D8F800209A42DAD03A689A42BFD1D6E7B9
:1012F400012365E694F8BA30002BF9D0022384F870
:10130400B83072E6E21892F8B9205AB906FB0343E2
:10131400D86C09F06AFF94F8B83006FB0343186AE6
:1013240009F063FF94F8B8300133DBB2C0E700BFC3
:1013340070B50B4E0446BC22002130460AF0B5F9C4
:10134400FFF76AFB214605463046FFF7B1FC044629
:101354002846FFF771FBFFF767FB204670BD00BF0F
:10136400742B0120BFF36F8F72B600234FF0FF3050
:10137400094A03F120010133102B42F82100F8D16E
:1013840000234FF0FF30044A03F160010133102BB6
:1013940042F82100F8D1704700E100E038B501229D
:1013A4004FF0FF3400251A4B29465A60C3F84843CE
:1013B400C3F8084303F580535A60C3F84843C3F89D
:1013C4000843A3F55043C3F800558022C3F80843EB
:1013D40010480AF06AF9802229460F480AF065F994
:1013E4000E4B8022C3F800552946C3F808430C4825
:1013F4000AF05BF9802229460A480AF056F90A4B9A
:10140400C3F808454FF05023C3F8084338BD00BF64
:1014140000400150808000508081005000900050B6
:101424008090005080910050007001504FF4EC22E5
:10143400002101480AF039B900A000202DE9F04349
:10144400079D15B91560002012E00324B5FBF4F4E0
:1014540004EB4407BD4218BF0134B4F1804F09D2F4
:10146400A40001348C4200D838B96FF00B0014602A
:10147400BDE8F0834FF0FF34F7E704460021DFF8BE
:10148400B4E0B94203F1030C04F104062BD3A942DE
:10149400274623D201F1010CAC451F7828BF002355
:1014A40024494FEAA70E38BF5B7811F80EE0AC452B
:1014B40084F800E001EB131E2EBF3D239B0003F0D4
:1014C4003C034FEA071738BFCB5C07F030071EF820
:1014D4000770A3703D2367703746E3700023381A02
:1014E40010603B70AFE71CF8034C1CF8023C4FEA59
:1014F400A4091EF8099024011CF8018C04F030049E
:1015040006F8049C0EEB131919F804409B0006F826
:10151400034C03F03C030EEB9814E35C08F03F0823
:1015240006F8023C1EF80830344606F8013C033144
:101534006346A6E75CF200002DE9F04300273C4631
:101544003D46DDF81CE0DFF8288175451FD3E4BB78
:1015540000201460BDE8F0830136764533D013F8DB
:1015640006C0BCF1200FF7D0AEEB0609B9F1010FAC
:10157400A6EB05050DD0BCF10D0F0AD103EB06094E
:1015840099F80190B9F10A0F6ED1751CDDE72E466A
:10159400E3E7BCF10A0FF8D02DB9BCF13D0F05D13A
:1015A4000137022F0DD96FF01500D3E71CF0800F1F
:1015B400F9D118F80C507F2DF5D03F2D01D8002F0C
:1015C400F1D10134E1E73546C1E74FF0060C04F0F0
:1015D4000706E4080CFB06F60CFB04F40736E41BD0
:1015E40004EBD60470B18C420CD8002701460326C4
:1015F4003C46DFF87CE0DFF87C801D449D4205D149
:101604000C1AA5E76FF00B001460A3E713F8019B15
:10161400A9F10A0C5FFA8CFCBCF1160F04D848FA45
:101624000CFC1CF0010FE9D01EF809C00134BCF118
:10163400400F08BF013E0CF03F0C042C4CEA871706
:10164400DCD17EB13C0C012E0C7002D1013100249E
:10165400D4E7022E4FEA17244C7016BF8F70023164
:101664000331F4E73446C9E7002DA2D09BE700BF5D
:10167400DCF10000F6FFBFFF2DE9F047058B0446BF
:101684002807904611D4022905F0070540F0CD80C3
:10169400204609F0C7FB78B10138218B042811D802
:1016A400DFE800F0C3106D85950001290CBF45F0FB
:1016B400100545F02005258388F31188BFF36F8F4B
:1016C400BDE8F08701F0070AAA4500F0A6800027CC
:1016D400B9463E46A368002B00F0BD8041F00801E6
:1016E400218388F31188BFF36F8FA168002900F06C
:1016F400BB800D68002900F0B7803346524620466F
:10170400D1F80480C047002D76D02B6829461D46A9
:10171400F0E701F007035A1F012A1BD8002221F029
:101724000701062B276889B2C4E9002209D13B4688
:1017340003E0628B013262831B68002BF9D141F014
:1017440002012046218309F06DFB00287BD041F083
:10175400200177E0042B0AD121F0070189B2204649
:10176400218309F05FFB10B141F020012183218B1B
:1017740001F0070AAA4550D00027B946AAE7236911
:1017840021F0070141F00601062DD3F800902183D2
:101794002DD1B9F1000F40D041F00801218388F325
:1017A4001188BFF36F8F20463949C84729E021F0DB
:1017B4000701236941F0040189B2042DD3F8049090
:1017C4002183E6D000274FF0040A3E4682E721F049
:1017D4000701236941F0050189B2052DD3F808906A
:1017E4002183D6D000274FF0050A3E4672E7002732
:1017F4004FF0060A3E466DE72B4687E7B9F1000F26
:10180400D1D14FF02003EFF3118883F31288BFF393
:101814006F8F238B23F008032383258BEA062ED5B1
:1018240025F01003238305F007056669218B002E3C
:10183400BFF66FAF00232768C4E9003321F0070126
:1018440041F001012183218B4FF0000901F0070AC7
:10185400AA457FF43FAF002F9BD041F008012183BC
:1018640088F31188BFF36F8F002FC7D03D683946C6
:1018740033465246204609F001FB2F46F4E7AB06F7
:101884007FF51AAF25F02003238305F00705FFE653
:10189400ADAE00002DE9F04F82464FF000098DB047
:1018A4001D46531E01910393039B58785C1C252805
:1018B40019D100204FF0FF381E4644460346023635
:1018C400029031780396392955D81F2914D8002954
:1018D40000F0F18101992520D04701993078D04753
:1018E40009F10209E0E7002800F0E5810199D047F9
:1018F40009F101090394D7E7A1F12002192AE9D8D3
:1019040001A757F822F000BF75190000D91800008C
:10191400D918000075190000D9180000F519000045
:10192400D9180000D9180000D9180000D9180000EF
:10193400411A000075190000D9180000551A00005A
:10194400011A0000D91800000F1A00002F1A000015
:101954002F1A00002F1A00002F1A00002F1A00005F
:101964002F1A00002F1A00002F1A00002F1A00004F
:1019740008460136A5E7582900F0EE80A1F163027C
:10198400D7B2172FA6D8172AA4D801A757F822F040
:10199400031C00007B1A0000D9180000D9180000AD
:1019A400D91800005B1A00007B1A0000D918000047
:1019B400D91800005B1A0000D9180000D9180000DB
:1019C400D9180000371B0000D9180000D9180000EE
:1019D400D71B0000D91800007B1A0000D91800009A
:1019E400D9180000371B0000D91800005B1A00004A
:1019F40025200199D04709F1010955E7029A4FF0D2
:101A0400000802F0FE020292B3E7002C0DDAB8F1EE
:101A1400000F0DDA029A002A00F045810A2224EA16
:101A2400E47402FB0414303CA3E7B8F1000FF5DBC7
:101A34000A2202FB0812A2F130089AE7B8F1000F5B
:101A440055F8042B80F23181002A80F2308154420F
:101A5400022202928DE7682903D1682B06D148231C
:101A640087E76C2902D16C2B00F02381002B7FF4D3
:101A740031AF0B467DE77A2B06D1752955F8046BF7
:101A840014D14FF0000B0CE06C2BF6D04C2BF4D19E
:101A9400073525F00703752903F10805D3E9006B21
:101AA40006D120283ED1864F013C09E04FEAE67B6F
:101AB400BBF1000FF5DA7642824F6BEB4B0B013C26
:101AC4000DF12D03059300230493304659460A2251
:101AD4000023FEF73DFB049B303203F1FF3CCDF8BD
:101AE40010C0DDF814C00CF8012DCDF814C0B446B4
:101AF4005A46BCF10A0F72F1000206468B46E4D244
:101B0400C3F1010B30330DEB0306B8F1000FA6F15E
:101B140004066DDA029BD9077CD4A8EB0B03A4EB73
:101B24000B0413E02B280ABF674F684F04F1FF34FE
:101B3400C6E770290FD155F8042B0023FAB96FF0CA
:101B440004034FF0050B624E053C604F029A920766
:101B54006FD4A04665E078216C2B03D1002355F89F
:101B6400042B08E04C2BF9D1073525F007031D465B
:101B74005B6855F8082B232825D1880621D5554FB5
:101B8400023C002601F06001A1F1390B0DF12D0E8C
:101B940002F00F01092988BF594430310EF8011DA4
:101BA400102A4FEA121141EA03714FEA131073F13C
:101BB400000306F1FF3C08D2C6F1010B06F1300325
:101BC400A1E7454FDCE7414FDBE766460A4603469B
:101BD400DEE755F8046B304609F02EFDB8F1000F2E
:101BE400834602DB4045A8BFC3464FF00008374F89
:101BF400A8EB0B03002B92DDA4EB0804A6E755F831
:101C0400043B4FF0010B8DF81830013C4FF0FF33CB
:101C140006AE9AE7A046EBE7029320200199D0474D
:101C2400029BB8F10108F7D524EAE472013C91441F
:101C3400A41AB84606E0049302920199D047029A86
:101C4400049B9046424612F8010B0028F3D11A4631
:101C5400013A15D5002BACBFC7EB03077F425B46A7
:101C6400013B15D5BBF1000FA8BF5F4426464F4486
:101C7400013E14D5002CA8BF3F1907EB080913E651
:101C84000493029230200199D047049B029ADFE723
:101C94000293019916F8010BD047029BE0E70199E2
:101CA4002020D047E4E70122D3E6904661E61446BB
:101CB4005FE64C235DE648460DB0BDE8F08F00BFFB
:101CC400AFF20000ADF20000B1F2000071F30000C9
:101CD400B9F20000B3F20000B6F20000054B03EBCA
:101CE4008000D0F8003223F0E04343F04053C0F8C2
:101CF400003270470025845010B54FF02003EFF3F5
:101D0400118483F31288BFF36F8F01220C4B0D49AA
:101D1400C3F8002502230020C1F8D036FFF7DEFF08
:101D24001046FFF7DBFFC1F80427C1F80429C1F806
:101D3400002B84F31188BFF36F8F002010BD00BF08
:101D44000010005000400050052370B5144D154E8E
:101D54002C780134B4FBF3F303EB8303E41A0AF0A5
:101D640046F8114A137823B156F82430C01A0728CC
:101D740014D94FF05023D3F8141141B10021C3F802
:101D84001411D3F814312C700CB9012313702C786E
:101D94000AF02DF846F82400012070BD0020FCE76D
:101DA400335F0120302C0120325F012048B1054B04
:101DB400054A1B68B3FBF2F35843044B43F0010399
:101DC400184770478C21002040420F0010EB0000A0
:101DD40005F006B870B5114B0D461C68DCB1104B0C
:101DE400196800238B4202DB6FF0010070BD2246AC
:101DF40012F8106B864202D014460133F2E7E06811
:101E040010B96FF01200F1E70CF0AFF80028F8D029
:101E140000202C60EAE76FF00C00E7E718210020AF
:101E240084EB000070B588B005460C46C0B2694624
:101E34001646FFF7CFFF00281BDB0098C8B14368A4
:101E44002268029383680195CDE903360023CDE926
:101E540006230593C56809F0C8F96DB128460849F9
:101E640001AA09F01FFE079808B9059B236008B072
:101E740070BD6FF01500FAE76FF01200F7E700BFCE
:101E840089B20000F0B40C4B0C4E5F6A0C4BB342A9
:101E940003D36FF08500F0BC70475D68BD4209D381
:101EA4001C693CB195F802C00579AC4502D12346C2
:101EB400F0BC18472433EAE7442C01209024002086
:101EC4006C2400202DE9F04705460E461746124CB7
:101ED400DFF84880DFF84890444503D36FF085006D
:101EE400BDE8F0876268D9F824309A4212D3A36916
:101EF40083B190782979884205D13A4631462846FB
:101F0400BDE8F04718475279012A03D13A463146D1
:101F1400284698472434DFE76C24002090240020CE
:101F2400442C01202DE9F04105460E4617460A4C83
:101F3400DFF82880444502D36FF0850009E0636927
:101F44000BB92434F6E73A46314628469847002828
:101F5400F7D1BDE8F08100BF6C240020902400205C
:101F640010B5044609F0EBFB10F1780F00D050B91E
:101F7400204609F0A9F9044AD2F8C43023EA000340
:101F84000020C2F8C43010BD442C012008220021D6
:101F9400014809F08ABB00BFFF2C012070B50B4B30
:101FA4000B4CA34201D3002070BD0022196A1E7F8E
:101FB4000439D5B2AE4201D82433F2E7013211F824
:101FC40032508542F5D10120EEE700BF6C24002099
:101FD4009024002008B509480378C3F341130A3359
:101FE40050F823303BB100F1080200F1100198478A
:101FF400C043C00F08BD1846FCE700BF442C0120B5
:1020040004282DE9F14F04460F46DFF8949016D0CA
:1020140001282DD1DFF88C8098F8B93043B300F053
:10202400E5FD214D4D4520D24FF0000AD5F820B0F2
:102034002B7F5FFA8AF6B34204D82435F2E7FFF720
:10204400A5FFE7E70BEBC606307909F078FB0246FB
:10205400307909F039F9D8F8C430002A23EA0003AA
:10206400C8F8C4300AF1010AE2DA002388F8B9306A
:102074000D4D4D4508D30B4B1B6A6BB139462046B9
:1020840001B0BDE8F04F1847EB681BB13A46214652
:10209400284698472435ECE701B0BDE8F08F00BF2F
:1020A40090240020442C01206C24002073B5C4B279
:1020B40063060D468DF8074007D02046FFF76EFFF4
:1020C40078B10D4B93F8BA0058B120460A4E55B179
:1020D40002F0AEFDF3691BB108200DF1070198472A
:1020E400012002B070BD02F0CBFDF369002BF7D0E4
:1020F40009200DF10701F2E7442C012073B586781D
:102104001E4C8DF800600379427943EA0223ADF84E
:102114000230C378304603F003038DF8043009F02D
:10212400D3F8D4F8C430054618420BD0304600F03A
:102134003FFD3046FFF714FF0BF09AFF10B99620CD
:1021440007F038FD684602F04FFD10F1780F03D018
:1021540010B1002002B070BD9DF8000002F0CCFD6B
:1021640010F1780F01D00028F3D10120D4F8C43045
:1021740084F8B9002B43C4F8C430EBE7442C0120A5
:102184002DE9F047924D0446AB690E461746C3B994
:10219400207800F01F00012876D0022800F0DC80AF
:1021A40000BB94F900103A68002963782EDA062BF4
:1021B4000CD0082B25D0ABB9537001231370022324
:1021C40003E198470028E3D100200DE06388190A51
:1021D4000A1F012A8C4605D9072903D8DAB26B6A8B
:1021E4001C781CB96FF01500BDE8F0875D78654573
:1021F40003D1824200F0E48001302344F0E71B78ED
:10220400E3E095F8BA3013700123DEE0052B11D01A
:10221400092BE7D163886E6A002B32D1FFF7B6FE33
:10222400638885F8BA30EB69002BCDD00320694967
:102234009847C9E7A07802F0C5FC0028C4D0D1E7CC
:102244007378042B10D0052B11D0022B04D177798D
:102254006388BB4208BF012033781E443378002BC7
:10226400EED10028BED0D9E796F80380F4E763885E
:10227400BB42F1D1B8F1000FEED13046FFF73EFF7B
:10228400EAE7FF27B846E9E795F8BA30D7F800C07F
:10229400002BA7D06F6AA2883B4694F804E0187814
:1022A40000289FD05978022904D193F80480F0457E
:1022B40000F292800344F2E78CF800308CF801308D
:1022C400316081E71F4493E00B2B8BD100264FF044
:1022D400FF08B246C14606E07B78042B0FD0052BDD
:1022E40021D03B781F443B78002BF5D1EB6913B127
:1022F400514607209847002E7FF466AF72E797F89F
:102304000280A38897F803909845EAD16388994599
:10231400E7D1B8F1070F1CD805EB0803BA4601262C
:1023240083F8BB90DDE7A3884345DAD1A3784B4516
:102334000AD0BE78304600F03BFC3046FFF710FE72
:10234400B0FA80F67609CCE73846FFF7D7FE0646A2
:10235400C7E7BA460026C4E794F900206378002A48
:1023640018DA002B7FF43EAF24793F6863060AD065
:102374002046FFF713FE00283FF434AF95F8BA3037
:10238400002B3FF42FAF3946204602F099FC00237E
:102394007B7014E7012B08D0032B7FF423AF6388F1
:1023A400002B7FF41FAF012103E0618800297FF433
:1023B40019AFA088FFF77AFE00287FF405AF11E774
:1023C40002293B607FF41BAF5B883360FCE600BFEF
:1023D400442C0120FE2C012094F90000637800288D
:1023E400BFF672AF002B3FF467AF0A2B7FF4FAAE4F
:1023F4003B78002B3FF4F6AE797804297FF462AF82
:10240400B9788A427FF45EAF072A8EBF002352193F
:1024140092F8BB308CF80030F6E600BF70B5164D6C
:1024240095F8B830FBB102F0ADFB002822DB00F0D8
:10243400DDFB0024D5F8C430E6B2E340DA0714D457
:10244400D5F8C43004F11002D340DB0705D546F0BB
:102454008000FFF785FD00280CDB0134102CE9D146
:10246400002385F8B830002004E03046FFF778FDFB
:102474000028E5DA70BD00BF442C012013B5134CCD
:10248400237DCBB9E26801AB8020A168019208F0FA
:102494002AFF019AA3681344A360E3689B1AE360CC
:1024A40043B93AB12369E2889A4203DD9B0601D11C
:1024B4000123237502B010BD002380201A4619465B
:1024C400237502B0BDE8104002F040BC442C01204A
:1024D400002330B585B002460D460193002858D13B
:1024E400002935D108220B460DEB020109F040F911
:1024F400002804DA802002F09BFB05B030BD2A4C92
:10250400029AC4E903552260039ABDF80E30626052
:1025140004F13802A2609DF908202575002A0ADB1F
:10252400802B04D9802002F083FB0020E3E713B161
:10253400C4E90333E1E7FFF74DFD0028DAD0E28870
:1025440023699A42D4BFE260E360FFF797FFD4E7C0
:10255400154C01ABD4E90215002D04DC09F008F98F
:102564000028CADAC6E72A4609F002F90028D9DBAE
:10257400019AA3681344A360E3689B1AE360002BE9
:10258400BBD104F13803A360FFF724FD0028DCD19C
:10259400B0E78028B1D1044BDA68002AD5D11B7D7D
:1025A400002BD2D1A9E700BF442C0120054B064AD9
:1025B40058629A62054A0020DA62054A1A63054A9B
:1025C4009A617047442C012085210000891E000077
:1025D400291F0000C91E000010B5084B93F8B8402D
:1025E40034B900F0D7F830B1FFF7E0FF204610BD52
:1025F4006FF07700FBE74FF0FF30F8E7442C012041
:102604002DE9F34104463B4D4FF0FF324FF0FF33C9
:10261400394806F03FFE95F8B860002E67D1374878
:102624002C62E86102F0ACFC02F07AFA041E42DB90
:1026340000F000FB041E3EDB40236846ADF8023088
:102644008DF804608DF8006002F0CEFA041E32DBCF
:10265400802768468DF8007002F0C6FA041E2ADB53
:102664003046274902F078FC041E24DB384624490E
:1026740002F072FC041E1EDB224CDFF88C80444501
:1026840020D3002002F038FB041E14DBD5F8C4303C
:10269400802043F00103C5F8C43002F02DFB041E72
:1026A40009DBD5F8C430002443F48033C5F8C430C2
:1026B400012385F8B830104806F066FE204602B0C3
:1026C400BDE8F0810026276A227FF3B29A4201D83E
:1026D4002434D4E707EBC30257F83310107902F01F
:1026E4003BFC01360028EFD04FF0FF34E3E76FF0F6
:1026F4007704E0E7442C0120642300200520000037
:10270400D52400006C2400209024002030B51F4BF9
:102714008BB005AA03F110051446186859680833EC
:1027240003C4AB422246F7D11B7810222370002148
:1027340001A808F0BAFF12220021154808F0B5FFDD
:10274400102101A809F027FA00281BDD0828B8BFCA
:10275400082001AB09381A1800200D4912F8013F6E
:102764000AAC04EB131403F00F0328336B4414F87E
:10277400144C13F8143C013008280C704B7001F110
:102784000201EBD102480BB030BD00BFCEF2000015
:10279400345F01202DE9F04F634C85B000264FF0E3
:1027A400011BB1463546B24623782BB95F4B023440
:1027B4009C42F3D15C481CE06378052B05D8DFE824
:1027C40003F0790403790725A24623781C44EBE738
:1027D400E378002BF9D1A37873B109F101095FFA09
:1027E40089F9F2E76A68944209D024359D42F9D305
:1027F400002005B0BDE8F08F4D4D4E4BF6E7AB68B9
:10280400002BEAD0494620469847E6E7002DEFD052
:10281400002301212A7F9342EAD22A6AA77802EB95
:10282400C3021079874201D00133F3E70127E0782E
:102834005FFA87F800F003008DF80C00207994F813
:1028440005C040EA0C20ADF80A0094F90200002803
:1028540025DA07F1100001FA00F010EA0B0F25D178
:1028640048F080008DF8080002A8CDE9003208F095
:102874004EFFDDE900320121C0B99DF8083013F0A4
:10288400800FA37013710B461DBF08F110085FFA87
:1028940088F801FA08F3BB404BEA030B95E701FA09
:1028A40007F010EA0B0F01D14046DBE70137102F88
:1028B400BDD1B9E7032E1DD1FFF728FF074668B144
:1028C40008F0BAFE804648B11B4808F0B5FE8045C2
:1028D40004D142463946A01C08F0DCFE6FF0020128
:1028E4002378091BE21804EB5303D14213D50136B4
:1028F400F6B26AE7002EF1D1BAF1000F3FF478AFD7
:10290400A4EB0A038AF80230C3F307238AF80330DE
:102914008AF80490EBE74FF0000002F8010C13F87A
:10292400010902F8020DE0E7882300206924002051
:102934006C24002090240020CEF20000094B0021DA
:102944001A4610B51C78844204D15C6814B102EBB9
:10295400811010BD0131042903F14003F2D100209C
:10296400F7E700BF0C2D01202DE9F34150F8283C76
:102974000446103310F82C6C10D1036950F8202C45
:1029840099073CD502BB13F0040304D11A46194637
:10299400304608F0A8FC002344F8283C54F8283CAE
:1029A40010330ED054F8185C5DB154F81C7C54F804
:1029B400148C0BF05DFB00284CD021462B480BF007
:1029C40050FC02B0BDE8F08150F8241C01AB304645
:1029D40008F089FC10B16FF01503DDE7019A54F893
:1029E400243C134444F8243C54F8203C9B1A44F8F7
:1029F400203C54F81C3C134444F81C3CCEE750F8EB
:102A0400241C01AB304602F01DFA0028E3D1019DDD
:102A140054F8243C2B4444F8243C54F8203C5B1BDD
:102A240044F8203C54F81C3C2B4444F81C3C002D36
:102A3400B1D0304602F0AAFAB5FBF0F303FB10550F
:102A4400002DA8D154F8203C002BA4D0304602F02D
:102A540041FAA3E744F8180CA4F1100006F004FDB1
:102A6400424639463046A847ABE700BF90240020D1
:102A74004B1E012B73B506460D460FD8FFF75EFFBC
:102A8400044668B9012D09D101AB012230460DF18C
:102A9400030102F0D7F9019B002BF5D102B070BD00
:102AA4000BF0E6FA04F12C0108B1012D05D108461A
:102AB40002B0BDE87040FFF757BF034802B0BDE85D
:102AC40070400BF0CEBB00BF902400202DE9F74FDF
:102AD400064615469846019108F04BFC044600282A
:102AE4005CD14FF02003EFF3118A83F31288BFF314
:102AF4006F8FDFF8B0B000220023584606F0D4FCF4
:102B040070B9DFF8A490A70109EB8414636813F18A
:102B1400100F14D10193584606F0A6FC019B06E061
:102B24000134042C0BF1400BE5D16FF00B038AF355
:102B34001188BFF36F8F184603B0BDE8F08F019B77
:102B44002061C4E902350C9B304663610D9B09F892
:102B54000760A3616FF00F03C4F83C80636002F068
:102B640015FA58B1304602F011FAB5FBF0F303FB45
:102B740010551DB1E36B43F00403E36318F0020F37
:102B840007D007F12C01094849440BF06AFB0023E4
:102B9400CDE7304602F09EF90346C8E76FF00F0315
:102BA400C9E700BF282D01200C2D0120902400200E
:102BB40010B54FF02003EFF3118483F31288BFF3B1
:102BC4006F8FFFF7BBFE50B14368103307D16FF02E
:102BD4008B0300F12C01436003480BF042FB84F3A8
:102BE4001188BFF36F8F10BD9024002070B50425A9
:102BF4000E4C4FF02003EFF3118683F31288BFF3DA
:102C04006F8F6368103307D16FF08B0308486360DC
:102C140004F12C010BF025FB86F31188BFF36F8FB1
:102C2400013D04F14004E4D170BD00BF0C2D01202E
:102C34009024002070B50025094C0A4E31462046E8
:102C44000BF0F2FA0122A4F11000114601350BF049
:102C5400AEFA042D04F14004F0D1002070BD00BF91
:102C6400382D01206D29000070B504460E46017907
:102C74001248154608F05AFBE8B194F9002063782D
:102C8400002A11DB202B04D0222B09D06FF0850001
:102C940005E007222968103808F0FCFC002070BD0C
:102CA400638800F8093CF9E7212BEFD1072310389A
:102CB40028603360F2E76FF01200F0E70C2E012079
:102CC400014608B5034808F03EFB10B1012300F8A3
:102CD400073C08BD0C2E01200123016981F84B300B
:102CE4000B6833B191F849301BB1024808310BF03D
:102CF400B8BA7047902400200123016981F84A3052
:102D04000B6833B191F848301BB1024808310BF01D
:102D1400A8BA704790240020002103460C4AA0F86A
:102D24004810106883F89C10C3F894009088927936
:102D3400A3F8980083F89A2083F89B104022A3F804
:102D44009E1083F8A01003F14C0008F0AEBC00BF45
:102D540000EB000038B5056995F89E0088B195F838
:102D64009F307BB985F84830D5F8900008F0BAF95F
:102D7400044600220023044805F1180106F0E4FC8F
:102D8400204638BD0020FCE79024002013B50469D8
:102D94008DF8071094F89E30A3B194F89F308BB946
:102DA4000DF107010122D4F8900084F8483008F0AE
:102DB40099F9014640B1212200230C4804F118017D
:102DC40006F0C2FC02B010BD0122D4F8900008F055
:102DD400D9F90028F6D00122D4F890000DF10701AA
:102DE40008F080F90028E6D1ECE700BF9024002029
:102DF400F0B5D0F88C3005465B6885B01B6A1F7D42
:102E0400384608F0B6FA0646E0B94FF48062A86F77
:102E140003A908F086F90446A0B18306A5F11803B6
:102E240085F830600193084B08BF00F1FF34039923
:102E34000093224602233846FFF748FE2146A86F36
:102E440008F08BF905B0F0BD512E0000012310B538
:102E540082F84830136814463BB192F84A3023B1E3
:102E64000A4802F108010BF0FCF9D4F890309A6892
:102E74001B699A4208D004F118010022BDE81040F1
:102E84000023024806F060BC10BD00BF902400205F
:102E9400002310B50469C4F8A8300C4BC4F8A4008E
:102EA400596804F1A80269B9C3E9002204F10800D1
:102EB40007490BF0B9F904F1180006490BF0E2F9DF
:102EC400002010BD0A605A60F0E700BF0C2E0120FC
:102ED400A1B30000F52D000030B54FF40033426873
:102EE400056942F2A10085B0CDE90103002385F80C
:102EF4009D30106AADF80C100A22007901A908F07F
:102F0400F2F9054C95F89D3023B901200BF0F8FA3D
:102F1400013CF7D105B030BDA186010073B514465C
:102F240002F14C060A1E05461FDD3146D4F88C001A
:102F340008F0D8F8012384F8493023683BB194F8A9
:102F44004B3023B10E4804F108010BF08AF9D4F890
:102F54008C104B684A699A1ACB699B1A3F2B04D888
:102F6400012384F8A03002B070BD064B40220093C8
:102F74003146012328460194FFF7A8FDF3E700BF7B
:102F840090240020212F000038B50D4601461E482C
:102F940008F0C1F9044680B3024652F8A439691E08
:102FA4005B68052929D8DFE801F0202803202529BA
:102FB40014F8061C31B91B6A187BFFF7AFFF012315
:102FC40004F8063C14F85C3CBBB9012304F85C3CEF
:102FD40054F8A43C8BB114F85A3C73B1A4F19C018D
:102FE4000A48BDE838400BF03CB91046BDE838400B
:102FF400FFF792BE012304F8053C38BD14F8053CE4
:10300400002BFAD00023F6E70C2E01209024002098
:1030140037B50024084D4FF0FF334FF48062284643
:103024000649009406F058FB054928460BF026F89B
:10303400204603B030BD00BF9024002098680520CE
:1030440014F30000014807F0DDB800BF78EC00007D
:1030540038B5044618B90F4B0F485B689847616848
:10306400B1F5683F0FD0B1F5680F0CD00B4DA942F4
:1030740009D011F4686107D0214609480AF0CFFF4E
:1030840000232360656038BD1422206808F00DFB1E
:10309400F8E700BF142200201DF300002C5F5CA998
:1030A4001433012008B560B34368B3F5683F0ED00C
:1030B400B3F5680F18D0144A934220D000684FF03B
:1030C400FF324FF0FF3306F0E5F858B115E0012266
:1030D4000368D3E8EF1F002903D1C3E8E02F0028D9
:1030E400F7D10AD1002008BD0368084A1B7803F50C
:1030F400807352F82330002BF4D00548F3E70548D9
:10310400F1E76FF4E040EEE72C5F5CA900000350A8
:10311400E98FFFFFEA8FFFFF08B520B34368B3F5DB
:10312400683F09D0B3F5680F13D0114A93421DD0FC
:10313400006806F029F914E000220368D3E8EF1FC1
:10314400012903D1C3E8E02F0028F7D109D00948A9
:1031540008BD00210368084A1B7803F5807342F810
:1031640023100020F4E76FF4E040F1E70348EFE7B1
:103174002C5F5CA9E98FFFFF00000350EA8FFFFF7B
:1031840010B5044618B91D4B1D485B689847636821
:10319400B3F5683F2FD0B3F5680F2CD0194A93428A
:1031A40019D1236803BB4FF0FF324FF0FF332146A0
:1031B400154805F089FF08B923681BB90F4B13485C
:1031C4005B68984714220021206808F06EFA4FF4D7
:1031D4006863636008E0B3F5683F0DD83A2B03D009
:1031E40040F6BA629342DED120680AF060FF636859
:1031F40043F03A03636010BD054AF3E7142200204C
:103204001DF300002C5F5CA91433012043F300007C
:103214003A00003A08B506494023142205480AF04A
:10322400F0FEBDE808400449044807F05DB800BF5B
:10323400142E01201433012080EC000094EC0000D3
:10324400F7B5224E306883685B6C03B198473068E9
:1032540083685B6B002B31D11D4C1E4D3068836835
:103264009B69002B2DD001220DF1070198470128FD
:1032740027D1236843B92B681BB369681A688B424A
:103284002A6008BF6A602360134A9DF8070011880A
:103294007F2904D823684F1C0B44178018720A280E
:1032A400DCD1002023681188186059600B494D68EF
:1032B4004DB9C1E9003310802060CEE7984700285B
:1032C400CAD103B0F0BD2B604B60F4E7883701200E
:1032D40030330120403301203046012038330120AF
:1032E40010B5044B044618688368E1B25B689847DC
:1032F400204610BD88370120F8B505461646084615
:103304004FF02003EFF3118783F31288BFF36F8F1D
:103314001B490B684BB11B4C62689A4205D00022D2
:103324001A60626862B9C4E90033174A136853B972
:1033340087F31188BFF36F8F18460B603360F8BDB5
:1033440013606360F1E7D2F804C01C68634514603D
:1033540008BF546087F31188BFF36F8F5C680B60FC
:10336400A042D8BF00F1FF3403F1080122462846E9
:1033740008F090F90023601C2B550123DEE700BF01
:10338400343301204033012038330120002337B582
:103394001C462349234AC1E90033C2E90033224AC7
:1033A4004868146088B9C1E900220133082B02F18E
:1033B4008802F5D11D4D1E4828600AF0D6FD38B9A3
:1033C4004FF0FF34204603B030BD02604A60ECE7A2
:1033D4000020FFF715F904460028F1D12868836816
:1033E40023B19B6C13B1224612499847286883681D
:1033F4005B6B0BB1984748B1286883689B69002BC5
:10340400FAD001220DF107019847F4E700220A4B94
:1034140028681A8083689B6A002BD3D09847D1E729
:1034240040330120383301204833012088370120FC
:1034340078E70000453200003046012041F20443A1
:103444002DE9F043ADF54B7DADF80C3040F6061395
:103454000025ADF81030DFF80C91434BD9F800107B
:103464001B68424E0822A3EB06080B784D7001330B
:103474000B7098FA98F34B808B8828465BBA8B8044
:1034840007F0EAFD31464246ADF8140007F0E4FDCA
:1034940002271FFA88F440BA04F10A035BBA022235
:1034A400ADF814000DF1160107A8ADF8163008F0B8
:1034B400F1F80822D9F800100DF11E00ADF81670CD
:1034C40008F0E8F8BDF8160007AB083080B23146C2
:1034D4004246ADF81600184408F0DCF8BDF8163082
:1034E4003A461C44A0B22C4607ABADF8160005A919
:1034F400184408F0CFF8BDF8163040F2BD113B4433
:103504009BB2ADF81630009306AA07AB5AA8FDF794
:1035140095FF069B164E174FADF81630BDF81630C2
:10352400A34203DC0DF54B7DBDE8F0833368022133
:103534005B68A4B904A89847BDF8165033682D1BDE
:103544007C2DA8BF7C255AAA101929465B68984788
:103554003368012138465B682C449847DEE703A8AA
:10356400E9E700BFD0370120A0370120465F0120E2
:10357400D437012070F30000F0B50C68164F85B005
:1035840002380D46C4F580610090144B381903AA23
:103594000131FDF7D1FF0446D0B92B68039A1344D7
:1035A400022B2B6011D93E88023B76BAB6B29E42FA
:1035B4000BD13246B91C07F04FFD30B9022E04D9A5
:1035C4002B689A1E2A60FC540124204605B0F0BDE5
:1035D4004FF0FF34F9E700BF876001208A640120BF
:1035E40007B5CDE90001694602480AF0AAFC03B018
:1035F4005DF804FBA037012038B505460A4C0A21C2
:1036040020460AF0A5FC02210848FFF7E9FF2946F5
:1036140020460AF07DFC20460A210AF0A1FCBDE800
:103624003840FFF70BBF00BFA0370120C3F00000F4
:10363400002307B5054A0093022102F5A07304484C
:103644000AF090FC03B05DF804FB00BF465F012064
:10365400A03701202DE9F04F07290446B9B040F204
:103664000481037813F0FD0840F0FF804388A1F142
:1036740008055BBA9BB2AB42C0F0F780AD4B00F1DA
:103684000807186083885BBA8380FFF7D1FFA68898
:10369400012E40F02A82E47944B1012C00F0E88044
:1036A400082039B0BDE8F04FFFF7A6BF3146A24865
:1036B4000AF04EFC0621A148FFF792FF05219E481F
:1036C4000AF042FCDFF87892DFF878A20026DFF8EF
:1036D400788200E001263146204606F0E5FE08A97E
:1036E400C0B2FEF777FB0546002840F093803146D0
:1036F400204610AA02F0C0FE012805D12023294645
:10370400089810AA07F072FD109BD9F80050534591
:1037140022D1FDF781F931460746204602F0C2FE68
:1037240005463846FDF788F9884B1B689D4213D13E
:10373400FDF772F940230021019328AB0746CDE938
:10374400031108460291009310AA089BFCF75AFF44
:1037540005463846FDF770F90023089F00933A4662
:103764004FF6FF7310A90AA806F0CEFE002857D022
:103774004FF0FF37089807F038FDD8F80030AB4217
:1037840048D114216C480AF0E3FB05217048FFF787
:1037940027FF214668480AF0C5FB04216D48FFF75E
:1037A4001FFF314664480AF0BDFB5FB904216A4833
:1037B400FFF716FF18AB0A9320235F480AA90B935F
:1037C4000AF0BCFB07216548FFF70AFFBDF8563035
:1037D400402101939DF85530614A009328A89DF833
:1037E400543000F0FBFD169B4BB1421E3E2A06D816
:1037F40028ADC0F140015B4A284400F0EFFD28A841
:1038040007F01AFF014628A8FFF7EAFE14214A48E8
:103814000AF0A6FB002E3FF45DAFE4B9344655E749
:103824000DF11E0307AA09A90AA806F0BBFE002889
:103834009ED1BDF81E30102BF2D1BDF81C30202BC8
:1038440096D13846099918AA07F0D0FC071E18BF6C
:1038540001277F428EE7052137480AF07DFB0121CD
:1038640035480AF07DFBFFF7E9FD39B0BDE8F08F7C
:103874003846294610AB18AACDF8288000F058FA2B
:10388400074600B303240A212B480AF061FB0221F6
:103894003548FFF7A5FE214627480AF039FB44B90D
:1038A40003213248FFF79CFE314B234819680AF084
:1038B40039FB0A2120480AF053FBFFF7BFFD0A98A1
:1038C40007F093FCD1E7109B9D42DBD14FF0FF3A08
:1038D4003A465546B946B846279818AB824222D193
:1038E4006B1CCFD0B8F1000FCCD03846FCF734FEB7
:1038F4000AA9C0B2FEF76EFA04460028C2D11C4ED3
:10390400002D40F084800A9D30602846D5F808B028
:1039140006F099FE174A0146284606F0DCFD002809
:1039240036D00124AFE7197A032926D8DFE801F05D
:1039340024282B2ED0370120A037012072F3000059
:10394400B82000203DB8F396BC200020B020002011
:1039540079F300007FF3000084F3000089F3000092
:1039640091F300009DF30000C3F00000A0F30000F9
:103974009C370120943701201F6801320C33ADE7D6
:10398400D3E90089F9E7D3F800A0F6E71D68F4E766
:10399400D345FFF477AF6B4B1C606B4BC3F800A0AF
:1039A4003268684D013A29680A984A4407F010FEC3
:1039B40000282860FFF666AF0A9807F055FCB9FBAB
:1039C400F0F3DFF884A103FB10903368DAF80020E9
:1039D4004B44C5B2934238BF00205FFA80FB0A987B
:1039E40007F042FC0128A9EB050506D90A9807F05F
:1039F4003BFC013818EA000F54D12B46424631688B
:103A04000A9807F008FC00287FF43CAF2EE03368E6
:103A1400AB427FF438AF4C4B4D441B689D42BFD939
:103A240030E7A9450A9888BF5FFA85F907F023FCB7
:103A34004022014628A807F038FE4A46414628A8F5
:103A440007F028FE4B4631680A9828AA07F0E3FBE2
:103A540008B1044617E73368C8444B443360A5EB08
:103A640009050A9807F000FC8542DAD2BBF1000F81
:103A74001BD13368DAF800205B442B449342336053
:103A84007FF401AF314B0A981A68114607F0A0FD84
:103A94000028FFF646AF3846DAF800200A9908F005
:103AA400BEF9D6E74FF04009DBE70A9807F0E3FBDD
:103AB4000822014628A807F0F8FD5A4608EB05013C
:103AC40028A807F0E7FDDDF828803168404605EBBB
:103AD400010907F0C9FB4946034628AA404607F0F6
:103AE4009AFB00287FF4CEAEC3E7E6B9E379012B55
:103AF40005D0052B05D0002B7FF4D2ADB5E63046BA
:103B0400CFE5304608F092F901280AD03046FFF795
:103B140073FD4FF40050002106F032F8012007F045
:103B240051FB0A20BDE52A4639462046084BFCF7DE
:103B340025FD00287FF499AE39B0BDE8F04FFFF7BA
:103B44007DBC00BF903701208C37012094370120C1
:103B5400A037012001232DE9F34100250646DFF8B3
:103B6400C080304C88F800302F4B304F00951860DF
:103B740098F8003013B902B0BDE8F0812C4BC5F5BC
:103B84008061C3F80046C3F80446C3F80846C3F886
:103B94000C46C3F81046C3F81446C3F81846C3F8D5
:103BA4001C4603F58053C3F80046C3F80446C3F823
:103BB4000846C3F80C46C3F81046C3F81446C3F8C5
:103BC4001846C3F81C46336801AA0131781998478E
:103BD4000028019B01DC002BCAD005442BB940F21C
:103BE40001439D42C4D10025C2E73B78062B09D18D
:103BF4007B78092B0BD1002300936946A81EFFF79D
:103C0400BBFC04E0042B02D17B78142BF5D00128F3
:103C1400E9D1009907480239FFF71CFDE3E700BF2B
:103C2400866001203546526ED43701208864012015
:103C3400008001508960012073B504460D4609F0E7
:103C44002CFF002868D0354B694600930523204695
:103C540001930AF08DF860B1294620460AF082F8F3
:103C640038B100232B72204609F01EFF012002B058
:103C740070BD204609F014FF78B1294B69460093C2
:103C84000423204601930AF073F830B129462046F4
:103C94000AF06BF808B10123E4E7204609F000FFBD
:103CA40078B1204B694600930323204601930AF020
:103CB4005FF830B1294620460AF054F808B10223CF
:103CC400D0E7204609F0ECFE78B10326164B69468E
:103CD4002046009301960AF04BF830B1294620465D
:103CE4000AF040F808B12E72BDE7204609F0D8FE6C
:103CF40078B10E4B694600930323204601930AF0E2
:103D040037F830B1294620460AF02FF808B10423C9
:103D1400A8E7204609F0C8FE0020A8E779F30000D0
:103D2400A4F30000A9F30000A0F30000ADF3000029
:103D34002DE9F0434FF001099DB004AC07460E464F
:103D440090461D4602460B4620460421CDF80090BD
:103D540009F0AEFE20460AF00EF870B10C230521DE
:103D6400CDE901834846114B009408F13C020AF066
:103D740023F860B920460AF01AF80022099BD86893
:103D8400DA60904208BF1F201DB0BDE8F0832046D2
:103D94000AF00BF80028F0D00DB90020F4E7049BDA
:103DA400DB1BB34294BF2B602E60F6E73D3C000062
:103DB400014910220A60704710ED00E072B64040DD
:103DC40080F31188BFF36F8F01B5FDF7BDFF0028A5
:103DD40002D0BFF34F8F30BFBDE8014062B6BFF3DE
:103DE4006F8F704772B6494081F3118801B5FDF7B2
:103DF400ABFF002802D0BFF34F8F20BFBDE80140C6
:103E040080F3118862B6704740B2002807DB0123B3
:103E14004109034A00F01F00834042F821307047F3
:103E240000E100E040B200280CDB0122064943090E
:103E340000F01F008240203341F82320BFF34F8F4E
:103E4400BFF36F8F704700BF00E100E0054B4209EC
:103E540053F82220012300F01F0003FA00F0104061
:103E6400704700BF00E100E040B2002801F1010109
:103E7400ACBF00F16040064B4FEA4111C9B2ABBF81
:103E840000F5614000F00F0080F8001319547047EA
:103E940014ED00E030BFFFF7FDBF00BF0B4A08B5CB
:103EA4000B4B22F07F029A60BFF34F8FBFF36F8FEB
:103EB400D3F8882022F47002C3F8882005F048F86B
:103EC40005F00AFF00F0EEF905F082F800000000AA
:103ED40000ED00E0094A0A499368096818675967C0
:103EE40008494B6843F080534B60002383F31188E7
:103EF400BFF36F8F9368586F704700BF2C44012045
:103F0400CCEF000000ED00E013498A684FF0300068
:103F14001044EFF3098C80E8F01F202080F312880E
:103F2400BFF36F8F0D4F4FF000664A698A603E60A1
:103F3400106F0023136780F3118802F1300090E8BA
:103F4400F01F8CF3098802F1000004B507F070FB40
:103F5400BDE80440704700002C44012004ED00E05B
:103F64001EF0040F0CBFEFF30880EFF309808169A2
:103F740011F8021C0229FFD001B507F04AFB01BD6C
:103F840042F8203C009B0B4942F81C3C019B21F069
:103F9400010142F8183C029B42F8081C42F8143C08
:103FA4004FF0807342F8043C0023203A0265036713
:103FB400704700BF93A80000084B9860036E83F31A
:103FC4000B88104681F30988002163B681F31188B8
:103FD400BFF36F8F0022002306F059FC2C4401200C
:103FE40001B5EFF30580A0F110004FEAC0000449C9
:103FF400014409C99847BDE8014002490847000047
:1040040008E800000D400000044B99685869884294
:1040140003D003494FF080520A6070472C440120BA
:1040240004ED00E0154B9A6A12F0007F9A6A14BFFF
:104034001E201D2012F0807F9A6A18BF1F2012F4E0
:10404400801F9A6A18BF022012F4002F9A6A18BFC0
:10405400212012F4802F9A6A18BF222012F4003F04
:104064009A6A18BF232012F4803F9A6A18BF24204A
:104074006FEA02426FEA12429A62704700ED00E072
:1040840010B5184B0246986A9C6A10F4805F14BFFE
:104094001720162014F4006F9C6A18BF1820A4057A
:1040A40008D5986A000404D51AB19A6A22F4004229
:1040B4009A6219200B4B9A6A12F4806F9A6A18BF9D
:1040C4001A20D2050CD49B6A13F4005F18BF1C207D
:1040D400044A936A43F47F43936200230B7010BD38
:1040E4001B20F5E700ED00E010B51C4B0246986A72
:1040F4009C6A10F0100F14BF1120102014F0080F48
:104104009C6A18BF1220A40709D5586B986A000648
:1041140004D51AB19A6A22F080029A6213200F4BD6
:104124009A6A12F0010F9A6A18BF142012F0200F35
:104134009A6A18BF1520D40658BF9B6A074B9A6A1F
:10414400920642BF5A6A22F400525A629A6A42F0B4
:10415400FF029A6200230B7010BD00BF00ED00E067
:1041640070B5444B06465B6800258AB0C3F3080368
:1041740085F31188BFF36F8F02F07F40B0F17F4F5A
:1041840011D102F00C0008280DD010074CBF0E46C8
:1041940001250022033B8DF80720032B05D8DFE817
:1041A40003F01E5C60592E46F3E700249DF80730A7
:1041B4009BB92022314602A807F06CFA099B002D16
:1041C40053D0C3F3080222B96FEA53236FEA43239F
:1041D4000993204602A907F01AFA0AB070BD254BCC
:1041E400DA6A9107E1D4DA6A002ADEDBDA6A52007D
:1041F400DBD55A69B16942F480725A61BFF34F8FBB
:10420400BFF36F8F5A6931F8021C22F480725A612D
:10421400BFF34F8FBFF36F8F4DF60272914209D0F7
:104224009A6AD2B242B101200DF10701FFF75CFF97
:104234000446BBE73468B9E79A6A12F47F4F05D0A5
:1042440001200DF10701FFF71BFFF1E79B6AB3F5AE
:10425400803FAAD3FFF7E6FEEAE700200DF107014D
:10426400E4E700200DF10701EDE723F4FF7323F0E9
:104274000103ADE700ED00E0044B5A6942F010027F
:104284005A615A6942F480625A61704700ED00E055
:10429400EFF30880EFF3098101B57246FFF760FF81
:1042A40001BD00BF002320210348C2180133452B60
:1042B40082F80013F9D1704700E100E0002080F398
:1042C4001488BFF36F8F002080F30A8880F30B8873
:1042D400FDF77EFD00200E490860BFF34F8F0D48A7
:1042E40080F3088800F03EF8202080F311880A4803
:1042F4004FF40061401880F30988EFF31480022121
:10430400084380F31488BFF36F8FFFF7C7FD0000E5
:1043140094ED00E0D8A1052098700520BFF34F8FDD
:104324000549064BCA6802F4E0621343CB60BFF34D
:104334004F8F00BFFDE700BF00ED00E00400FA0569
:10434400002318460649D1F89020C2F3072293426D
:1043540000DB7047C1F89830C1F8A0000133F6E7DC
:1043640000ED00E010B572B6002484F31388FFF763
:10437400E7FF23464FF0FF300C4A03F120010133DD
:10438400102B42F82100F8D100234FF0FF30074AE8
:1043940003F160010133102B42F82100F8D162B619
:1043A400BFF34F8FBFF36F8F10BD00BF00E100E07C
:1043B400084B9B6883420BD1EFF3058343B1064B53
:1043C4005A6842F080525A605A6A22F400425A6291
:1043D40005F010BC2C44012000ED00E00CB410B535
:1043E40086B009B90DF10B000024CDE9040109AB35
:1043F400089A009404A905480393FDF74BFA049B1B
:104404001C7006B0BDE8104002B07047C1B6000091
:104414000146014809F0C0BE782300200149024842
:1044240009F01FBF0038012028250020020600F0F3
:104434007F0312D5082B05D1010700F00F0306D521
:104444000E48704710F0780F12D100F00F034C2083
:1044540000EB43100A4B18447047082B05D10207A0
:1044640000F00F0306D50748704710F0780FF6D018
:1044740000207047044800EB4310704724390120A2
:10448400D8370120443A0120443901200022002376
:10449400014804F0B5BF00BF7823002010B5054CD7
:1044A400FFF7F4FF20B1011D204609F0B8FDF7E73E
:1044B40010BD00BFF822002007B5002300220E48DB
:1044C40001A904F001FE90B1FFF7E8FF00220023E8
:1044D400094801A904F0F8FD38B9042301984060A3
:1044E4000374FFF795FFFFF799FF002001E001989F
:1044F400406003B05DF804FBF822002010B50446C8
:10450400FFF7DAFF60B1002204720274FFF780FF44
:10451400044B93F824301BB1BDE81040FFF77EBF75
:1045240010BD00BFD8370120F8B587780646384655
:10453400FFF77CFF3B060446F57812D5002D43D1E6
:10454400FFF7BAFF034600283ED00122A577027484
:10455400032202739C60FFF75BFFBDE8F840FFF79E
:104564005DBF4DB1012D2FD1FFF7A6FF034658B310
:10457400657705740573EDE7FFF79EFF20B3B27806
:10458400124B12F0800F02F0080111D041B1D3F8A0
:10459400A836E36001230374022384600373DAE71B
:1045A400142102F00F0201FB0233D3F80836F0E7BE
:1045B40011B1D3F8A837ECE7142102F00F0201FB84
:1045C4000233D3F80837E4E7F8BD00BF00600350B6
:1045D400012807B50FD002280ED048B900220023C5
:1045E4000848CDE9002345F69A12002305F03EFD64
:1045F40003B05DF804FB002003B05DF804EBFFF7A3
:104604007DBF00BF8822002013B50022012137207E
:10461400FFF72AFC3720FFF7F7FB124803F02AFFC5
:10462400114B98421AD10024104803F061F9104844
:1046340004F0BCFB4FF0FF334FF480620D490E4889
:10464400009405F049F80D490B4809F017FD0C4892
:104654000C4909F0E9FD204602B010BD6FF00400DA
:10466400FAE700BFC54600000000AD0BD0F3000020
:10467400A4EC0000986C052028250020C5F3000058
:104684000038012049480000002310B50B49D1E847
:10469400EF2F012A03D1C1E8E03F0028F7D10CD164
:1046A40051F8044C1439204606F09CFC783004D1AF
:1046B4002046BDE8104006F070BC10BDF83701205C
:1046C400F0B5064689B01422002103A806F0EDFFD8
:1046D4003378013B052B21D8DFE803F07A03141467
:1046E4006A16032300248DF81430FFF7E5FE034611
:1046F400A0B100F108020474DDE9050182E80300B9
:1047040018461DE00423EDE7B7783846FFF78EFE20
:10471400837A044623B1013B022B43D909B0F0BD8F
:104724003B06F57813D5002DF8D1FFF7C5FE0346F7
:104734000028F3D00122A5770274032202739C603F
:10474400FFF766FE09B0BDE8F040FFF767BE55B15C
:10475400012DE3D1FFF7B0FE03460028DED06577D4
:1047640005740573EBE7FFF7A7FE07460028D5D0CD
:104774000123037402238460037304F10C01B078F1
:1047840009F00AF9134AE168B2F88C328B4206D96F
:104794005B1AA2F88C3204F0A3F83846D0E7A2F8EA
:1047A4008C52FAE7304609B0BDE8F040FFF7BCBED2
:1047B40001A804F06FF89DF80530052B04D19DF88D
:1047C400043013F0600FA9D0034B012405938CE748
:1047D40002248AE7D83701204439012038B500245F
:1047E40064F07F00C0B2FFF721FE013406F075FFCC
:1047F400082CF5D100240E4DE0B2FFF717FE036933
:1048040003B90561013406F068FF082C05F1400581
:10481400F2D1084806F061FF074BD3F87C2212B9A5
:10482400064AC3F87C22064806F057FF002038BD2C
:10483400683E012024390120D8370120683A01203C
:10484400443A01202DE9F0430746AD4CDFF8B48229
:1048540085B0FFF71BFE10B905B0BDE8F08394F8EE
:104864002530027C00F104093BB9002A00F088805D
:104874004946A44809F0D3FBEBE7042A44D8DFE80F
:1048840012F07F000500FE0014012F01037B8568F0
:10489400032B39D8DFE803F0023F5C616E6908221C
:1048A4000021304606F001FF974B9848D3F8802446
:1048B4003270D3F884247270D3F88824D3F88C141B
:1048C40042EA01227280D3F89024D3F8941442EA85
:1048D4000122B280D3F89824D3F89C34314642EABA
:1048E40003230822F380EA6006F0D4FE2B6800213B
:1048F400687A984796F90030002B08DBF38833B1C7
:10490400A4F88C3203F0ECFF49464046B2E700239A
:10491400A4F88C32F8E76B7F002BF5D02B7F002BAB
:10492400F2D000264FF0FF326E774FF0FF33784815
:104934002E7706F0E8FE6B6901A901936B68CDE957
:104944000236687A03F0D8FD714806F0DEFEDBE734
:1049540001212B68687A9847D6E7AB7A6BB9EB7F6D
:104964005BB96B484FF0FF324FF0FF3306F0CBFEDC
:1049740003F0EAFF664806F0C8FE02212B68E9E767
:10498400027A042AC0D8DFE802F055031F636F00DF
:1049940003F03AFD05460028B6D103F0E1FC0123FB
:1049A4005C49D1E8EF2F002A03D1C1E8E03F002899
:1049B400F7D1A9D141F8085C41F8105CE0691439D9
:1049C400636106F092FA9FE7002565F07F00C0B2AC
:1049D400FFF72CFD037A13B1407A04F063F9013533
:1049E400082DF2D194F854311BB194F8550104F018
:1049F40059F90025E8B2FFF719FD037A13B1407A9B
:104A040004F050F90135082DF4D194F874321BB137
:104A140094F8750204F046F9012003F0D7FC012351
:104A240084F825302368002B3FF46EAF0021022068
:104A3400984769E7002584F8255004F0F1F8FFF75A
:104A440023FE2368002B3FF45FAF29460420EFE7E1
:104A5400002B3FF459AF03F0E1FC2368002B3FF433
:104A640053AF00210520E3E72268002A3FF44CAF4E
:104A7400002B3FF449AF00210620904744E707F19B
:104A840010054FF0FF334FF0FF32284606F03BFE8F
:104A9400FFF7A4FE284606F038FE57F8283C002B02
:104AA4003FF432AF00210120C2E794F874327BB1A5
:104AB400012584F8895284F88852FFF7FDFC38B147
:104AC400154A057405738260FFF7A2FCFFF7A6FC84
:104AD40057F8283C002B3FF417AF00210A20A7E722
:104AE40004F04CF904F09CF803F030FCFFF7D6FC1A
:104AF400FFF774FE04F03AF9084803F0BBFC03E73F
:104B0400D8370120F822002000600350DC37012050
:104B140010380120F8370120443A0120C54600002E
:104B240038B5154D95F8244024BB05F1380009F03B
:104B3400BEFA022000F040FB22460121E861362043
:104B4400FFF792F904F012F9FFF748FE044610B992
:104B5400012385F82430094B1B680BB1FFF75EFC79
:104B6400074BD3F80034DB0702D50020FFF730FDF4
:104B7400204638BD0024FBE7D837012078230020E5
:104B84000070035010B54FF0FF324FF0FF330B4865
:104B940006F0B9FDFFF782FC03F036FC08B104F01F
:104BA4003FF80024FFF770FD04F0E8F8044880F8AB
:104BB4002440383006F0A9FD204610BD10380120ED
:104BC400D8370120074B93F824203AB193F82530C5
:104BD400002B14BF00206FF0120070476FF012001A
:104BE400704700BFD837012038B5104B044693F8FE
:104BF4002430C3B105782846FFF718FC10B96FF0CC
:104C0400150038BD45722379837263884360207828
:104C1400618810F0080F02D14B1E0B42EFD108F04F
:104C2400B6FE0020EDE76FF01200EAE7D837012066
:104C340038B5124B054693F82420CAB193F82530B1
:104C4400B3B1FFF7F3FB0446A8B1837A012B12D06A
:104C540007D9023B012B07D900206369E060A361F7
:104C640038BD03F079FEF7E7284603F0E5FDF3E7E6
:104C74006FF01200F4E76FF01500F1E7D837012068
:104C840038B50E4B054693F8242082B193F82530AD
:104C94006BB1FFF7CBFB68B115F008040AD12846C5
:104CA40003F0ECFD284604F051F8204638BD6FF0BF
:104CB4001200FBE76FF01500F8E700BFD8370120BA
:104CC40038B50C4B054693F824200C4662B193F892
:104CD40025304BB1FFF7AAFB48B144B1284603F095
:104CE400B3FD2070002038BD6FF01200FBE76FF0B9
:104CF4001500F8E7D837012070B5134E044696F82E
:104D04002430C3B1FFF792FB0546B8B1230705D49D
:104D1400204603F0B3FD204604F018F82B7A83B93B
:104D240001232B7296F825300BB9002070BD204664
:104D340003F0B8FFF9E76FF01200F7E76FF0150022
:104D4400F4E76FF07700F1E7D83701202DE9F0435D
:104D5400DFF8E4801E4698F8243007468946154655
:104D640085B0002B61D098F82530002B5DD0030668
:104D74005ED5FFF75BFB0446002859D0037A002B6D
:104D840056D04FF0FF334FF0FF3208F1380006F0F1
:104D9400BAFCA37F4BB108F1380006F0B6FC6FF003
:104DA4000A04204605B0BDE8F083A37AC5B13BB33D
:104DB40001234FF00008A377384601A9CDE90195F6
:104DC400CDF80C8003F098FB1C4B984229D084F852
:104DD4001E801EBB6FF00404194806F096FCE0E741
:104DE400E27F02B1E577002BE2D103F0BDFDB842CA
:104DF400DED003F0A9FD124806F087FC0024D0E7BA
:104E0400B8F80A30AB42F0D96268B5FBF2F302FBA2
:104E14001353002BE9D10123E377E6E7C6F80080BA
:104E2400D8E706B135600024D6E76FF01204B8E77E
:104E34006FF01504B5E700BFD83701200000AD0BB3
:104E4400103801202DE9F0411D46204B174693F8F8
:104E540024200E46002A33D093F8253083B303066A
:104E640031D401B97FBBFFF7E1FA044658B3037AA2
:104E74004BB34FF0FF334FF0FF32154806F043FCBD
:104E8400E368B8469F4228BF984646B93FB905B182
:104E94002B600F4806F039FC0020BDE8F081424643
:104EA4003046A16906F0F6FBA3694344A361E368B5
:104EB400A3EB0803E360002DEBD0C5F80080E8E71E
:104EC4006FF01200E9E76FF01500E6E7D83701202C
:104ED4001038012070B51E4D034695F8242082B386
:104EE40095F825206AB31B062ED4FFF79FFA0446D3
:104EF40050B3037A43B34FF0FF334FF0FF3205F161
:104F0400380006F000FCE368B3B90126636926772C
:104F1400A361637F83B1FFF7CFFA30B905F138009D
:104F240006F0F3FB6FF00B0070BD0674846006732B
:104F3400FFF76EFAFFF772FA064806F0E6FB002068
:104F4400F2E76FF01200EFE76FF01500ECE700BF37
:104F5400D83701201038012010B5084B0C4693F8BF
:104F640024302BB1FFF762FA28B10460002010BD91
:104F74006FF01200FBE76FF01500F8E7D837012057
:104F8400014B1860704700BFD837012008B5074BA4
:104F940093F8243023B1FFF749FA20B1406808BDE3
:104FA4006FF01200FBE76FF01500F8E7D837012027
:104FB400084B70B5C31A0D4607499B100446594364
:104FC4004022064806F0FFFB2B4601462046BDE87A
:104FD400704018477C400120B76DDBB630E7000015
:104FE400402373B50B4C0093041B0B460D460A4932
:104FF400A41061430646094A094806F011FC011E43
:1050040005DA30462B4602B0BDE87040184702B0BE
:1050140070BD00BF7C400120B76DDBB691B80000C5
:1050240030E700002DE9F84300220121064605205F
:10503400FEF71AFF114801F0EDFF114B984219D108
:1050440001F0F8FF00244FF01C090C27DFF834802E
:105054003569414609FB045005F034FF002807DB9D
:10506400012307FB04551C44042CAB67F0D100203A
:10507400BDE8F8836FF00400FAE700BFC1500000F8
:105084000000AD0BACEC000001460C2300224B43A6
:1050940070B50848C41878331844D4E91C562267FC
:1050A40006F07EFB2DB132462B46BDE87040024827
:1050B400184770BD7C40012030E70000052811D856
:1050C400DFE800F0030E10100C0A074B986F10F085
:1050D400070007D1FFF7D8BF0220FBE70320F9E759
:1050E4000120F7E7704700BF7C40012008B54FF06E
:1050F4002003EFF3118183F31288BFF36F8F124AF9
:10510400136843F002001060DA0708D481F31188B1
:10511400BFF36F8FBDE80840012008F0F0BA4FF0EC
:105124005023D3F80C24D3F80C34D307EED5074816
:1051340006F036FB81F31188BFF36F8FBDE808409A
:105144000020FFF7A1BF00BF1C410120F440012053
:105154001FB500220123CDE902236B46084ACDF88E
:1051640000D0CDF804D006F08AFB002805DB4FF40C
:1051740080420023684604F097F905B05DF804FB0B
:10518400C7B8000010B54FF02003EFF3118483F388
:105194001288BFF36F8F074A136823F00201DB07FD
:1051A400116002D4012008F009FB84F31188BFF3D5
:1051B4006F8F10BD1C410120C3B21C20014A03FBA8
:1051C400002070477C4001202DE9F0410122074670
:1051D4003749D1E8EF3FC1E8E02F0028F9D133B9CE
:1051E400344935484B60CB608A6005F07EFE7B1EF7
:1051F400012B2BD8012F07D14FF05023D3F81C34A7
:1052040003F00303022B21D008F032FF0546F8B95E
:105214002A4B1B78E3B14FF0502302220646C3F811
:1052240008234FF05024DFF89880D4F81834D4F8C9
:105234001824D20316D503F00303022B01D0012F47
:1052440010D175B386F31188BFF36F8FBDE8F08179
:105254004FF02003EFF3118683F31288BFF36F8FAF
:105264000125DEE7C5B13046FEF7BCFDD4F818359C
:10527400DBB2012BD9D1D4F80421002AD5D00022E5
:10528400C4F80421D4F804210222C4F818252022E9
:10529400C8F88021A360C8E70021212004F070FC35
:1052A400E4E74FF050230222C3F80423CEE700BF03
:1052B4007840012068400120984001209068052032
:1052C40000E100E000F1744000F5A6000A289ABF4E
:1052D400024B33F910006FF00F00704774F00000B8
:1052E400024B0B6001231360704700BF58ED0000B0
:1052F40000487047F4EC0000054B994206D14FF08A
:10530400FF324FF0FF33203004F0CEB8704700BFB7
:105314000000AD0B38B50569044695F84030FBB97B
:10532400284606F0D7FA0022002305F1300004F0E5
:10533400BBF8AB6B4BB90B4D02F096FDA84209D1FB
:1053440002F0B4FD0022084B1A702069BDE8384011
:1053540006F0D8BA002140F2676004F011FCEBE7D4
:1053640038BD00BF0000AD0B89680120F8B506699F
:10537400054696F84040D4B9304606F0ABFA0D4FD6
:1053840006F1300004F070F83B785BB932460A4904
:10539400686802F033FCFFF795FFB0FA80F3044627
:1053A4005B093B70286906F0ADFA2046F8BD00247D
:1053B400FBE700BF89680120CDB800002DE9F84F54
:1053C4000D1E06469046D0F8049069DBD9F81830D3
:1053D400AA189A4264D8C5F30B02B8F1000F5FD043
:1053E400C8F30B0313435BD1FFF7C0FF044660BB54
:1053F400306906F081FA2146304606F0C9FA0446BF
:1054040000BB306906F066FADFF89CA0D9F81830C2
:10541400434520D108F058FAC34607463946306957
:10542400FFF76AFF57452BD1B8EB0B085D44EDD16C
:10543400306906F067FA0121304606F0A9FA002C1B
:1054440008BF0446306904F00FF83046FFF762FFE6
:105454002046BDE8F88FB8F5803F09D3ABB2A3B9B5
:105464002946012002F070FD4FF4803B0746D5E742
:10547400B8F5805F09D20D493069FFF73DFF0B4F46
:105484003846FFF71FFF0446D2E7C5F30B00002898
:10549400F1D1294602F058FD4FF4805B0746BDE781
:1054A4006FF01504D4E700BF0000AD0B0400AD0B92
:1054B400F0B5436887B01D6A04460021284603AA54
:1054C40006F07FFB002866DB039B2A6819791868BD
:1054D40000F034FC00285EDB4FF050270125002249
:1054E40001212B20FEF7C0FC6668226930463D4945
:1054F400C7F8B85502F082FB0223C7F8B835FFF7A6
:10550400E1FE002847DB0022AB23204603A9CDE9B6
:10551400032205928DF80C3006F0FFF900283ADBDF
:10552400232008F0EDFFF37A023BAB4205D9B57AAC
:10553400033D012D8CBF00250125204606F03DFAD0
:10554400002828DBC2B2C0F38010854201AD24D10B
:105554002046FFF7DFFE03260023CDE90263049310
:105564009F232046CDF804D08DF80C300595FFF725
:10557400FDFE024678BB204603A906F0CEF9054697
:105584002046FFF7C7FE4DBB6068324669461C30B3
:1055940006F059F810BB07B0F0BD002382F04002BA
:1055A400ADF800308DF800200122204603A9CDE992
:1055B4000223CDF804D005938DF80C20049506F051
:1055C400ACF90028E7D1204606F0F7F90028E2DB21
:1055D400C307F8D4BCE72046FFF79CFE6FF0120027
:1055E400D9E700BFCDB800002DE9FF4705460F46B7
:1055F4001E469046002A7FD0002B7DD0042B01D973
:105604009A0779D1BB0777D1002F6A6874DB926956
:10561400BB19934270D82846FFF7A8FE0446002819
:105624005FD1286906F068F92146284606F0B0F9EA
:105634000446286906F04EF9002C40D1032E1CD8EC
:105644003A460421684608F03CF9044601462869B4
:10565400FFF752FE2A4B9C4231D1324641466846FE
:1056640006F018F83A460421684608F027F904467B
:1056740001462869FFF740FE21E008F06043B3F1DA
:10568400005F35D0DFF878A0102EB14628BF4FF068
:10569400100941464A46684605F0FCFF3A46102187
:1056A400684608F00BF9044601462869FFF724FE12
:1056B400544504D1B6EB0906C8444F44E4D12869E3
:1056C40006F020F90121284606F062F90646286909
:1056D40003F0CAFE002C14BF20463046FFF7F2FD4B
:1056E40004462846FFF716FE204604B0BDE8F087BE
:1056F4003A4631464046B8E76FF01504F4E700BF78
:105704000000AD0B2DE9F04F074688461C461646AF
:1057140085B0002A00F09980002B00F094800029C5
:105724004268C0F292809269CB18934200F28D8055
:10573400FFF71CFE054600287ED1C8F1000505F0E0
:105744000305386906F0C6F8A54228BF254673420A
:1057540003F0030306F0030958BFC3F10009C9F1BC
:10576400000909F00309A14528BFA146631BA4EB66
:10577400090424F0030423F0030AA245C8BFA24687
:1057840003F0030BC8BFA3EB040BBAF1000F18D04E
:1057940006EB090308EB050251461846019308F08D
:1057A40090F8044601463869FFF7A6FD284A94425A
:1057B4003BD14D4505D0019B52461946701905F061
:1057C40052FFBDB1C5F104090421A8EB090202A8E6
:1057D40008F077F8044601463869FFF78DFD1C4B45
:1057E4009C4222D109F108032A4630460DEB0301FD
:1057F40005F050FFBBF1000F16D0082108EB05029D
:1058040052440DEB010008F05CF804460146386987
:10581400FFF772FD0E4B9C4207D10AEB05005A4676
:1058240002A9304405F036FF094C386906F06AF8DD
:105834002046FFF747FD05463846FFF76BFD28462F
:1058440005B0BDE8F08F1D46F9E76FF01505F6E7E2
:105854000000AD0B024B0B6001231360704700BFC7
:1058640060ED00000048704768ED00002DE9F74343
:105874001C460B44B3F5802F0D4617462CD800293F
:105884002ADB41EA040616F0030625D10422FF218F
:105894000DEB020005F009FFDFF8448008EB050971
:1058A400A64209D33A4608EB05033C44A2420CD174
:1058B400002003B0BDE8F083042209EB06010DEBE0
:1058C400020005F0C0FE0436EAE7197812F8010B6D
:1058D400014003F8011BE9E76FF01500E9E700BF99
:1058E4008A680120104608B51A460B44B3F5802F88
:1058F40007D8002905DB044B194405F0CBFE002032
:1059040008BD6FF01500FBE78A6801208B18B3F51A
:10591400802F70B51BD8002919DB42EA0106C6F3B3
:105924000B06A6B90B4C21F47F6121F00F01150B76
:105934000C44AE4201D1002070BD20464FF4805289
:10594400FF2105F0B2FE013604F58054F1E76FF053
:105954001500F1E78A68012008B54FF48022FF2181
:10596400024805F0A2FE002008BD00BF8A6801209D
:105974004FF4802301480B60704700BF8A68012000
:10598400024B0B6001231360704700BF20410120CC
:105994000048704798ED000010B5012206481146F2
:1059A40008F005FC07F07DFF044C206007F076FF4B
:1059B4006060002010BD00BF28410120204101206B
:1059C40070B50C46154607F069FF29460646204681
:1059D40006F00EF808B3B4FBF6F306FB1343E3B981
:1059E400B5FBF6F306FB1353BBB9AE4201D9002055
:1059F40070BD4FF0FF324FF0FF33094803F054FD00
:105A040007F04CFF0646204601F002FFAD1B34446C
:105A1400F9D1034803F028FDE9E76FF01500E7E743
:105A2400284101202DE9F0410D4619462846164625
:105A34001C4605F0DDFFC8B314B90020BDE8F081B1
:105A44004FF0FF324FF0FF331A4803F02DFD15F0ED
:105A540003070CD0C7F10407A74228BF27463146E5
:105A640028463A4601F002FF3D443E44E41B002729
:105A740024F00308B84507EB050012D16FF00302C8
:105A8400A30802FB03421AB106EB080101F0EEFE83
:105A9400094AD2F80034DB07FBD5064803F0E4FCDE
:105AA400CBE7F15901F0D2FE0437E3E76FF01500BC
:105AB400C4E700BF284101200090035030B540687E
:105AC40001F01F04057BB2F5001F85B044EA4514BC
:105AD40005D1204601F05EFD002005B030BD002553
