:020000040100F9
:10000000580D0021E91D0001813E0001BD1D0001C8
:10001000BD1D0001BD1D0001BD1D0001000000004F
:1000200000000000000000000000000005190001B1
:10003000BD1D000100000000BD1D0001BD1D00012F
:1000400061190001611900016119000161190001C4
:1000500061190001611900016119000161190001B4
:1000600061190001611900016119000161190001A4
:100070006119000161190001611900016119000194
:100080006119000161190001611900016119000184
:100090006119000161190001611900016119000174
:1000A0006119000161190001611900016119000164
:1000B000611900016119000100000000000000004A
:1000C0000000000000000000000000000000000030
:1000D0000000000000000000000000000000000020
:1000E0000000000000000000000000000000000010
:1000F0000000000000000000000000000000000000
:1001000000000000000000000000000000000000EF
:1001100000000000000000000000000000000000DF
:1001200000000000000000000000000000000000CF
:1001300000000000000000000000000000000000BF
:1001400000000000000000000000000000000000AF
:10015000000000000000000000000000000000009F
:10016000000000000000000000000000000000008F
:10017000000000000000000000000000000000007F
:10018000000000000000000000000000000000006F
:10019000000000000000000000000000000000005F
:1001A000000000000000000000000000000000004F
:1001B000000000000000000000000000000000003F
:1001C000000000000000000000000000000000002F
:1001D000000000000000000000000000000000001F
:1001E000000000000000000000000000000000000F
:1001F00000000000000000000000000000000000FF
:10020000DEE61E284CBBCE8F023500003C0000000D
:100210005454000001000000000000010000000133
:10022000FFFF02910000000000000000000000003D
:1002300000000000000000000000000053B94AB9AF
:10024000002908BF00281CBF4FF0FF314FF0FF30DE
:1002500000F00CB8ADF1080C6DE904CE00F0D0F957
:10026000DDF804E0DDE9022304B07047704700BF09
:1002700030B44FF0000310F8014B11F8015B013A64
:1002800084EA050443EA0403F5D1A3F101034FEA2C
:10029000D37030BC704700BF4FF0000310F8012B43
:1002A000013943EA0203F9D1A3F101034FEAD37004
:1002B000704700BF30B411F8014B12F8015B6C407D
:1002C00000F8014B013BF6D130BC70472DE9F04FEF
:1002D00090E8F00F00F140004FF0040E59E0F0B448
:1002E000826BC36B04680525242687593C444FEA7A
:1002F000724787EAF24787EA92273C4442684FEA0E
:10030000F21787EAB24787EAD2073C4440F8044B29
:10031000032D08BF6FF01B0687593A444FEA734715
:1003200087EAF34787EA93273A4443684FEAF3178B
:1003300087EAB34787EAD3073A4440F8042B875942
:100340003B444FEA744787EAF44787EA94273B44E3
:1003500044684FEAF41787EAB44787EAD4073B4476
:1003600040F8043B013DC0D1A0F13C00076A3C4489
:100370004FEA724787EAF24787EA92273C440268CD
:100380004FEAF21787EAB24787EAD2073C44C463D0
:10039000F0BC4FF0020288EA781C8CEAF84C0BEBB8
:1003A000BC1C8AEA090303EA080383EA0A039C44A3
:1003B00050F8043B9C4451F8043B9C44674444EA95
:1003C000050B0BEA060B04EA05034BEA030BE344B7
:1003D00084EAF42383EA34530BEBB30B87EA771CEC
:1003E0008CEAF74C0AEBBC1C89EA080303EA070312
:1003F00083EA09039C4450F8043B9C4451F8043BB5
:100400009C4466444BEA040A0AEA050A0BEA040320
:100410004AEA030AE2448BEAFB2383EA3B530AEBF2
:10042000B30A86EA761C8CEAF64C09EBBC1C88EA17
:10043000070303EA060383EA08039C4450F8043BDD
:100440009C4451F8043B9C4465444AEA0B0909EA80
:1004500004090AEA0B0349EA0309E1448AEAFA2398
:1004600083EA3A5309EBB30985EA751C8CEAF54C2B
:1004700008EBBC1C87EA060303EA050383EA0703CB
:100480009C4450F8043B9C4451F8043B9C44644415
:1004900049EA0A0808EA0B0809EA0A0348EA0308D5
:1004A000E04489EAF92383EA395308EBB30884EA84
:1004B000741C8CEAF44C07EBBC1C86EA050303EAC7
:1004C000040383EA06039C4450F8043B9C4451F81F
:1004D000043B9C44E34448EA090707EA0A0708EAA0
:1004E000090347EA0307674488EAF82383EA385395
:1004F00007EBB3078BEA7B1C8CEAFB4C06EBBC1CBE
:1005000085EA040303EA0B0383EA05039C4450F8DD
:10051000043B9C4451F8043B9C44E24447EA0806EF
:1005200006EA090607EA080346EA0306664487EA7C
:10053000F72383EA375306EBB3068AEA7A1C8CEA80
:10054000FA4C05EBBC1C84EA0B0303EA0A0383EABA
:1005500004039C4450F8043B9C4451F8043B9C44E5
:10056000E14446EA070505EA080506EA070345EA05
:100570000305654486EAF62383EA365305EBB305A3
:1005800089EA791C8CEAF94C04EBBC1C8BEA0A035F
:1005900003EA090383EA0B039C4450F8043B9C44A0
:1005A00051F8043B9C44E04445EA060404EA07048D
:1005B00005EA060344EA0304644485EAF52383EA72
:1005C000355304EBB304013A7FF4E5AEA0F14000EB
:1005D000BEF1010E7FF483AEA0F1400C9CE80F0049
:1005E000001949199219DB19ACE80F009CE80F00BB
:1005F0004044494452445B44ACE80F00BDE8F08FEE
:100600002DE9F04786468C460846089E15467446F6
:100610001946002B40F0C1808542B2FA82F245D9DA
:100620004AB1C2F1200300FA02FC954094402EFA30
:1006300003F343EA0C0C4FEA154EA8B2230CBCFBA3
:10064000FEF80EFB18CC08FB00F943EA0C43994571
:1006500028D9EB1808F1FF3704D2994502D9A8F13F
:1006600002072B44A3EB0903A4B2B3FBFEFC0EFB71
:100670001C330CFB00F044EA0344A04214D92C19AB
:100680000CF1FF3304D2A04202D9ACF102032C4496
:10069000241A43EA07401EB1D4400023346073603B
:1006A000BDE8F0874746DDE76346F1E792BB431BB1
:1006B00001214FEA154EAFB2200CB3FBFEFC0EFB3E
:1006C0001C330CFB07F840EA0343984561D9EB184B
:1006D0000CF1FF3004D2984502D9ACF102002B4452
:1006E000A3EB0803A4B2B3FBFEFC0EFB1C330CFB14
:1006F00007F744EA0344A7424DD92C190CF1FF3304
:1007000004D2A74202D9ACF102032C44E41B43EA11
:100710000040C0E7C2F120039540944020FA03F165
:100720002EFA03F34FEA154E9040AFB20343B1FBEC
:10073000FEFC0EFB1C10190C0CFB07F841EA0041F3
:10074000884522D969180CF1FF3004D2884502D9B6
:10075000ACF102002944A1EB08019BB2B1FBFEFC05
:100760000EFB1C110CFB07F743EA01439F420ED915
:10077000EB180CF1FF3104D29F4202D9ACF1020117
:100780002B44DB1B41EA004193E76046E3E7614607
:10079000F7E76046A4E76346B8E7834206D916B98F
:1007A000002108467CE7C6E900E0F9E7B3FA83F7E1
:1007B0008FB9834201D3724508D8BEEB020460EBC7
:1007C000030301209C461EB9002169E73846FAE779
:1007D000C6E9004CF8E7C7F1200CBB400EFA07F55C
:1007E00022FA0CF42EFA0CF1BA401C4320FA0CF356
:1007F000B8404FEA144901431FFA84FEB3FBF9F8ED
:1008000009FB18300B0C08FB0EFA43EA00439A452B
:1008100040D9E31808F1FF3004D29A4502D9A8F173
:1008200002002344A3EB0A0389B2B3FBF9F809FBE6
:10083000183308FB0EFE41EA03418E452CD961189E
:1008400008F1FF3304D28E4502D9A8F102032144F6
:1008500043EA0040A1EB0E01A0FB02984145CE46C1
:10086000434602D306D14D4504D20138B9EB020EFE
:1008700068EB0403002EA7D0B5EB0E0261EB030179
:1008800001FA0CFC22FA07F3F9404CEA0303C6E92B
:10089000003199E74046C5E74346D9E72DE9F043E3
:1008A00085B0304803F0A4FC30B92F4803F096F926
:1008B000002005B0BDE8F0834FF408414FF0807090
:1008C00003F0EFFB28B1294803F088F902F0B0F9F2
:1008D000EEE702F0A7F9054602F0B2F9E8B903F035
:1008E00058FC04460146284603F017FC10B921467F
:1008F0001F4805E01B4802F0B5F9014618B11D4834
:1009000003F06CF9E2E72946284603F006FC10B133
:1009100002F0E4F9FEE72946EAE74FF45E311648B3
:1009200003F0BFFB014608B11448E9E70446DFF8CD
:100930005090DFF8508001AF59F8046B98E8070039
:100940002E4487E807000C223946304603F0AFFA00
:1009500000B91EB90134052CEED10026304601F055
:10096000A3FFA5E76C420001DC450001F44500014E
:10097000224600014C460001008800016B46000140
:1009800018440001D0430001014B1B68184700BF09
:100990000000002107B50B460021024600910348E4
:1009A00000F008FA03B05DF804FB00BF89090001FC
:1009B0002DE9F0471646028B0446100712D402298F
:1009C00002F007025BD1204603F015F988B1013827
:1009D000042800F21081DFE810F052000E017400CC
:1009E000B300E00001290CBF42F0100242F02002E7
:1009F000228386F31188BFF36F8FBDE8F08703F081
:100A00000701481F01281ED8002006292768C4E9CD
:100A1000000014D1394603E0608B0130608309681F
:100A20000029F9D123F0070343F002012046218376
:100A300003F0E1F890B341F0200121832EE023F090
:100A4000070399B2F2E7042930D123F0070399B2E2
:100A50002046218303F0CFF810B141F0200121831B
:100A6000238B03F00709914540F0CE80228BD106FD
:100A700040F1F68022F01003238302F00702D4F83D
:100A80001480238BB8F1000FB9DA0021276823F016
:100A90000703C4E9001143F001032383238B03F010
:100AA0000709914500F0E580002536E07C4940F2D9
:100AB0001B127C4803F077F940F21B11784803F0D1
:100AC0006BF942B176494FF4AB72764803F06BF99B
:100AD0004FF4AB71F2E7236843B9714940F2571202
:100AE000704803F060F940F25711E7E723691D6889
:100AF00045B96B494FF4AD726A4803F054F94FF4AD
:100B0000AD71DBE7174690464FF00609238B23F0C3
:100B1000070343F006039BB22383A268002A76D121
:100B2000002F40F0AA80002DA0D043F008032383BB
:100B300086F31188BFF36F8F20465B49A84782E098
:100B4000022A08D0564940F25D12564803F02BF9AC
:100B500040F25D11B2E7678B47B151494FF4AF7274
:100B6000504803F020F94FF4AF71A7E723695D689F
:100B700045B94B4940F261124A4803F014F940F27A
:100B800061119BE7238BB84623F0070343F004036E
:100B90009BB24FF004092383BFE7012A08D04049E4
:100BA0004FF4B2723F4803F0FEF84FF4B27185E79C
:100BB000236843B93A4940F265123A4803F0F3F822
:100BC00040F265117AE723699D6845B934494FF4CD
:100BD000B472344803F0E7F84FF4B4716EE70027BD
:100BE000238BB84623F0070343F005039BB24FF075
:100BF0000509238391E72A4940F26B12294803F043
:100C0000D2F840F26B1159E700273D4685E743F0E3
:100C10000803238386F31188BFF36F8FA16800292F
:100C200032D00E6881B343464A462046D1F804A02C
:100C3000D0471EB1336831461E46F3E73346FAE724
:100C4000002D7FF479AF4FF02003EFF3118683F38B
:100C50001288BFF36F8F238B23F00803238305E7EC
:100C600093067FF5C6AE22F02003238302F007022D
:100C7000A9E6002F3FF4FAAE002543F008032383D2
:100C800086F31188BFF36F8F002FD9D03E683946A5
:100C900043464A46204602F0DAFF3746F4E700BFF3
:100CA0009E460001C04600017B3C000170B5054630
:100CB0000E4602F0BCFF041E15DB4FF02003EFF3DD
:100CC000118283F31288BFF36F8F4FF6FF716B8B26
:100CD0002C8B8B4204F0070407D182F31188BFF3F9
:100CE0006F8F6FF00A04204670BD022C0CD10133C7
:100CF0006B8382F31188BFF36F8F00232246314646
:100D0000284602F0A4FFEEE7062C11D8DFE804F035
:100D1000041E101004250400002333606B6893B98F
:100D2000C5E9006604BB02212846FFF741FEDAE769
:100D3000104911484FF4E47203F035F84FF4E471B0
:100D40000C4803F029F81E606E60EBE782F311880F
:100D5000BFF36F8F6FF00404C5E782F31188BFF310
:100D60006F8F6FF08504BEE782F31188BFF36F8F3A
:100D7000B9E700BF9E460001C046000108B54268C1
:100D8000034602F00302032A816002D02AB1002048
:100D900000E0006800225A6008BD0449044845226A
:100DA00003F001F84521014802F0F6FFD8460001A2
:100DB000C04600012DE9F04F81468B4617461C4680
:100DC000002595B0387808B9284657E37B1C2528BC
:100DD000039306D05946C8470028C0F24F83013517
:100DE000FBE1182200210EA803F07CF87B78252B6C
:100DF0007DD0002398469E469C461E46781C0146A0
:100E000010F8012B2B2A00F0A18000F29880202AF4
:100E100000F09F80232A00F09F802BB19DF8403086
:100E200043F040038DF84030B8F1000F05D09DF835
:100E3000403043F020038DF84030BEF1000F05D064
:100E40009DF8403043F010038DF84030BCF1000FA6
:100E500005D09DF8403043F008038DF840302EB1A6
:100E60009DF8403043F004038DF840309DF8403049
:100E700003F04400442803D16FF386138DF840300B
:100E80009DF840302A2A43F080038DF840307FD10E
:100E90009DF841204B1C42F001028DF841201A7848
:100EA0002E2A0CBF012100219DF8412061F341024F
:100EB0008DF8412078D15A782A2A6ED000224FF03E
:100EC0000A0C0133194611F8010BA0F13006092E66
:100ED00040F295809DF840101292C1F3400040EA24
:100EE000D2700A4660F341028DF840205CE0BA1CE3
:100EF00003928DF843309DF84130DA0740F12E819E
:100F000054F8048BB8F1000F07DA9DF84020C8F1BF
:100F1000000842F004028DF840205E0740F127816E
:100F200054F804ABBAF1000F80F226819DF84130ED
:100F30006FF341038DF841304FF0FF3A1CE12D2A49
:100F40000DD0302A7FF469AF012358E74FF0010C30
:100F500055E74FF0010E52E74FF001084FE7012629
:100F60004DE703460EFB0262303A184610F8016B5B
:100F7000A6F1300CBCF1090FF3D999428FD09DF83E
:100F800040101192D20F62F341018DF8401086E7B4
:100F90000B4600224FF00A0EE7E79DF8412002338E
:100FA00042F004028DF841201A786C2A47D02BD8E1
:100FB000682A31D06A2A4BD04C2A51D01A4612F8EE
:100FC000013B782B03928DF843309DF8412000F2CD
:100FD000BE806D2B51D8692B00F2B980572B67D892
:100FE000412B03D0453B022B00F2B18004229DF837
:100FF000423062F302038DF84230012373E00CFBB0
:1010000002020B46303A5DE7742A25D07A2AD5D100
:1010100006219DF841200CE05A78682A9DF841206D
:1010200006D1012161F3C6028DF841200233C5E7E4
:10103000022161F3C6028DF841200133BEE75A78E0
:101040006C2A9DF8412001D10421EBE70321F0E750
:1010500005219DF84120ECE707219DF84120E8E7B4
:10106000BDF8402022F4F04222F0020242F4804215
:1010700042F00202ADF84020DFE76E3BD9B2012317
:101080008B4040F282410B4237D113F0240F51D1F3
:10109000D8075CD503219DF8423061F302038DF837
:1010A000423002F07803A3F140014B424B411AE079
:1010B0000120A3F15801C9B200FA01F111F4624F05
:1010C00094D140F6010631421DD111F4043F3ED0C7
:1010D0009DF8423060F3020302F07802402A8DF856
:1010E000423034D000239DF84020C2F340010B432E
:1010F00063F341028DF84020FDE602219DF8423065
:1011000061F30203E8E702209DF8421002F0780242
:1011100060F30201402A8DF8421002BF9DF8401092
:1011200041F001018DF84010632BDBD1131E18BF75
:101130000123D8E703219DF8423012F0780F61F3C4
:1011400002038DF8423014BF01230023CBE79DF842
:10115000403043F001038DF84030C3E79DF9402053
:10116000002AACBF4FF0FF38DDF84480D5E6980781
:101170007FF5E2AEDDF848A00023CDE911339DF8FC
:1011800042309DF8411003F00703012BC1F3C30166
:1011900033D1CB1E042B04D8DFE803F021464621CF
:1011A0002100236801294FEAE372CDE90E321CD1F8
:1011B0009DF93830DA17CDE90E3204349DF840300D
:1011C00013F0030650D03A4659464846039B02F0B6
:1011D000CCFD0028C0F252810544039FF2E554F88B
:1011E000043BDA17CDE90E32E8E70229E5D11AB25D
:1011F00043F3C033CDE90E23DFE7022B24D1CB1E0E
:10120000042B04D8DFE803F0181010181800012987
:101210004FF0000254F8043B14D00229CDE90E32FD
:10122000CCD19BB20E93C9E7073424F00704F4E84D
:101230000223CDE90E23C1E754F8043B0E930023AB
:101240000F93BBE7DBB2CDE7042B08D1073424F0C2
:101250000704D4E900230834CDE90E23AEE7032BBD
:10126000ACD154F8043BDDE79DF843007828B4D8AE
:1012700062281CD825283FF4ADAD5828ADD1DDE952
:101280000E010DF13603009310AA08AB02F027FD02
:10129000BAF1000F074680F29980002F9DD00DF122
:1012A0003603D81B002E00F0C0800130BDE063384B
:1012B000152892D801A252F820F000BF9113000126
:1012C000A3130001DB110001DB110001DB110001A0
:1012D000DB110001A3130001DB110001DB11000190
:1012E000DB110001DB1100012F140001C713000105
:1012F000ED130001DB110001DB11000115130001EA
:10130000DB110001C7130001DB110001DB1100013B
:10131000C7130001BAF1000F0E9F35DB5146384666
:1013200002F0BCFD07EB000A002F3FF456AF002689
:101330009DF8423013F01002059200F092800230C6
:101340005B06119A48BF129B104448BFC018B8F101
:10135000000F049240F39F809DF84020A8EB000806
:10136000C2F380035007069300F19580510640F1C7
:1013700088803EB159463046C84700287EDB069B30
:1013800001351E4630227DE0384602F080FDC9E777
:101390000E9B002601208DF8203008AF0DF1210AA8
:1013A000C6E719075ABFC3F300135E012B26DDE918
:1013B0000E23002BBFF663AF524263EB43032D268F
:1013C000CDE90E235BE7002659E700269DF8402073
:1013D0000DF13603DB1B6FF386129A458DF8402022
:1013E0007FF65BAFAAEB0303119356E70E9890B319
:1013F0000DF136030093002108AB10AA02F06FFC38
:10140000BDF84230BAF1000F03F0EF0343F4F043AC
:1014100043F010030746ADF84230D6DA00283FF417
:10142000DCAE00260DF13603181A9A4680E70E9BB3
:1014300007293FF6D2AEDFE801F00C04060C0808DD
:101440000C0C1D70C9E61D80C7E6EA17C3E90052FF
:10145000C3E61D60C1E62F4F064607F1050A0520C9
:1014600066E71A0748BF01306AE7104607930692FD
:101470005946C847DDE90623002804DA15B0BDE85F
:10148000F08F202243461946002903F1FF33ECDC9C
:10149000454498466D1A2EB159463046C847002833
:1014A000ECDB01359DF84230DA0601D41B0705D587
:1014B00059463020C8470028E0DB0135059B33B191
:1014C00059469DF84300C8470028D7DB0135049EE4
:1014D0002E4405E059463020C8470028CEDB0135B0
:1014E000731B002BF6DC53463A465946484602F039
:1014F0003CFC0028C2DB0544A844A8EB0503002BF4
:101500007FF76BAE59462020C8470028B6DB01356F
:10151000F3E700BFFB4600014FF02002EFF3118319
:1015200082F31288BFF36F8F0121044AC2F840157D
:1015300083F31188BFF36F8F0020704700000841CC
:10154000052370B5144D154E2C780134B4FBF3F31C
:1015500003EB8303E41A02F0A0FD114A137823B1D0
:1015600056F82430C01A072813D90E4BD3F814119B
:1015700041B10021C3F81411D3F814312C700CB907
:10158000012313702C7802F088FD46F82400012016
:1015900070BD0020FCE700BF51010021B000002118
:1015A000500100210050004120B1034B800143F065
:1015B00001031847704700BF1044000101F058BCF8
:1015C00010B543680A680C469A4207D90548452178
:1015D00002F0F7FB00231846636010BD4A68012043
:1015E0001344F9E7054700017FB50546C06801AA25
:1015F00002F020FD044638B1024645210D4802F0B4
:10160000E0FB204604B070BD01992B6A8B42F8D0F4
:10161000E868029A83689B689847064630B102469C
:101620004521054802F0CDFB3446EAE7019B2B62D9
:10163000E7E700BF2A47000150470001F8B581687D
:10164000054600293CD0D0E9043601391E44314416
:10165000FFF7CAFF041E07DA3346224645212A480F
:1016600002F0AFFB2046F8BDE86802F0B7FBAC68BB
:10167000B4FBF0F300FB13445CB1041BE86883681F
:10168000DB6898472F68AB6801792246F81802F0AA
:1016900029FCAB68E8682A68234481684C683146B5
:1016A000A047044620B10246334645211748D7E7F4
:1016B000EB695BB92B69AA6813442B610023AB600B
:1016C0000024CFE7135DDB4313550134AB682A6870
:1016D0009C42F7D3E86881680C683146A04704460D
:1016E00028B1452102460A4802F06BFBBAE73246B0
:1016F000EB69A9682868984704460028DAD00246B2
:1017000045210448F0E700BF71470001A4470001EC
:10171000CD470001E84700012DE9F7430D46DDE91B
:101720000A8691461F46044680B179B172B1009392
:1017300000230846019302F051FBB7FBF0F303FBD3
:10174000107040B14521194802F03BFB6FF00D00CD
:1017500003B0BDE8F0836A462846154902F06EFCE6
:10176000019B002BF2D008EB0602934202D24521E6
:101770001048E9E7284602F031FBB8FBF0F303FB21
:1017800010800028F3D1C4E90097E5602061A060D3
:10179000C4F8148016B9019EA6EB08060C9B002025
:1017A000E3614FF0FF33A6612362D1E701480001F6
:1017B000C11500013D480001014910220A6070472F
:1017C00010ED00E072B6494081F3118801B5FFF7D2
:1017D000B7FE002806D0BFF34F8F20BF00BF00BF69
:1017E00000BF00BFBDE8014080F3118862B67047BA
:1017F00037B505460C46C9B18B6810480093D1E94E
:101800000023452102F0DDFA636945210093D4E904
:1018100003230B4802F0D5FA4521E269094802F09A
:10182000D0FA4521A269084802F0CBFA21462846A1
:1018300003B0BDE8304001F069BD00BF634800015E
:1018400097480001CB480001DF48000140B2002862
:1018500007DB01234109034A00F01F00834042F8DF
:101860002130704700E100E0054B420953F8222087
:10187000012300F01F0003FA00F01040704700BF82
:1018800000E100E00131072908B508D90D490E48EB
:101890005B2202F088FA5B210A4802F07DFA40B22E
:1018A0000028ACBF00F16040084B4FEA4111C9B2BB
:1018B000ABBF00F5614000F00F0080F80013195431
:1018C00008BD00BF12490001C046000114ED00E050
:1018D00030BFFFF7FDBF00BF08B5084B084A23F033
:1018E0007F039360BFF34F8FBFF36F8F01F096FDBF
:1018F00001F0D8FD00F06CFA01F09CFD0000000141
:1019000000ED00E01EF0040F0CBFEFF30880EFF3D2
:101910000980816911F8021C0229FFD001B502F08B
:10192000A7FA01BD0446084611461A46002383F370
:101930000B880A4B2025A3F5806686F30B8883F37A
:10194000098863B64FF0000383F31188BFF36F8FEC
:10195000A04785F31188BFF36F8FFEE7580D002174
:1019600001B5EFF30580A0F110004FEAC000044973
:10197000014409C99847BDE80140024908470000F1
:101980008442000189190001704700BF10B5244C42
:101990004521244802F015FAA36A99013ED5224850
:1019A000452102F00EFA1E20A36ADA0104D51F4871
:1019B000452102F006FA1F20194CA36ADB0204D568
:1019C0001B48452102F0FDF90220A36A1C0304D53F
:1019D0001848452102F0F5F92120114CA36A59035A
:1019E00004D51548452102F0ECF92220A36A9A0398
:1019F00004D51248452102F0E4F92320084CA36ADB
:101A0000DB0304D50E48452102F0DBF92420A36A4C
:101A10006FEA03436FEA1343A36210BD1D20C3E7BF
:101A200000ED00E048490001654900017D490001E1
:101A30009C490001CB490001EE490001184A000110
:101A4000374A000170B5244C06460D46234845210F
:101A500002F0B7F9A36AD9043BD52148452102F029
:101A6000B0F91720A36A1A0504D51E48452102F0D3
:101A7000A8F91820184CA36A9B0511D545211A48CE
:101A800002F09FF9A26BA36A190408D545211748F3
:101A900002F097F91EB1A36A23F40043A362192050
:101AA0000D4CA36A5A0504D51148452102F089F965
:101AB0001A20A36ADB0504D50E48452102F081F9FE
:101AC0001B20054A936A43F47F43936200232B70E3
:101AD00070BD1620C6E700BF00ED00E0674A0001B8
:101AE000824A0001984A0001B04A0001CE4A000132
:101AF000E84A0001084B000170B52A4C06460D4625
:101B00002948452102F05DF9A36AD80640D5274847
:101B1000452102F056F91120A36A190704D524487B
:101B2000452102F04EF912201E4CA36A9A0711D5E6
:101B30004521204802F045F9626BA36A1B0608D5CF
:101B400045211D4802F03DF91EB1A36A23F0800330
:101B5000A3621320134CA36ADE0704D5174845215E
:101B600002F02FF91420A36AD90602D4A36A9A07B7
:101B700010D50C4B9B6ADB060CD51149114840F27D
:101B8000611202F010F940F261110D4802F004F9FF
:101B90001020C1E7034A936A43F0FF0393620023D6
:101BA0002B7070BD00ED00E0254B0001404B0001A3
:101BB000984A0001784B0001954B0001B04B0001A1
:101BC000D44B0001C046000170B5694B054658680A
:101BD00000268AB0C0F3080386F31188BFF36F8F25
:101BE00002F07F44B4F17F4F07D102F00C04082CBF
:101BF0000ED145215F4802F0E4F85F4940F23E42D1
:101C00005E4802F0D0F840F23E415B4802F0C4F872
:101C100014074CBF0D460126002DEED00024DA1E1D
:101C20008DF80740092A00F29280DFE802F005856E
:101C3000897090909090908D4521514802F0C1F8A4
:101C40008DF807404A4CE36A9A0705D545214D486F
:101C500002F0B7F8002429E0E36A002B02DA4521FC
:101C60004948F5E7E36A5B005DD54521474802F046
:101C7000A8F86369AA6943F480736361BFF34F8F67
:101C8000BFF36F8F636932F8022C23F480736361B2
:101C9000BFF34F8FBFF36F8F4DF602739A421ED181
:101CA00045212A683A4802F08CF82C689DF80730E4
:101CB0009BB92022294602A802F009F9099B002EAF
:101CC00051D0C3F3080222B96FEA53236FEA4323CA
:101CD0000993204602A9FFF78BFD0AB070BDA36AE5
:101CE000DBB233B101200DF10701FFF705FF044618
:101CF000DCE7A36A13F47F4F05D001200DF1070143
:101D0000FFF7A0FEF3E7A36AB3F5803F02D3FFF726
:101D10003DFEECE718494FF44472184802F043F8CE
:101D20004FF4447171E714494FF44572134802F0BF
:101D30003AF84FF4457168E700200DF10701D4E748
:101D400000200DF10701DBE74521124880E7124929
:101D500010F4F87F114A124808BF0A46103B45218B
:101D600002F02FF876E723F4FF7323F00103AFE7C7
:101D700000ED00E03C4C0001D44B0001C0460001E6
:101D80006C4C0001884C0001AE4C0001C14C0001BC
:101D9000E54C0001064D00010E4C0001234C0001F2
:101DA0002F4D0001044B5A6942F010025A615A69E2
:101DB00042F480625A61704700ED00E0EFF3088062
:101DC000EFF3098101B57246FFF7FEFE01BD00BFCA
:101DD000002320210348C21801331E2B82F8001370
:101DE000F9D1704700E100E0002080F31488BFF3D0
:101DF0006F8F002080F30A8880F30B88FFF7DEFBEB
:101E000000200E490860BFF34F8F0D4880F308880B
:101E100000F03EF8202080F311880A484FF400615A
:101E2000401880F30988EFF314800221084380F3FF
:101E30001488BFF36F8FFFF74FFD000094ED00E0B3
:101E4000580D002158010021BFF34F8F0549064B63
:101E5000CA6802F4E0621343CB60BFF34F8F00BF48
:101E6000FDE700BF00ED00E00400FA05002318467E
:101E70000649D1F89020C2F30722934200DB704755
:101E8000C1F89830C1F8A0000133F6E700ED00E09A
:101E900010B572B6002484F31388FFF7E7FF2346DA
:101EA0004FF0FF300C4A03F120010133102B42F8B0
:101EB0002100F8D100234FF0FF30074A03F1600101
:101EC0000133102B42F82100F8D162B6BFF34F8FD7
:101ED000BFF36F8F10BD00BF00E100E0402373B57A
:101EE0000B4C0093041B0B460D460A49A41061439A
:101EF0000646094A094802F011F8011E05DA304683
:101F00002B4602B0BDE87040184702B070BD00BF5C
:101F1000D8000021B76DDBB68D3F000154420001AF
:101F2000C9B2012908B508D9084909487A2201F03F
:101F30003AFF7A21054801F02FFF0C22036901FBCB
:101F40000233186C00F0070008BD00BF474D0001C8
:101F5000C046000170B5C9B2012903690AD9184900
:101F6000184840F25D1201F01EFF40F25D11144866
:101F700001F012FF4FF02004EFF3118584F3128873
:101F8000BFF36F8F0C2606FB0134246C14F0C004E1
:101F900008D0A24206D085F31188BFF36F8F4FF0AF
:101FA000FF3070BD012271430B441A6485F3118820
:101FB000BFF36F8F43680B445B6898470020F0E7DE
:101FC000474D0001C0460001084B70B5C31A0D46CD
:101FD00007499B100446594340220648FFF7BAFFC1
:101FE0002B4601462046BDE870401847D800002126
:101FF000B76DDBB65442000170B5002201210446E2
:102000000520FFF73FFC0F4801F00AF80E4B9842FD
:1020100015D101F027F826690C49304601F03BFE46
:1020200000280BDB012535642469084904F11C00F4
:1020300001F031FE002801DB0020E56470BD6FF087
:102040000400FBE7852000010000AD0B2C440001DB
:1020500001460C2300224B4370B50848C418403396
:102060001844D4E90E56A26301F045FF2DB1324663
:102070002B46BDE870400248184770BDD8000021CB
:1020800054420001012808B506D0032808D090B9B1
:102090000E4B1B6C5B0717D1BDE80840FFF7D8BF9C
:1020A0000B4940F26E220B4801F07DFE40F26E219A
:1020B000074801F071FE064940F27222054801F01E
:1020C00072FE40F27221F3E708BD00BFD800002184
:1020D000474D0001C046000108B54FF02003EFF363
:1020E000118183F31288BFF36F8F114A136843F095
:1020F00002001060DA0708D481F31188BFF36F8FF4
:10210000BDE80840012000F0D3BF0A4BD3F80C24EF
:10211000D3F80C34D307EFD5074801F0ECFE81F378
:102120001188BFF36F8FBDE808400020FFF790BF14
:1021300028010021005000411801002110B54FF086
:102140002003EFF3118483F31288BFF36F8F074AE4
:10215000136823F00201DB07116002D4012001F0B3
:1021600003F884F31188BFF36F8F10BD280100219D
:102170002DE9F843012206463E49D1E8EF3FC1E888
:10218000E02F0028F9D19BB93B493C484B60CB601C
:102190008A60FEF78BFD00280ADA39494FF40C7289
:1021A000384801F000FE4FF40C71354801F0F4FDA1
:1021B0006EB3731E012B53D8012E06D1324BD3F8C8
:1021C0001C3403F00303022B21D002F020F8054653
:1021D000F8B92E4B1B78E3B1022207462A4BC3F80D
:1021E00008234FF00008284CDFF8A490D4F81834E6
:1021F000D4F81824D20316D503F00303022B01D020
:10220000012E10D13DB387F31188BFF36F8FBDE866
:10221000F8834FF02003EFF3118783F31288BFF3A5
:102220006F8F0125DDE73846FFF7CCFAD4F8183573
:10223000DBB2012BDAD1D4F80421002AD6D0C4F8BD
:102240000481D4F804210222C4F818252022C9F8F8
:102250008021A360CAE702220B4BC3F80423D6E710
:10226000074940F24222074801F09DFD40F2422119
:102270009BE700BFD4000021C4000021F40000212E
:10228000474D0001C04600010050004152010021AD
:1022900000E100E0024B0B6001231360704700BFB8
:1022A0002C010021004870478044000110B501F066
:1022B0009CFF034C206001F095FF6060002010BD82
:1022C0002C01002170B50C46154601F08BFF294604
:1022D0000646204601F06CFE10B3B4FBF6F306FB95
:1022E000134323B9B5FBF6F306FB135343B12B4657
:1022F000224645210D4801F064FD6FF0150002E013
:10230000AE4201D9002070BD01F06CFF064604F119
:102310008074204600F082FFAD1B3444F9D1F1E710
:102320002B46224645210248E5E700BFAD4D00019E
:10233000D14D0001F8B50C461946204616461D46FB
:1023400001F036FE50B104F180772C4314F0030401
:102350000DD02B463A4645210E4803E02B46224637
:1023600045210D4801F02DFD6FF01500F8BD4DB170
:102370002B19032BA7EB040006D8084AD2F8003427
:10238000DB07FBD50020F1E7331B196800F076FF6F
:10239000043CEDE7F34D0001D14D00010000084180
:1023A00070B50D461946284616461C4601F000FE3B
:1023B00040B12CB12246304605F1807101F087FD15
:1023C000002007E0044823462A46452101F0F9FC95
:1023D0006FF0150070BD00BFD14D00010D4B1868A6
:1023E000010A0006BFF35F8F0B4BD3F804351818B2
:1023F00041F10001B3F5801F0AD2084BD3E9002355
:10240000904271EB030303D210F1807041F100019F
:10241000704700BF3C0100210060014128000021FD
:102420002DE9F7432E4BD3F8042390070BD5D3F8AF
:10243000042142B10022C3F804212A4AD3F804310E
:10244000136801331360264AD2F80433D90327D521
:10245000254BD3E8EF1F21F00100C3E8E40F002C67
:10246000F7D1CB0702D4D2F84031CBB100251C4CB8
:10247000C4F84051D4F84031FFF7B0FF4FF02003CB
:10248000EFF3118283F31288BFF36F8F174BD3E9F9
:102490000267B042B94106D282F31188BFF36F8F51
:1024A00003B0BDE8F0834FF0FF38D3E900104FF0E0
:1024B000FF391D60C3E902894FF48033C4F8483303
:1024C000C4F84051D4F8403182F31188BFF36F8FC4
:1024D0000029E5D0009032463B4628468847DFE792
:1024E000006001413C010021340100211000002165
:1024F0002DE9F74F4FF0010808FA00F81446064698
:102500001D466FEA0802DFF830A1DAE8EF3F03EA80
:102510000201CAE8E01F0028F7D14FF48037DFF846
:102520001C91B740C9F80873BFF35F8FBFF36F8F7B
:1025300008EA03030093FFF751FFA04271EB050384
:102540004BD23F4B201A65EB0101984271F100011B
:1025500056D23C4B03EB0613D3E902239D4208BF3E
:10256000944243D04FF0000B24F07F4EF4460320FA
:1025700006F150039B009BB203F1824303F5B03395
:10258000C9F84873C3F800B01A6806F5A87201923A
:1025900001992CF07F4249F821206FF00202C9F81E
:1025A0004473D9F80415521A6244DFF89CC022F033
:1025B0007F4262451AD91A685AB1D9F80415A1EBBD
:1025C0000E0222F07F42B2F5000F0FD9C3F800B01F
:1025D0001A6800EB010C0130DAE71C4BD3E8EF1F5F
:1025E00041EA0801C3E8E21F002AF7D1154918485B
:1025F0003301C850002301EB0612C2E902455360C3
:10260000009BABB1DAE8EF3F43EA0803CAE8E23FD8
:10261000002AF7D1094BC3F804730C4BD3E8AF3F42
:10262000F340DB0742BF4FF480020A4BC3F800219E
:1026300003B0BDE8F08F00BF380100210060014108
:102640000100800010000021FDFF7F003401002107
:10265000D926000100E100E070B54FF0FF30002501
:102660004FF0FF31174C184B0226C4F80833C4F85A
:102670004833164BC4F80855C3E902014FF48033C0
:102680004FF48002C4F80433114B0121C4F80463F1
:102690001620C3F880212A46FFF7F4F81620FFF72A
:1026A000D5F801230B4AA3602846236013604FF43A
:1026B00080720023FFF71CFF3046FFF759FD2846C4
:1026C00070BD00BF0060014103000F001000002139
:1026D00000E100E038010021F8B5144922F07F45FF
:1026E000D1E90063921B140A22F0FF02921943F110
:1026F0000003C1E90023A5F50011B1F5400F0AD28E
:102700000B4909684FEA112C09064E1909494CF189
:102710000007C1E9006712F5807243F10003FFF77B
:10272000E7FE2046BDE8F84000F01CBF2000002175
:102730003C0100212800002130B5024600240B494D
:102740000B4D0B6805EB0310D0F80808C0B218B9A0
:1027500004B10B60002007E00133072B4FF00104A8
:10276000F0D96FF01B000B60136030BD40010021F9
:1027700000000841F7B5434D0646D5F820320C4617
:10278000B3F5006F174608D03F494048212201F0B9
:102790000AFB21213C4801F0FFFA01A8FFF7CCFF1A
:1027A000002867D1D5F82022B6FBF2F302FB1363B1
:1027B000002B61D1D5F82022B4FBF2F302FB1343C6
:1027C000002B59D1D5F82022D5F824325343A34207
:1027D00052D3002C50D0019B072B07D92C497722CC
:1027E0002A4801F0E0FA77212948D4E7D5F82012E9
:1027F000B6FBF1F201FB126232B12549782223487F
:1028000001F0D1FA7821EFE7D5F82022D5F824128B
:102810004A43944206D91E4979221C4801F0C3FA62
:102820007921E1E7D5F82012B4FBF1F201FB124265
:1028300032B117497B22154801F0B5FA7B21D3E765
:102840001B0103F1824101F50021C1F80068C1F8C4
:102850000448C1F80878D1F8002896420FD1D1F881
:10286000042894420BD1D1F80838DBB29F4218BF3C
:102870006FF00D0003B0F0BD6FF01500FAE76FF0D8
:102880000D00F7E70000FF013A4E0001C0460001CD
:10289000664E00010348452108B501F092FA002078
:1028A000FFF7D2FA984E000138B5044681692948ED
:1028B00001F094F94FF0FF32274BC3F80823BFF320
:1028C0006F8F72B60023254903F120000133102BCE
:1028D00041F82020F8D100234FF0FF301F4A03F1C8
:1028E00060010133102B42F82100F8D14FF0E023B2
:1028F00000221A61D3F8042D03F5506342F00072F0
:102900005A605A6A22F4E0225A62EFF31482920764
:1029100007D5EFF3148222F0020282F31488BFF38A
:102920006F8FBFF34F8FBFF36F8FA26901219A6042
:102930002046A56900F02AFA58B1002383F30B88DA
:1029400083F30A882A6882F3088883F309886B680E
:10295000984738BDBA4E00010050004100E100E048
:102960001FB50446074A01AB07CA83E807000C22DB
:102970001946204601F09BFA00280CBF2046002093
:1029800004B010BDDC43000170B505460024054EBF
:1029900056F8040B2844FFF7E3FF10B90134052C67
:1029A000F6D170BD884400012DE9F04F814687B013
:1029B00010460E4614461D46D768D2F81080FFF721
:1029C000CFFF38B915B96D4801F008F9002007B0FC
:1029D000BDE8F08FA069484503D0002DF6D16848C6
:1029E000F2E71DB9B0423DD06648EDE73046FFF74B
:1029F000CBFF8442EAD1226A634B9A42E6D1E319C3
:102A00002CBF012700270DF10A0018EB060A2CBF86
:102A10004FF0010B4FF0000B019301F06CFB0146EE
:102A2000002840D065BB594801F0D8F8584801F05B
:102A3000D5F8ADF80A50002F4BD1BBF1000F48D1AB
:102A4000B44246D3544544D2019B5F1EBE423DD89A
:102A5000BA453BD918EB0908E3693CD3002DB5D141
:102A60004C48B1E7FFF790FF844201D04A48ABE7FA
:102A7000216A454B9942C2D0484801F0AFF8A5E71A
:102A80000022ADF80A20002FA0D1BBF1000F9DD18C
:102A9000B4429BD3544599D2019B5F1EBE4295D848
:102AA000BA45D7D892E76169BDF80A20914205D2AC
:102AB000002D8BD13A4801F091F887E737B9BBF187
:102AC000000F03D1B44201D35445BDD3002D7FF490
:102AD0007DAF344878E74B45C0D34345BED2321D65
:102AE000A2EB0902D358994504D9002D7FF46EAFAB
:102AF0002D4869E79845F8D92769DFF8B090374441
:102B000007F1050A0DF10C0899E8070088E80700AD
:102B10000C224146384601F0CAF900B93FB90137E5
:102B2000BA45F1D1002D7FF451AF21484CE7FA6846
:102B3000A3699A4209D1246901F0BAFA014648B161
:102B4000002D7FF443AF1B4897E7002D7FF43EAF85
:102B5000194839E72146304607F1100201F0AFFA73
:102B6000014620B1002D7FF431AF144885E715B937
:102B7000134801F033F8012029E700BFCC4E0001D3
:102B8000EC4E00011F4F0001FFFF02919C4F00011E
:102B9000C34F0001735000014C4F0001754F0001FD
:102BA00006500001465000019F500001E84300011B
:102BB000CC50000130510001FD5000015051000186
:102BC0007C51000114222DE9F041144B144DD3F82F
:102BD000B035074602FB0355284600F07DFB01286F
:102BE00003D000242046BDE8F0814FF000082C1DE2
:102BF000AE1C304600F070FB4045F2D9A01C00F03E
:102C00006BFB0546204600F067FBB842EAD0023570
:102C100004EB450408F10108EBE700BF0080000168
:102C2000B4850001014BD3F8A8057047008000016E
:102C30004FF00053014A1A60704700BF15FCBA25D7
:102C40004FF000531868054B984205D0044B98424A
:102C50000CBF01200220704700207047B6B3B4B506
:102C60005DCE03F130B54FF00055184B2A68014690
:102C70009A42ADF50F7D26D10023CDE90133EB68F3
:102C80000EAA009305A84FF40073FEF745FD044615
:102C900040B1452102460E4801F093F820460DF55B
:102CA0000F7D30BD0123D5E9011205A801F09CF884
:102CB000044618B1024645210648EDE74921064879
:102CC00001F07FF8EAE76FF00D04E7E7B6B3B4B5BB
:102CD00096510001B8510001E25100014FF000533C
:102CE000014A1A60704700BF5DCE03F12DE9F04341
:102CF000224885B001F051FA002504461F4B204EB2
:102D0000D3F83880DFF87C90A84503D8002005B0C0
:102D1000BDE8F083636A96E807001F6801AB83E8AB
:102D200007000C221946384601F0C1F888B987B16E
:102D3000636A21691B681A6991420AD19A69A1697B
:102D4000914206D8E169914203D962695B699A436D
:102D50000AD0276A67B10C4800F040FF404080F37A
:102D600011884FF0040002DFE36801351C44CBE713
:102D7000484600F033FF636A1F60F5E70002000178
:102D8000F443000122520001F95100012DE9F04FF6
:102D90000F46064687B0A0B301F0FFF94FF00008D8
:102DA0000446B36B43454ED94FF00009DFF8ACB091
:102DB0004FF0000A5BF8043B0093294B53F8045B87
:102DC0000193009B1D44274B93E8070003AB83E866
:102DD000070019460C22284601F069F8019B00B94A
:102DE0009DB90AF1010ABAF1050FE7D11E4B09F1AD
:102DF00001099945DCD317B10022636A1A60236A7E
:102E000033B3002007B0BDE8F08F2B6A174A934216
:102E1000ECD1AE42EAD0696B05F13C038842E5D0C3
:102E200025691A6995420AD19A69A569954206D819
:102E3000E569954203D962695D69AA4305D0DA68FC
:102E400001301344EAE70120DCE70FB1626A136046
:102E5000E36808F101081C44A3E700BF3C540001EB
:102E60009C4400010044000101000000FFFF0291AA
:102E70000022D30003F1FF7303F58033D3F800136E
:102E8000013107D0D3F800130132D3F80433202ADC
:102E90000B60EED1224BD3E94C32072B26D1023AFC
:102EA000032A204B28D9D3F80024D10732D41C4B55
:102EB000D3F83021072A19D1D3F83431023B032B40
:102EC00002D8194AD35C8BB17F23184A1849C2F83B
:102ED00018310023C1F8043EC1F8083EC2F824317D
:102EE000C2F82C3102F57F22C2F81031114B1A685A
:102EF000114BC3F84425704710498A5C002AD2D090
:102F0000D3F80024D207CED50022C3F81421C3F889
:102F10001821C8E76FF00102C3F80024C7E700BF1B
:102F20000000FF0100500041555200010020004107
:102F3000000008410080FF0100600041595200017B
:102F4000F7B5334B044650B1012825D031493248FA
:102F5000D82200F028FFD8212E4800F01DFF0222C1
:102F6000C3F80823C3F80401D3F80421012207465B
:102F7000DA60012342F21075254E8DF80730B4B1A6
:102F8000012C32D02549244840F2473200F00BFF93
:102F900040F247312148E0E70022C3F80803C3F8B4
:102FA0000021D3F800210DF107075860E1E78FB148
:102FB000D6F8183403F003033B70D6F81834DA035C
:102FC00011D59DF8070001280DD101F0F2F8013D5F
:102FD000D5D108E0D6F81834D90304D5012001F082
:102FE000E8F8013DF6D103B0F0BD3FB1D6F80C349E
:102FF00003F001033B70D6F80C34E0E7D6F80C344C
:10300000DB03F0D5012001F0D4F8013DF6D1EAE769
:10301000005000415D520001C04600019A5200017B
:1030200008B550B90A490B4840F2151200F0BBFE32
:1030300040F21511064800F0AFFE074B1A7922B98D
:103040000122186005481A7108BD0548FCE700BF59
:103050005D520001C0460001440100210000AD0B9B
:103060000C00AD0B08B50E4B1B7953B90D490E483A
:103070004FF4977200F097FE4FF49771094800F0F3
:103080008BFE0520FEF7F0FB10B90520FEF7DEFBF6
:103090000122064BC3F81825C3F8142508BD00BF4C
:1030A000440100215D520001C04600010050004172
:1030B00008B5294B1B7953B928494FF4B4722848F5
:1030C00000F071FE4FF4B471244800F065FE254B0A
:1030D00050B1012836D021494FF4D372204800F076
:1030E00062FE4FF4D371EFE7D3F81824D3F8181425
:1030F000C90311D502F00303022B1CD1194AC2F8EF
:1031000018350023C2F80431D2F804310223C2F882
:103110000433012393600DE0D3F81424D2070FD5B4
:10312000D3F81C2402F00302013A012A05D8022236
:10313000C3F8042308BD012B02D00020FFF700FFD5
:103140000123DBE70022C3F80021D3F80021C3F8F4
:1031500004031860EEE700BF440100215D52000146
:10316000C04600010050004108B5094B1B7953B916
:103170000849094840F2AD1200F015FE40F2AD11C9
:10318000044800F009FEBDE80840FFF7D9BE00BFC3
:10319000440100215D520001C046000110B5174BEB
:1031A000D3F8002152B10020C3F80001D3F8002168
:1031B0000122C3F80823124B1B6898470F4BD3F822
:1031C00004218AB10022C3F80421D3F80421D3F8E2
:1031D0001824D3F8181402F00302012A4FF0020158
:1031E00003D1C3F818159A6010BDC3F80813044B37
:1031F0000120BDE810401B68184700BF0050004187
:1032000044010021044AD2F80034DB07FBD50160F9
:10321000BFF35F8F704700BF0000084108B500F1A1
:103220007F43B3F5802F04D2C0F30A0363B10E4885
:1032300019E00E490E4840F2071200F0B4FD40F2CA
:1032400007110A4800F0A8FD02220A4BC3F8042522
:103250004FF0FF320260D3F80024D207FBD50022E2
:103260000548C3F8042508BD0A00AD0BD95200017A
:10327000C0460001000008410000AD0BF8B50D4646
:103280000121044600F097FF50B9104940F2951211
:103290000F4800F088FD40F295110C4800F07CFDCD
:1032A00014F0030708D009494FF4CB72084800F026
:1032B0007AFD4FF4CB71F0E7064E2046C6F80415B0
:1032C0002946FFF79FFFC6F80475F8BDD9520001E3
:1032D000C046000100000841C10708B50AD50949E8
:1032E00009484FF4F67200F05EFD4FF4F6710548A0
:1032F00000F052FD20F003031B6882070CBF98B258
:10330000180C08BDD9520001C046000173B504462F
:103310000D464FF02003EFF3118683F31288BFF3BD
:103320006F8F0022042896BF164B174B53F820309E
:10333000009245210246154800F043FD3DB1EB697E
:10334000C3F308031BB14521114800F03AFD0022E8
:103350004521104B104800F034FD29462046FFF768
:1033600099FA042C08D10D490D48932200F01BFD59
:1033700093210A4800F010FD86F31188BFF36F8F88
:1033800002B070BDB0440001155300012353000189
:1033900050530001765300017E5300019B530001FE
:1033A000C0460001104B70B553F82040013053F86F
:1033B0002060A64200D870BDD4E900358DB1284602
:1033C000984738B10028B8BF4042FF28A8BFFF2067
:1033D000EB681870EA68537843F0010353700834BF
:1033E000E7E79847FBE700BFC4440001012208B5A6
:1033F000084B03201A70FFF7D5FF00F01BF90420DB
:10340000FFF7D0FFFDF74AFA034A137B23F00103CD
:10341000137308BD520100213000002108B5034894
:10342000034A0021121A00F0EEFE08BD1000002130
:103430005401002108B50020FFF7B4FF164B03F537
:10344000006282F3088883F30A880025E023134C86
:1034500084F82230E57725766576A57684F82050C5
:10346000636A43F4E023636284F82350FEF79AFC16
:10347000FEF7A2F94FF0FF33A362E36200F0B7FE5C
:103480000120FFF78FFF0220FFF78CFF2B462A4613
:1034900029460348FEF746FA5801002100ED00E0F6
:1034A000ED33000108B50648064A0749121A00F034
:1034B000ACFEBDE80840054A0549064800F0A5BE37
:1034C0000000002110000021405400010000000015
:1034D0004054000100000021034B1B680BB900F0B1
:1034E000DABD0020704700BF4C01002110B50E4B23
:1034F0001C689C4204D1FFF7EFFF6FF0004010BD45
:10350000FFF7EAFF002CF8D0D4E904321B1A62EB73
:10351000E072B3F1004F72F10001EEDA002AACBFA5
:1035200018460020EBE700BF0400002130B570B161
:103530000B4B5B6898420AD0036843B1D3E904217E
:10354000D0E90445121941EB0501C3E90421D0E992
:10355000003213605A600023C0E9003330BD00BF61
:10356000040000212DE9F84F4FF02003EFF3118CF8
:1035700083F31288BFF36F8FDFF8ACA0DFF8AC9055
:103580000024C9F80000DAF800000025504508BF03
:103590000020274FE046D7E90021D9F8003080B35A
:1035A000D0E9046C4FEAE37EB3427EEB0C0B05DA04
:1035B000F61A6CEB0E04C0E9046422E0B21841EB89
:1035C000E671C0E90445C7E90021FFF7AFFF88F3C2
:1035D0001188BFF36F8F836898474FF02003EFF394
:1035E000118883F31288BFF36F8FD9F80030DAF8AF
:1035F00000009B1B5045C446C9F80030CAD1D7E92A
:10360000002100249A1841EBE373C7E90023C9F8AD
:103610000040FFF76BFF214600F03CFD88F3118866
:10362000BFF36F8FBDE8F88F040000214C0100212B
:10363000A8000021014800F0D1BA00BF0A540001DF
:103640003F2A2DE9F041904652D905460C46A2F199
:10365000400626F03F064036274F0E44236840348C
:103660001BBA2B6454F83C3C39461BBA6B6454F8C3
:10367000383C28461BBAAB6454F8343C1BBAEB64A4
:1036800054F8303C1BBA2B6554F82C3C1BBA6B65C4
:1036900054F8283C1BBAAB6554F8243C1BBAEB65C4
:1036A00054F8203C1BBA2B6654F81C3C1BBA6B66C2
:1036B00054F8183C1BBAAB6654F8143C1BBAEB66C2
:1036C00054F8103C1BBA2B6754F80C3C1BBA6B67C0
:1036D00054F8083C1BBAAB6754F8043C1BBAEB67C0
:1036E000FCF7F4FDB442B9D108F03F00BDE8F08129
:1036F0001046BDE8F08100BFDC4400010A4610B569
:1037000014681A4924BA0464546824BA4464946856
:1037100024BA8464D46824BAC464146924BA0465DD
:10372000546924BA4465946924BA8465D46924BA76
:10373000C465146A24BA0466546A24BA4466946A56
:1037400024BA8466D46A24BAC466146B24BA0467A3
:10375000546B24BA4467946B24BA8467D26B12BA50
:10376000C267FCF7B3FD002010BD00BFDC440001C0
:103770002DE9F0410027B54CB54BB2B0CDE900437F
:10378000B44BB54E0293B54B1446CDE90363B44B2D
:1037900005460593B34B3097069303F17453A3F595
:1037A0002303A3F6924331920793002A40F08480CA
:1037B00080224FF03A0C01236E460DEB02078DF884
:1037C000802000204FEA9C0203F1800E012A06EBC4
:1037D0000E0146F80E0024D0022A486021D0032AA8
:1037E00088601ED0042AC8601BD0052A086118D042
:1037F000062A486115D0072A886112D0082AC861B4
:103800000FD0092A08620CD00A2A486209D00B2A74
:10381000886206D00C2AC86203D00E2A086308BF4B
:1038200048631CF0030F16D02CF0030C63440021F6
:1038300003F1C8026A443A2B02F8481C0BD003F18A
:10384000C9026A44392B02F8481C04D0CA330DEB74
:10385000030202F8481C0023620F62F30703620DA3
:1038600062F30F23620B62F317436209394662F376
:103870001F633046E400CDF8BB308DF8BF40FFF742
:103880003DFFDDE90001DDE9022306BA14BA18BAEA
:1038900009BADDE9042312BA69602A6119BADDE9BF
:1038A000062312BA1BBA2E60AC60E8606961AA6197
:1038B000EB6132B0BDE8F0816E4630468846FFF7D6
:1038C000BFFE241A08EB0403002800F0F580421E16
:1038D000022A53D958F8042020928208012A00F0C5
:1038E000E6805968022A219100F0BE809968032A77
:1038F000229100F0E780D968042A239100F0E78044
:103900001969052A249100F0E7805969062A259152
:1039100000F0E7809969072A269100F0E780D969CD
:10392000082A279100F0E780196A092A289100F0F7
:10393000ED80596A0A2A299100F0B180996A0B2A10
:103940002A9100F0F480D96A0C2A2B9100F00381AF
:10395000196B0D2A2C9100F00981596B0E2A2D91BB
:1039600006D00F2A996B18BFDA6B2E9118BF2F92D1
:1039700020F0030782073B4400F0DE80197807F14E
:10398000C8026A4402F8481C7A1C90420FD9591C9C
:103990000978C83202376A44B84202F8481C06D98E
:1039A0009B7807F1C8020DEB020707F8483C80211D
:1039B000431C00F1C8026A44382B309002F8481CBE
:1039C0006AD93F2B2CD80022C8336B443E2803F819
:1039D000482C25D000F1CA030DEB03013D2801F866
:1039E000482C1DD000F1CB036B443C2803F8482C35
:1039F00016D000F1CC036B443B2803F8482C0FD0C1
:103A000000F1CD036B443A2803F8482C08D000F1AC
:103A1000CE036B44382803F8482C01D18DF8BF2021
:103A200020AF39463046FFF769FE3A2803463CD8B6
:103A3000319CC3F13A02022A7FF6F9AE5A1C3B2AA6
:103A4000C3F13B0C88BF4FF0010CBAE667E6096A88
:103A500085AE67BB72F36E3C3AF54FA57F520E51AF
:103A60008C68059BABD9831F082854D008273B449A
:103A700019467A1C11F801CB07F1C8046C44904236
:103A800004F848CC84D8802100F1C8030DEB030270
:103A90003090431C02F8481C319C20AFC9E728280D
:103AA00000F0888028273B44E2E7319CD3E60428D5
:103AB00026D004273B44DBE78022012330908DF899
:103AC0008020E9E70C282CD00C273B44D0E71028B5
:103AD0003BD010273B44CBE7142841D014273B446C
:103AE000C6E7182847D018273B44C1E71C2849D00F
:103AF0001C273B44BCE7202850D020273B44B7E795
:103B00008022052330908DF88420C5E724283FD0FB
:103B100024273B44ACE78022092330908DF888208D
:103B2000BAE780220D2330908DF88C20B4E72C2842
:103B30003AD02C273B449BE7802100F1C8026A441D
:103B40003090431C02F8481C3BE780221123309040
:103B50008DF89020A0E7302832D030273B4487E70B
:103B60008022152330908DF8942095E734282DD0AD
:103B700034273B447CE718218022192330918DF8AB
:103B8000982089E780221D2330908DF89C2083E7C0
:103B90008022252330908DF8A4207DE780222123E8
:103BA00030908DF8A02077E780222D2330908DF87B
:103BB000AC2071E78022292330908DF8A8206BE794
:103BC0008022312330908DF8B02065E780223523A4
:103BD00030908DF8B4205FE7002070470FB407B530
:103BE00004A951F8040B0191FCF7D4FE03B05DF871
:103BF00004EB04B07047038B13F0070305D103688F
:103C0000002B0CBF002003207047022B05D1408BF6
:103C1000B0FA80F0400980007047012B05D103689D
:103C2000002B0CBF0020052070470020704710B506
:103C30000C4600B111B96FF0150010BD081D00F061
:103C40003DF80028F9D1A368032BF6D9F3E72DE955
:103C5000F0410D4607461946281D90461E46FDF7C1
:103C60008DF8044638B13346424629463846A446C4
:103C7000BDE8F0416047BDE8F08110B44FF020048A
:103C8000EFF3118284F31288BFF36F8F416110BC90
:103C90000121FCF78DBE38B50C46054658B151B12F
:103CA0000B6843B14B6833B11C22002100F01AF9B4
:103CB00000202C6138BD6FF01500FBE7034658B1BA
:103CC000426802F00302012A03D0032A04D10268E9
:103CD00012B10020986070476FF0150070472DE911
:103CE000F84F9A46D37880466F2B0F461546A3F1BE
:103CF000410B29D024D8582B0CBF10260A26DDF8FA
:103D000028903246002340463946FCF797FA092AA4
:103D1000D4B21ED83034B045E4B277F1000709F8C8
:103D2000014D01D3D14511D82B789B0605D5082E1E
:103D300015D1AB7843F00803AB704846BDE8F88F67
:103D400003F0F703702BD7E70826D8E780460F4625
:103D5000D7E7BBF1190F94BF37345734DBE7102E88
:103D6000EBD1AB7843F01003E6E72DE9F0410746CD
:103D7000884615461E461446B44205D30EB1601B54
:103D800008E02378002BFAD0414614F8010BB8471D
:103D90000028F1DABDE8F081404080F311884FF04F
:103DA000040002DF70470FB407B504A951F8040BF3
:103DB0000191FCF7EFFD03B05DF804EB04B0704730
:103DC00070470FB407B504A951F8040B0191FCF733
:103DD000E1FD03B05DF804EB04B0704708B58368FB
:103DE000DB689847006808BD2DE9F047894616460C
:103DF0009846044698B38268036913448269334441
:103E0000934230D80025D4E90170A6EB050A3F1A89
:103E1000BA4515D2B54209D223685246184409EB77
:103E2000050100F054F8A3685344A360B8F1000FF3
:103E30001CD0A068A8B12046BDE8F047FDF7FEBB46
:103E400023683A46184409EB050100F040F863681E
:103E50002046A360FDF7F2FB18B93D44D3E76FF0AD
:103E60000D00BDE8F0876FF00B00FAE74046F8E779
:103E700001460068FDF7BCBC00210120FDF7B8BC7D
:103E800008B5FDF725FDBDE80840FDF77DBD0346FB
:103E900000201A5C02B970470130FAE7034600209F
:103EA0001A5C0AB1884200D170470130F8E710B5BA
:103EB0005AB10139841810F8012B11F8013FA042C2
:103EC00001D09A42F7D0D01A10BD1046FCE710B5C9
:103ED000431E0A44914200D110BD11F8014B03F872
:103EE000014FF7E70346C9B20244934200D170473D
:103EF00003F8011BF9E74FF02003EFF3118283F37E
:103F00001288BFF36F8F036803F0C00343F002030E
:103F1000036082F31188BFF36F8F7047F8B5069F77
:103F20000469C9B24FF02005EFF3118685F31288BA
:103F3000BFF36F8F0C2569430C44256C05F0070C0B
:103F4000BCF1010F0BD1276486F31188BFF36F8F8B
:103F5000C4E90E2343685B5898470020F8BD05F07C
:103F6000C005AF4286F31188BFF36F8F0CBF6FF0AF
:103F700077004FF0FF30F1E713B580240094FFF78E
:103F8000CDFF02B010BD6FF08500704710B41C2447
:103F90000069CBB203FB0400002110BC10470020D5
:103FA000FFF786B80020FFF7DFB88022FDF7D2BF09
:103FB00038B505460C4600F012F9002D07DBA84283
:103FC00005D9401B84428CBF0020012038BD002051
:103FD000FCE7F7B51C460023164682682360A36001
:103FE0000D461369694601AA9847019B5A1E019222
:103FF0001BB96FF0150003B0F0BD0098A2684768C8
:104000002168676085B9B31AD0F800C0634528BF3E
:10401000634603FB07111A442160A26002689A42BA
:1040200006D808300090E0E76B1AB3FBF7F3EBE734
:104030000020E0E713460022FFF7CBBF2DE9F04751
:104040000024836886B0884691461B6902AA01A9AC
:104050009847A2462546029BAB4202D806B0BDE86F
:10406000F0870026019F07EBC5077B6804933A6839
:104070000AEB0603B24202D89A460135EBE74946FD
:104080000394059303A8C0470028E7D0049B01369A
:104090001C44ECE770470020704708B5FEF79EF916
:1040A00008BD0222FEF766BB002070470020704763
:1040B00008B5FFF7F9FF08B9FFF7F8FF08BD30B5FD
:1040C00089B0154601230A460146684600F00EF8FD
:1040D000044640B9202269462846FCF7C9F8002862
:1040E00008BF6FF06404204609B030BD08B5FFF783
:1040F0003FFB002008BD13B5044658B101200DF167
:10410000060100F043F818B9BDF806305B082380BB
:1041100002B010BD6FF01500FAE770B5054608460D
:104120000C46FEF731FC2146024601232846BDE835
:104130007040FEF739BC2DE9F8430D461646FEF7F0
:1041400041FD0446F8B1F5B10230FFF7C5F800278C
:104150008146B8460434B94507D8002406B1346016
:104160000020A5F80080BDE8F8832046FFF7B4F8EA
:10417000C3439BB2A21C002BF0D0984538BF984691
:1041800014460137E7E76FF01500ECE70022FFF770
:10419000D2BF4FF000535868704703465A6B002354
:1041A0003C309A4200D17047C16801330844F8E7B7
:1041B000004700F032B8034603F17F42B2F5802F8A
:1041C00008460AD351B103F17E4000F50040B0F536
:1041D000607F2CBF002001207047012070474FF402
:1041E000802070474FF40060704780207047704710
:1041F00040B1C368587810F001001EBF1878B0FABB
:1042000080F040097047FFF76DBEFFF760BEEFF327
:104210000580003818BF0120704708B1FDF7C4B908
:1042200070477047DCC3FF7F0100000019150001D3
:1042300000000000F91F000154420001592600014E
:1042400000000000AD2200016C420001ED2C0001D5
:1042500000000000844D000138440001504400017A
:104260000C000021D80000217A430001164E000105
:10427000000000006C4400010E000021000000005E
:104280007443000100000000793E000100000000BE
:10429000793E000100000000793E000100000000AE
:1042A000793E000100000000793E00019D310001CF
:1042B000B141000100000000793E00010000000053
:1042C000793E000100000000793E0001000000007E
:1042D000793E000100000000793E0001000000006E
:1042E000793E000100000000793E0001000000005E
:1042F000793E000100000000793E0001000000004E
:10430000793E000100000000793E0001000000003D
:10431000793E000100000000793E0001000000002D
:10432000793E000100000000793E0001000000001D
:10433000793E00010000000021240001000000007F
:10434000793E000100000000793E000100000000FD
:10435000793E000100000000793E000100000000ED
:10436000793E000100000000793E000100000000DD
:10437000793E000100800080FF7F00800080FF7F89
:10438000CE5200010000000056480001030000006A
:104390008D460001030000009F4D00010300000056
:1043A000AE4E000103000000304E0001030000008B
:1043B0000754000103000000F55100010300000054
:1043C0000147000103000000FFFFFFFFFFFFFFFFA9
:1043D000DEE61E284CBBCE8F02350000DEE61E282E
:1043E0004CBBCE8F02350000DEE61E28838451864A
:1043F00002350100DEE61E28EAAC45B802350000B1
:10440000DEE61E284CBBCE8F023500000000000007
:104410000338FDD8704700000000000000020000D3
:10442000000400000008000000100000DD1E000174
:10443000C91F000100000000D92000013D2100013A
:10444000934D00019F3F0001A53F0001994D0001E0
:10445000873F0001AB3F0001793F000100000000F1
:10446000211F00010000000000000000A123000146
:1044700035230001C5220001A5220001952200017B
:1044800004000000FF000000000000000002000027
:104490000004000000080000001000000000000000
:1044A00000020000000400000008000000100000EE
:1044B000BD530001CB530001DF530001EE53000157
:1044C000FA5300012C4200012C4200013C42000141
:1044D000444200015442000154420001982F8A4294
:1044E00091443771CFFBC0B5A5DBB5E95BC2563946
:1044F000F111F159A4823F92D55E1CAB98AA07D85E
:10450000015B8312BE853124C37D0C55745DBE7280
:10451000FEB1DE80A706DC9B74F19BC1C1699BE400
:104520008647BEEFC69DC10FCCA10C246F2CE92D90
:10453000AA84744ADCA9B05CDA88F97652513E98B4
:104540006DC631A8C82703B0C77F59BFF30BE0C6BB
:104550004791A7D55163CA0667292914850AB72749
:1045600038211B2EFC6D2C4D130D385354730A65E6
:10457000BB0A6A762EC9C281852C7292A1E8BFA2BD
:104580004B661AA8708B4BC2A3516CC719E892D125
:10459000240699D685350EF470A06A1016C1A419A8
:1045A000086C371E4C774827B5BCB034B30C1C39A7
:1045B0004AAAD84E4FCA9C5BF36F2E68EE828F7466
:1045C0006F63A5781478C8840802C78CFAFFBE9080
:1045D000EB6C50A4F7A3F9BEF27871C6466C617318
:1045E0006820646576696365206E6F74207265610A
:1045F00064790A004661696C656420746F2070728A
:104600006F746563742062306E20666C6173682C11
:104610002063616E63656C20737461727475700AD7
:104620000D00556E61626C6520746F2066696E6462
:104630002076616C6964206669726D7761726520AD
:10464000696E736964652025700A0D004661696CA6
:10465000656420746F207472616E73666572206980
:104660006D6167653A2025640A0D004661696C65D5
:104670006420746F2070726F746563742061707051
:1046800020666C6173683A2025640A0D00636270CD
:1046900072696E74665F7061636B61676500574530
:1046A00053545F544F504449522F7A657068797261
:1046B0002F6C69622F6F732F6F6E6F66662E6300AB
:1046C000415353455254494F4E204641494C204096
:1046D0002025733A25640A00574553545F544F50C0
:1046E0004449522F7A65706879722F6C69622F6F16
:1046F000732F6E6F746966792E6300286E696C295A
:1047000000736F630025633A204275666665722008
:1047100073697A65206973206269676765722074BE
:1047200068616E20706167650A0025633A204572F2
:10473000726F72202564207768696C6520676574E4
:1047400074696E67207061676520696E666F0A0024
:1047500025633A204572726F72202564207768695C
:104760006C652065726173696E6720706167650AA8
:104770000025633A2073747265616D5F666C6173C6
:10478000685F65726173655F7061676520657272ED
:10479000202564206F66667365743D307825303857
:1047A0007A780A0025633A20666C6173685F7772D5
:1047B000697465206572726F72202564206F666669
:1047C0007365743D30782530387A780A0025633A6D
:1047D00020666C6173682072656164206661696C33
:1047E00065643A2025640A0025633A2063616C6C95
:1047F0006261636B206661696C65643A2025640AB6
:104800000025633A204275666665722073697A6591
:10481000206973206E6F7420616C69676E65642017
:10482000746F206D696E696D616C20777269746553
:104830002D626C6F636B2D73697A650A0025633A8C
:1048400020496E636F727265637420706172616D6E
:10485000657465720A0053545245414D5F464C41A0
:1048600053480025633A2072302F61313A202030BE
:104870007825303878202072312F61323A2020306C
:104880007825303878202072322F61333A2020305A
:1048900078253038780A0025633A2072332F613446
:1048A0003A2020307825303878207231322F6970E4
:1048B0003A2020307825303878207231342F6C72CD
:1048C0003A20203078253038780A0025633A2020B5
:1048D000787073723A20203078253038780A0025B5
:1048E000633A204661756C74696E6720696E7374F3
:1048F00072756374696F6E2061646472657373208E
:10490000287231352F7063293A2030782530387875
:104910000A00574553545F544F504449522F7A650B
:10492000706879722F617263682F61726D2F636F87
:1049300072652F616172636833322F6972715F6DC6
:10494000616E6167652E630025633A202A2A2A2A50
:104950002A205553414745204641554C54202A2A88
:104960002A2A2A0A0025633A20202044697669739E
:10497000696F6E206279207A65726F0A0025633A4A
:10498000202020556E616C69676E6564206D656DD1
:104990006F7279206163636573730A0025633A203F
:1049A0002020537461636B206F766572666C6F773D
:1049B0002028636F6E746578742061726561206E63
:1049C0006F742076616C6964290A0025633A20209F
:1049D000204E6F20636F70726F636573736F722008
:1049E000696E737472756374696F6E730A00256300
:1049F0003A202020496C6C6567616C206C6F6164A3
:104A0000206F66204558435F52455455524E2069E9
:104A10006E746F2050430A0025633A202020496CB1
:104A20006C6567616C20757365206F6620746865BE
:104A300020455053520A0025633A202020417474C7
:104A4000656D707420746F2065786563757465207A
:104A5000756E646566696E656420696E73747275DF
:104A60006374696F6E0A0025633A202A2A2A2A2A6B
:104A700020425553204641554C54202A2A2A2A2A9E
:104A80000A0025633A202020537461636B696E67C6
:104A9000206572726F720A0025633A202020556EDD
:104AA000737461636B696E67206572726F720A005E
:104AB00025633A2020205072656369736520646124
:104AC000746120627573206572726F720A002563CB
:104AD0003A2020204246415220416464726573733B
:104AE0003A20307825780A0025633A202020496D45
:104AF00070726563697365206461746120627573A7
:104B0000206572726F720A0025633A202020496E78
:104B1000737472756374696F6E2062757320657249
:104B2000726F720A0025633A202A2A2A2A2A204D07
:104B30005055204641554C54202A2A2A2A2A0A0038
:104B400025633A202020537461636B696E6720658A
:104B500072726F722028636F6E7465787420617250
:104B60006561206D69676874206265206E6F7420CE
:104B700076616C6964290A0025633A20202044612B
:104B80007461204163636573732056696F6C61744F
:104B9000696F6E0A0025633A2020204D4D46415230
:104BA00020416464726573733A20307825780A0076
:104BB00025633A202020496E737472756374696F9F
:104BC0006E204163636573732056696F6C6174690D
:104BD0006F6E0A00574553545F544F504449522F4B
:104BE0007A65706879722F617263682F61726D2FB8
:104BF000636F72652F616172636833322F636F7206
:104C00007465785F6D2F6661756C742E63005265F4
:104C100073657276656420457863657074696F6E3C
:104C200020280053707572696F757320696E746502
:104C300072727570742028495251200025633A2001
:104C4000535053454C20696E20746872656164202E
:104C50006D6F646520646F6573206E6F7420696E7C
:104C6000646963617465205053500A0025633A20DB
:104C70002A2A2A2A2A2048415244204641554C5487
:104C8000202A2A2A2A2A0A0025633A20202042754F
:104C900073206661756C74206F6E20766563746F27
:104CA00072207461626C6520726561640A0025631C
:104CB0003A2020204465627567206576656E740A27
:104CC0000025633A2020204661756C74206573636B
:104CD000616C6174696F6E20287365652062656C14
:104CE0006F77290A0025633A20415243485F4558AF
:104CF00043455054207769746820726561736F6E04
:104D00002025780A0A0025633A202A2A2A2A2A20FE
:104D10004465627567206D6F6E69746F7220657887
:104D200063657074696F6E202A2A2A2A2A0A002570
:104D3000633A202A2A2A2A2A20257320256429203A
:104D40002A2A2A2A2A0A00574553545F544F5044AE
:104D500049522F7A65706879722F6472697665722C
:104D6000732F636C6F636B5F636F6E74726F6C2F06
:104D7000636C6F636B5F636F6E74726F6C5F6E7288
:104D8000662E6300636C6F636B40343130303530B6
:104D90003030006866636C6B006C66636C6B00633C
:104DA0006C6F636B5F636F6E74726F6C0025633A38
:104DB00020756E616C69676E6564206164647265FC
:104DC00073733A2030782530386C783A257A750A32
:104DD0000025633A20696E76616C696420616464C1
:104DE000726573733A2030782530386C783A257ABA
:104DF000750A0025633A206E6F7420776F72642DF8
:104E0000616C69676E65643A2030782530386C785B
:104E10003A257A750A00666C6173682D636F6E744B
:104E2000726F6C6C65724034313038303030300025
:104E3000666C6173685F6E726600574553545F54C9
:104E40004F504449522F6E72662F6C69622F667004
:104E5000726F746563742F6670726F746563745FCC
:104E600061636C2E6300574553545F544F5044495F
:104E7000522F6D6F64756C65732F68616C2F6E6F48
:104E8000726469632F6E7266782F68616C2F6E7220
:104E9000665F61636C2E680025633A205265736516
:104EA0007474696E672073797374656D0A00666146
:104EB00074616C5F6572726F7200426F6F74696EBD
:104EC00067202830782578292E0D0A00496E7661F2
:104ED0006C6964206669726D7761726520696E66BF
:104EE0006F20666F726D61742E0A0D005468652024
:104EF0006669726D7761726520646F65736E277481
:104F00002062656C6F6E67206174206465737469DC
:104F10006E6174696F6E20616464722E0A0D007395
:104F2000726320616E6420647374206D75737420E5
:104F3000626520657175616C20666F72206C6F63AD
:104F4000616C2063616C6C732E0A0D004669726D92
:104F50007761726520696E666F20646F65736E2776
:104F60007420706F696E7420746F20697473656C3F
:104F7000662E0A0D00466972776D61726520686160
:104F800073206265656E20696E76616C6964617418
:104F900065643A20307825782E0A0D0043616E6EE4
:104FA0006F74207265616420746865206669726D33
:104FB000776172652076657273696F6E2E20256445
:104FC0000A0D00576520617373756D6520746869FB
:104FD000732069732064756520746F207468652080
:104FE0006669726D776172652076657273696F6E3E
:104FF000206E6F74206265696E6720656E61626CF9
:1050000065642E0A0D004669726D776172652076BF
:10501000657273696F6E2028257529206973207366
:105020006D616C6C6572207468616E206D6F6E6F5F
:10503000746F6E696320636F756E746572202825C6
:1050400075292E0A0D004669726D776172652069B7
:105050006E666F206973206E6F742077697468695B
:105060006E207369676E656420726567696F6E2E66
:105070000A0D00426F6F742061646472657373205F
:105080006973206E6F742077697468696E20736924
:10509000676E656420726567696F6E2E0A0D005237
:1050A000657365742068616E646C65722069732035
:1050B0006E6F742077697468696E207369676E65B6
:1050C0006420726567696F6E2E0A0D00436F756C00
:1050D00064206E6F742066696E642076616C69640A
:1050E000206669726D776172652076616C696461B2
:1050F00074696F6E20696E666F2E0A0D0056616CC2
:1051000069646174696F6E20696E666F20646F6593
:10511000736E27742062656C6F6E6720746F2074E5
:10512000686973206669726D776172652E0A0D0079
:10513000626C5F63727970746F5F696E697428293D
:105140002072657475726E65642025642E0A0D00E8
:105150004669726D776172652076616C696461740D
:10516000696F6E206661696C656420776974682078
:105170006572726F722025642E0A0D004669726D89
:105180007761726520686173682076657269666907
:1051900065642E0A0D0025633A2073747265616D93
:1051A0005F666C6173685F696E6974206661696CC3
:1051B00065643A2025640A0025633A207374726599
:1051C000616D5F666C6173685F6275666665726566
:1051D000645F7772697465206661696C3A20256442
:1051E0000A0025633A205472616E7366657220640A
:1051F0006F6E650A00706364004552524F523A2048
:1052000043616E6E6F742066756C66696C6C2045C8
:1052100058545F41504920726571756573742E0D45
:105220000A005741524E494E473A204F7074696FF9
:105230006E616C204558545F41504920726571750C
:10524000657374206E6F742066756C66696C6C652E
:10525000642E0D0A000000000101000000574553B4
:10526000545F544F504449522F6D6F64756C657391
:105270002F68616C2F6E6F726469632F6E7266782F
:105280002F647269766572732F7372632F6E726604
:10529000785F636C6F636B2E6300574553545F54A4
:1052A0004F504449522F6D6F64756C65732F686160
:1052B0006C2F6E6F726469632F6E7266782F6861EF
:1052C0006C2F6E72665F636C6F636B2E68004E525C
:1052D00046585F434C4F434B00574553545F544F20
:1052E000504449522F6D6F64756C65732F68616C03
:1052F0002F6E6F726469632F6E7266782F647269A5
:10530000766572732F7372632F6E7266785F6E7636
:105310006D632E6300556E6B6E6F776E20657272D3
:105320006F720025633A203E3E3E205A4550485950
:105330005220464154414C204552524F5220256440
:105340003A202573206F6E204350552025640A00B3
:1053500025633A204661756C7420647572696E67C6
:1053600020696E746572727570742068616E646C09
:10537000696E670A0A00756E6B6E6F776E00256343
:105380003A2043757272656E742074687265616448
:105390003A20257020282573290A00574553545F69
:1053A000544F504449522F7A65706879722F6B655B
:1053B000726E656C2F666174616C2E63004350558C
:1053C00020657863657074696F6E00556E68616EF4
:1053D000646C656420696E746572727570740053D4
:1053E0007461636B206F766572666C6F77004B65D6
:1053F000726E656C206F6F7073004B65726E656CBA
:105400002070616E6963006F73002A2A2A20426F40
:105410006F74696E67205A6570687972204F5320E7
:105420006275696C642076332E332E39392D6E63A4
:1054300073312D31202A2A2A0A00000000000001C1
:10544000D93B0001040000210400002100000000FD
:0454500015E015E06E
:1085A800008800010088000101000000FFFFFFFFB4
:1085B80018E0A854002FDF0436CD66EC9EF94B6C0A
:1085C800010001000100F000FFFFFFFFFFFFFFFFB8
:1085D800FFFFFFFFFFFFFFFFFFFFFFFFFFFFFFFFA3
:1085E800FFFFFFFFFFFFFFFFFFFFFFFFFFFFFFFF93
:1085F800FFFFFFFFFFFFFFFFFFFFFFFFFFFFFFFF83
:10860800FFFFFFFFFFFFFFFFFFFFFFFFFFFFFFFF72
:10861800FFFFFFFFFFFFFFFFFFFFFFFFFFFFFFFF62
:10862800FFFFFFFFFFFFFFFFFFFFFFFFFFFFFFFF52
:10863800FFFFFFFFFFFFFFFFFFFFFFFFFFFFFFFF42
:10864800FFFFFFFFFFFFFFFFFFFFFFFFFFFFFFFF32
:10865800FFFFFFFFFFFFFFFFFFFFFFFFFFFFFFFF22
:10866800FFFFFFFFFFFFFFFFFFFFFFFFFFFFFFFF12
:10867800FFFFFFFFFFFFFFFFFFFFFFFFFFFFFFFF02
:10868800FFFFFFFFFFFFFFFFFFFFFFFFFFFFFFFFF2
:10869800FFFFFFFFFFFFFFFFFFFFFFFFFFFFFFFFE2
:1086A800FFFFFFFFFFFFFFFFFFFFFFFFFFFFFFFFD2
:1086B800FFFFFFFFFFFFFFFFFFFFFFFFFFFFFFFFC2
:1086C800FFFFFFFFFFFFFFFFFFFFFFFFFFFFFFFFB2
:1086D800FFFFFFFFFFFFFFFFFFFFFFFFFFFFFFFFA2
:1086E800FFFFFFFFFFFFFFFFFFFFFFFFFFFFFFFF92
:1086F800FFFFFFFFFFFFFFFFFFFFFFFFFFFFFFFF82
:10870800FFFFFFFFFFFFFFFFFFFFFFFFFFFFFFFF71
:10871800FFFFFFFFFFFFFFFFFFFFFFFFFFFFFFFF61
:10872800FFFFFFFFFFFFFFFFFFFFFFFFFFFFFFFF51
:10873800FFFFFFFFFFFFFFFFFFFFFFFFFFFFFFFF41
:10874800FFFFFFFFFFFFFFFFFFFFFFFFFFFFFFFF31
:10875800FFFFFFFFFFFFFFFFFFFFFFFFFFFFFFFF21
:10876800FFFFFFFFFFFFFFFFFFFFFFFFFFFFFFFF11
:10877800FFFFFFFFFFFFFFFFFFFFFFFFFFFFFFFF01
:10878800FFFFFFFFFFFFFFFFFFFFFFFFFFFFFFFFF1
:10879800FFFFFFFFFFFFFFFFFFFFFFFFFFFFFFFFE1
:0887A800FFFFFFFFFFFFFFFFD1
:00000001FF
